:020000040002F8
:10600000809C0020DD630200E5630200E76302007C
:10601000E9630200EB630200ED6302000000000090
:10602000000000000000000000000000EF6302001C
:10603000F163020000000000F3630200F563020058
:10604000F9990200959A0200B5A10200F7630200D7
:10605000F7630200F763020015670200019B02006C
:10606000F7630200719F0200F7630200F76302000A
:10607000F7630200F7630200F7630200F7630200B0
:10608000F7630200F19A0200819A02001167020090
:10609000499C0200F7630200A19C0200F763020022
:1060A000F7630200F7630200C19F0200F76302007A
:1060B000519A0200F7630200000000000000000097
:1060C000F7630200619A0200719A0200F76302000E
:1060D000F7630200F7630200F763020000000000AC
:1060E00000000000000000000000000000000000B0
:1060F00000000000000000000000000000000000A0
:10610000000000000000000000000000000000008F
:10611000000000000000000000000000000000007F
:10612000000000000000000000000000000000006F
:10613000000000000000000000000000000000005F
:10614000000000000000000000000000000000004F
:10615000000000000000000000000000000000003F
:10616000000000000000000000000000000000002F
:10617000000000000000000000000000000000001F
:10618000000000000000000000000000000000000F
:1061900000000000000000000000000000000000FF
:1061A00000000000000000000000000000000000EF
:1061B00000000000000000000000000000000000DF
:1061C00000000000000000000000000000000000CF
:1061D00000000000000000000000000000000000BF
:1061E00000000000000000000000000000000000AF
:1061F000000000000000000000000000000000009F
:10620000DFF80CD000F0BCF90048004765DD020063
:10621000809C002000B583B002900091019244F26E
:10622000010071466A4604F071FA03B000BD000037
:1062300030B450E8012F93B2C48923448489A34227
:1062400028BF1B1B0489A34202BFBFF32F8F00206E
:1062500007E0C3EA020340E80134002CE9D14FF023
:1062600001000A6030BC704750E8012FC2EA0242C8
:1062700040E801210029F7D1704730B450E8022FDF
:106280001FFAA2F3C488A34202BFBFF32F8F0020DE
:106290000DE0C48923448489A34228BF1B1BC2EAA2
:1062A000034340E80234002CE8D14FF001000A60BB
:1062B00030BC704750E8022FC2EA224240E8022177
:1062C0000029F7D17047034653E8022FD988B2EB73
:1062D000324F4FF0000017BF92B241EA014142EA4B
:1062E000014104E05A68B2EB324F08BF012043E895
:1062F0000212002AE8D1704730B4044654E8000F77
:106300000D4644E80053002BF8D1156030BC7047AF
:1063100030B4044654E8000F40EA010544E8005355
:10632000002BF7D1156030BC704730B4044654E8F8
:10633000000F00EA010544E80053002BF7D1156077
:1063400030BC704730B4044654E8000F80EA0105C1
:1063500044E80053002BF7D1156030BC704730B4CF
:10636000044654E8000F00EB010544E80053002BFD
:10637000F7D1156030BC704730B4044654E8000FC4
:10638000A0EB010544E80053002BF7D1156030BCA9
:10639000704770B404464FF0000054E8006F0D6879
:1063A000AE4207BF44E80023012044E800630E60CA
:1063B000002B1CBF0020F0E770BC704730B40446CF
:1063C00054E8000F88422CBF451A054644E80053A4
:1063D000002BF5D1156030BC70470000064880479F
:1063E00006480047FEE7FEE7FEE7FEE7FEE7FEE7BA
:1063F000FEE7FEE7FEE7FEE7A59C02000162020061
:10640000202A04DB203A21FA02F00021704721FA09
:1064100002F3D040C2F12002914008431946704770
:1064200040EA01039B0703D009E008C9121F08C016
:10643000042AFAD203E011F8013B00F8013B521E96
:10644000F9D27047D2B201E000F8012B491EFBD20D
:1064500070470022F6E710B513460A46044619466F
:10646000FFF7F0FF204610BD421C10F8011B002969
:10647000FBD1801A704710B5002200E0521C835CEB
:106480008C5CA34201D1002BF8D1D8B2E1B2401A02
:1064900010BD30B504460020034600E05B1C93426B
:1064A00003D2E05CCD5C401BF8D030BD30B5054672
:1064B0000020034600E05B1C934205D2EC5CC85C04
:1064C000201A01D1002CF6D130BD70B5064603F07C
:1064D000D3FE046805460A220021304600F018F871
:1064E0002C6070BD30B50B460146002020220124EF
:1064F00009E021FA02F59D4205D303FA02F5491B92
:1065000004FA02F52844151EA2F10102F1DC30BDA7
:106510002DE9F04791460F4680460446002614F8C0
:10652000015B2DB100F03EF80068405DC007F6D178
:106530002B2D02D02D2D18D0641E4A4639462046F8
:1065400000F034F827B13968A14201D1C7F80080C2
:1065500071054FF002040BD54042002803DD03F023
:106560008BFE0460A007BDE8F08746F48066E4E790
:106570000028F8DA03F080FE04606FF00040F2E7D4
:10658000064C074D06E0E06840F0010394E8070080
:1065900098471034AC42F6D3FFF736FE146A030076
:1065A000346A030000487047886903002DE9F05FF2
:1065B00082460078002715468B460AF10104B94649
:1065C000302801D09DB113E014F8010B0127782881
:1065D00003D0582801D045B10AE00DB1102D07D1E4
:1065E0000027102514F8010B02E0082500E00A2519
:1065F0000026B0460EE005FB080005FB06F101276A
:1066000001EB10461FFA80F8B6F5803F00D3B9467B
:1066100014F8010B294600F018F80028EBDABBF15A
:10662000000F05D00FB1641E00E05446CBF80040C7
:10663000B9F1000F06D003F01FFE02210160C81E51
:10664000BDE8F09F48EA0640FAE73A2800D2303821
:1066500020F02002412A01D3A2F13700884201D361
:106660004FF0FF30704770B58C1810F8015B15F0D3
:10667000070301D110F8013B2A1106D110F8012BB4
:1066800003E010F8016B01F8016B5B1EF9D12B07D9
:1066900005D40023521E0DD401F8013BFAE710F88F
:1066A000013BCB1A921C03E013F8015B01F8015B7C
:1066B000521EF9D5A142D8D3002070BD30B50024B8
:1066C0001FE000BF51F82450854219D2B4B101EB4C
:1066D000840351F8241053F8045C02EB840352F84D
:1066E000242053F8043C401A9C1A6043691AB0FBFA
:1066F000F1F01044984200D9184630BD106830BD02
:10670000641C9C42DED302EB830050F8040C30BDC5
:1067100001F090B92DE9F8430025DFF894804FF49B
:10672000807601242F460095304608F003FF38B1EB
:10673000D8F80403204203D0304608F0F1FE254388
:10674000361D64007F1CB6B2082FEDD34FF4BE7423
:10675000204608F0EFFE48B1204608F0E1FE45F083
:1067600000456A460121002008F0B4FE15F0FF0F35
:1067700016D0012600242E420ED008EB8401D1F859
:106780001005D1F81015C0F304200A4AC1F30141E5
:1067900052F8242002B190477600641C082CEAD3FA
:1067A000002D02DA68460BF069F9BDE8F8830000B5
:1067B000006000405C6400200748016C491E41F005
:1067C000010101630549096B012903D04FF0FF3135
:1067D000416370470021FBE7D02B0020807F002021
:1067E00030B589B02C492D4809F08AFC18B12CA28B
:1067F0004221FFF70FFD294D0024281D07C88DE811
:1068000007008DF802408DF803406946042009F026
:1068100021FC18B122A24821FFF7FCFC05F1100071
:1068200003AB07C883E807008DF80E408DF80F40D2
:1068300003A9052009F00EFC18B119A24E21FFF79B
:10684000E9FC1C3506AB95E8070083E80700042047
:106850008DF81A008DF81B4006A9072009F0FAFBF5
:1068600018B10FA25521FFF7D5FC0321194809F0F3
:106870009FFB18B10AA25821FFF7CCFC1548032151
:10688000801D09F095FB002803D005A25921FFF7D0
:10689000C1FC09B030BD00003D230300D438030023
:1068A0002E2E5C2E2E5C2E2E5C2E2E5C2E2E5C2E22
:1068B0002E5C2E2E5C2E2E5C4C4C5F4861726477F1
:1068C0006172655C4C4C5F4144435F6E52463532A9
:1068D0002E630000187D002009F05CBC10B5014655
:1068E000064804F03CFD18B105A29621FFF792FC82
:1068F000BDE810400121014804F02EBD7034002095
:106900002E2E5C2E2E5C2E2E5C6D61696E2E630029
:1069100010B50321054804F0D7FD002805D0BDE8D7
:10692000104003A29A21FFF775BC10BD70340020FF
:106930002E2E5C2E2E5C2E2E5C6D61696E2E6300F9
:10694000024890F8540074DF704700007034002053
:106950002DE9F05F6F4C724B724E20686268824680
:106960006E4D50F822C06C4899784FF001090788A5
:1069700030684FF6FF7BBCF1170F1CD2DFE80CF03C
:106980001B0C1B1D27373D53596B6D76901B1B1B32
:106990001B1B1B1BAFC4B1000AEB82014B68A16833
:1069A000814201D8411A01E0C9430144994202D30E
:1069B000921CC4E90120BDE8F09F5F4550D1FFF76C
:1069C000BFFF59A00CF010FB40F2011007E05F453B
:1069D00046D1FFF7B5FF54A00CF006FB002000F0F5
:1069E000F7F8534981F80090FFF792FF38E0B4229E
:1069F000642185F800900A200CE091B101290CD0A7
:106A000002290CD000200221297028726872B42259
:106A100064210C2005F0E2FE22E01A20F3E7252095
:106A2000F1E70F20EFE700F0DDF90321297028726C
:106A30002CE000F04DFB052129702872010A6972D3
:106A4000000CA87201224FF47A710D2005F0C6FEE9
:106A500000F058FA04E0012000E0002003F0F0FD0F
:106A60006068401C60603068A060A4E7DA7819B103
:106A700001290FD002290FD000200AB1012A0DD020
:106A8000002107222A7060F31F112972B4226421A9
:106A90000B20BFE70120F0E70220EEE70121F0E73D
:106AA00093F801904FF005080121484602F08EFE50
:106AB00007460221484602F089FE0821297085F820
:106AC00008806F72390AA972390CE9722873010AB9
:106AD0006973000CA873B422642111209AE7154849
:106AE00014E0154A1168814201D8401A01E0C943F7
:106AF00008444EF66021884206D90E48183000F04E
:106B00001DF83068106056E70A480830BDE8F05FAD
:106B100000F014B8B02F0020D42B0020187E0020E5
:106B2000A42C0020102C00204E7978656C00000009
:106B3000BC2C002000390300F02F0020034908601E
:106B4000002048600248006888607047B02F00202D
:106B5000102C00201FB500200190029003901648D1
:106B60000090164A6946164807F08AFE18B1154A81
:106B7000E721FFF74FFB14A20021114807F000FEA8
:106B800018B1104AE821FFF745FB00221F210C48ED
:106B900007F053FE18B10B4AEA21FFF73BFB084808
:106BA00007F092FF002806D004B0064ABDE8104066
:106BB000EE21FFF72FBB1FBDBE2F0020C123030016
:106BC0002C7E0020D06903004C4D4D0007F09EBF85
:106BD00010B5044692B03C211948FFF73AFC3C211D
:106BE0006846FFF736FC02228DF8002001208DF860
:106BF000020006218DF8031012490A704870A32084
:106C000088700520C8700420ADF840000C48119130
:106C1000ADF83C400FA941620A490282143141613A
:106C200002466946A0F2344004F046FB002804D036
:106C300005A240F2A151FFF7EDFA12B010BD00001D
:106C4000A4380020082C00202E2E5C2E2E5C2E2E28
:106C50005C6D61696E2E63002DE9F0414A4C20782D
:106C6000002827D000F0BEF8411C23D0E168491C61
:106C700004D1E060642801D96421E1602378002612
:106C80000121DFF808C1424A424D072B12D2DFE84A
:106C900003F01104203359465900936B0427012B4C
:106CA0000AD00223352801D805280ED92370286878
:106CB000C4E90106BDE8F08100220521104600F07C
:106CC00041FF27702868606012E09163CCF80010E3
:106CD000F2E761682868814201D8411A01E0C9439E
:106CE000014440F6CA029142E4D90321606014E0F5
:106CF000401E2860A660DDE761682868814201D8EF
:106D0000411A01E0C94301448C29D3D96060A168CC
:106D1000491CA1600629CDD305212170E8E701288F
:106D2000C8D891630620CCF80010207028686060F5
:106D3000401E2860A66049DF00F0DAF81648C670E9
:106D40008670B7E761682868814201D8411A01E07E
:106D5000C94301448C29ADD96060207AC0074FF047
:106D600000000ED002F04AFCA068401CA0600A2877
:106D7000A0D3002002F042FC2670BDE8F04101F0F3
:106D8000B7B802F06BFCEFE708300020802E00203F
:106D9000807F0020102C0020A42C0020014901201D
:106DA0000870704708300020002301220421184693
:106DB00000F076BE00F092B810B5002302221E212A
:106DC000184600F099FE01221E21002000F0BAFEB4
:106DD000034C204603F00AF94FF0FF30206110BD4C
:106DE000047D002030B5174889B04FF0FF310469A9
:106DF000621C05D102681AB3C368B3FBF2F40461E4
:106E0000601C1DD0FFF7D6FF0F4948B12DC98DE892
:106E10002D000FC904AD85E80F00042304AA09E082
:106E2000203103AD0DC98DE80D0007C985E80700C5
:106E3000032303AA69462046FFF740FC09B030BD92
:106E40000846FBE7047D00209C38030070B5FFF77F
:106E5000B1FF1D4D1D49044628680968884201D8C4
:106E6000081A01E0C0430844322802D92960FFF71C
:106E700033FD174869680268914224D00068686051
:106E80001448006814494A68824200D248608A68FF
:106E9000824200D98860CA680244CA600868431CFC
:106EA0000B60B0F5166F0ED3B2FBF3F00A6914B1A4
:106EB000824202D302E0824200D90861BDE87040FC
:106EC000054803F093B870BD782F0020102C0020E7
:106ED0008C2F0020802F0020047D002010B504217D
:106EE000002000F0FFFD08B1002010BD012010BD02
:106EF00010B5002001F098FD01490020086210BD86
:106F0000642C0020024800210160416070470000AD
:106F1000702F0020014AC2E900017047702F002045
:106F20001CB562494FF0010B002581F800B02E46D8
:106F30004FF4E1675A461B21284600F003FE012268
:106F40000521002000F0FEFD01F0C8FC584890F833
:106F5000540074DFDFF85CA113215446BAF8040032
:106F600076DFFFF733FE4FF4A8515348FFF771FA6D
:106F7000162000F055FB246CDFF84091FFF766FF08
:106F800001F0B6FC16B1012E1BD10AE0684601F0F3
:106F900077FCB0B10098A0B90198012811D1012661
:106FA0000FE0684601F06CFC58B1009848B90198B0
:106FB00038B9002615B1012D02D002E0012500E00C
:106FC0000025DAF84000844201D8011B01E0E143CA
:106FD0000144B94267D3044675BB394800684FF491
:106FE00061614843C11700EB915081123548006838
:106FF0004FF461625043C21700EB92508012B1F51A
:107000007A7F04D9642802D24FF0FF0814E0B8F167
:10701000FF0F06D0FFF7E6FE1421B0FBF1F000F001
:10702000FF082948816B39B1B8F1000F04D0002165
:107030008163C9F800B003E0D9F80000012804D149
:1070400006F08EFA0020C9F800004FF4A8511F483E
:10705000FFF7FFF9FDB9B8F1050F01D31C2018E0C7
:10706000B8F1040F0CD0B8F1030F0BD0B8F1020F38
:107070000AD0B8F1010F09D0B8F1000F08D00AE02A
:107080001B2006E01A2004E0192002E0182000E08E
:10709000172000F0C5FAFFF721FF20B9C9F800B0AA
:1070A00002F0D8FB33DF01F0A9FF67E7642C002072
:1070B00070340020D02B002014390020802E0020B6
:1070C000842F0020882F0020807F0020144E002075
:1070D0000148006870470000041501400748006837
:1070E000074906C9884201D3401A03E06FF07F4385
:1070F000591A0844104420F07F407047041501409D
:10710000702F002002490A680249C1E90020704737
:1071100004150140702F00202DE9F04717460C465A
:107120005FEA000955D0002C53D0302C51DC0025EB
:1071300023E000BF05EB4500C0EB451007EB8006E0
:10714000301D7021FFF785F90020C5EBC501224BEA
:1071500009EB81028446115C0E2906D206EB8008F9
:1071600053F82110C8F8041003E006EB8001C1F8C1
:1071700004C0401C1C28EEDB6D1CA542DADB30206D
:1071800090FBF4F0C3B2012B23D901221FE00021B0
:107190001AE001EB4105C5EB411507EB850604FB41
:1071A000021505EB450CCCEB4515002007EB8505DA
:1071B00006EB800C05EB8008DCF804C0401CC8F826
:1071C00004C01C28F4DB491CA142E2DB521C9A4299
:1071D000DDDBBDE8F0870000786803002DE9F047AB
:1071E00091460E4607002AD0002E28D0302E26DCED
:1071F000002422E004EB4400C0EB441109EB8105BC
:10720000281D7021FFF725F90020C4EBC4010D4BA8
:1072100007EB81028446115C112906D205EB800838
:1072200053F82110C8F8041003E005EB8001C1F801
:1072300004C0401C1C28EEDB641CB442DADBBDE851
:10724000F0870000B06803002DE9FF5F91460E9FB4
:107250000C465FEA000A45D0002C43D0002527E009
:1072600005EB4500C0EB451109EB8106301D70218F
:10727000FFF7EFF80020C5EBC501264A0AEB8103B2
:107280008346195CA1F1010CBCF10D0F08D206EB8D
:10729000800852F821C0C8F804C052F8218003E0E9
:1072A00006EB800CCCF804B0401C1C28E9DB6D1CFC
:1072B000A542D5DB0398012812D0C7F11C0125E0B7
:1072C00004EB4401C1EB4411002009EB810104E00F
:1072D00001EB8003401CC3F80480B842F8D3641C5F
:1072E000302CEDDBBDE8FF9F04EB4402C2EB4412FF
:1072F0001B2009EB820204E002EB8005401EC5F86A
:107300000480814201D80028F6DA641C302CEBDBC3
:10731000E8E7000078680300F0B50E4D002426462B
:1073200048F20E0148F2060205F1540707202B78B7
:10733000C34013F0010F01D00B4600E0134627F8BD
:107340003430401E04F10104F1D56D1C761C542E1E
:10735000ECDBF0BDA4670020F0B50F4C00263546ED
:1073600048F20E0148F2060204F154070720237880
:10737000C34013F0010F01D00B4600E0134607EBAA
:10738000C60C401EACF8023006F10106EFD5641CB5
:107390006D1C542DEADBF0BDA4670020084810B531
:1073A000417851B100214170012300F11C011A46BE
:1073B000143008F0A5FD002010BD112010BD000004
:1073C000B42D002070B50E4B0E4AC0EBC00000215A
:1073D00003EB001303EB810001EB41058068AC185F
:1073E000060C6670060A491C5655C9B2A0701C29C5
:1073F000F0D3FFF791FFBDE8704000F041B8000006
:107400000C390020A467002030B5034600201B2B58
:1074100000D9072001B1072003EB4304054B01EB22
:10742000410123445C18150C6570150A5D54A27067
:1074300030BD0000A467002070B50F4B0F4AC0EBB1
:10744000C000002103EB001303EB810000F5805026
:1074500001EB4105D0F80805AC18060C6670060A69
:10746000491C5655C9B2A0701C29EDD3FFF774FF13
:10747000BDE8704000F004B80C390020A46700207B
:1074800010B50024002211462046FFF7BDFF00285A
:1074900003D1641CE4B21C2CF4D310BD2DE9F041DF
:1074A000ADF5B05D044601AD4FF4AE512846FEF790
:1074B000D0FF4E484FF4A85631460746FEF7C9FFA5
:1074C00022464B48494C0F210C230068083C1E2AD9
:1074D00013D2DFE802F00F0F0F161A1E25122A1220
:1074E0002F35565D646B70757982127D12121212FF
:1074F00012121287012000F09FF90DF5B05DBDE872
:10750000F081012001F0A6FBF7E721802A463948E7
:1075100003E0102121802A463748FFF7FDFD17E0E0
:107520000121002001F09CFAE7E70121334801F036
:1075300015FBE2E72180009001232A46304805E050
:1075400013212180009001232A462E48FFF77CFE5C
:10755000002000EB4002C2EB401205EB8203C0EBBF
:10756000C002002104EB021203EB810602EB81074B
:107570007668491CBE601C29F6DB401C3028E8DB1D
:10758000BBE715212180009001232A461E48DDE734
:1075900019212180009001232A461C48D6E730207B
:1075A000208031463846FEF754FFA6E723802A465E
:1075B00019461748B1E723802A4619461548ACE713
:1075C000012001F027FC98E7012001F087FC94E7F7
:1075D0001C2121802A4610489FE7012121802A464C
:1075E0000E489AE701F0EAFB87E700001439002013
:1075F000A02C0020246103008930002005060C0027
:10760000344F0300D8500300EC52030038550300F8
:10761000C8390300683C030014490300083F030015
:107620002DE9F047ADF5B05D074601AD4FF4AE5121
:107630002846FEF70EFF6D484FF4A859494682468A
:10764000FEF707FF6A480F210C2330260068694CBB
:107650004FF0100C4FF001081E2F14D2DFE807F096
:107660000F0F0F171C2028132F13353B454C535B6E
:1076700060656972786D7EA0A6ACB1B7BCC2668049
:10768000022000F0D9F80DF5B05DBDE8F087668006
:10769000022001F0DFFAF6E761802A46564804E04E
:1076A0006146A4F802C02A465448FFF735FD5BE066
:1076B000A4F802C00221002001F0D2F9E3E7022180
:1076C0004FF4302001F04AFADDE761800090022398
:1076D0002A464B4805E013216180009002232A4688
:1076E0004848FFF7B1FD66803EE0152161800090BB
:1076F00002232A464448F4E71921618000900223BE
:107700002A464248EDE749465046FEF7A2FE01F000
:10771000FDFA6080B7E7194663802A463C48C4E713
:10772000194663802A463B48BFE7022001F072FBFE
:10773000A9E7022001F0D2FBA5E71C2161802A46BF
:107740003548B2E74146A4F802802A463348ACE700
:107750000221324861802A461C30A6E7252161803B
:107760002A462F48FFF73AFD002101EB4102C2EB08
:107770004112C1EBC103002005EB820204EB0313AD
:1077800002EB8006776803EB800606F58056401C06
:10779000C6F808751C28F3DB491C3029E5DB72E7C5
:1077A00018211E4861802A4654307EE76146A4F8BD
:1077B00002C02A461B4878E7194663802A461A48C1
:1077C00073E76146A4F802C02A4618486DE71946D7
:1077D00063802A46164868E74146A4F802802A4694
:1077E000144862E701F0EAFA4DE70000144E002069
:1077F000A02C00200C390020C86203004932002070
:10780000F457030098590300AC5B0300F85D0300D4
:10781000183B0300B83D0300244C0300243F030041
:107820006C64030018420300D8430300284503009A
:10783000E8460300384803002DE9F05FDFF8B0A008
:1078400006460C2530249AF82600012E1FD002216E
:1078500001F0BCFFDFF89CB08146002101FB05F080
:10786000B0FBF4F2B4FBF5F0B1FBF0F300FB131046
:10787000530029FA03F212F003034FF000020AD07A
:10788000012B06D0022B04D0032B04D102E00121EE
:10789000DEE700B901229AF82670C1EBC10C07EBB4
:1078A00047070AEB870300200BEB0C17012E03D0D0
:1078B0006AB1D3F888C00CE012B1D3F884C001E0FB
:1078C0004FF0000C07EB8008C8F808C007E04FF045
:1078D000000C07EB800808F58058C8F808C5401C64
:1078E0001C28E3D3491CA142B8D3BDE8F09F000097
:1078F000807F00200C39002070B515460C460A46E2
:107900008AB001461E460DF10500FEF789FD8DF88F
:1079100000408DF801508DF80360684607F0F4FBD5
:107920000AB070BD254A10B51078052807D0244844
:10793000C178491CC1705168012909D020E0214853
:1079400007F07AFA80BB1F48001D07F0ADFA32E05D
:107950004178A9B91C4B1D491A6809688A4201D8A7
:107960008A1A01E0D2430A44B2F5FA7F08D382783A
:10797000521CD2B28270022A01D300228270196096
:10798000134C94F8E51099B104F1E10007F054FAB2
:10799000002811D194F8E000012806D00D4800BF5E
:1079A00007F082FA002807D105E00648001DF7E736
:1079B000807800F011F8002010BD0000A42C0020F9
:1079C00018300020B6390300142C0020102C0020A1
:1079D000807F0020E538002070B5134D01228240E1
:1079E000E97D114211D000EBC0004419601D07F081
:1079F00023FA002808D195F8E000012811D004F1FD
:107A0000090000BF07F050FA70BD0748E13007F0E9
:107A100013FA0028F8D195F8E000012801D00348B6
:107A2000F0E70348EEE70000807F0020E538002003
:107A3000BA39030001F04CBFF0B5184E002404EB36
:107A40004405002306EBC50555F8237087421AD17B
:107A50000C7053B1012B0AD0022B0AD0032B0AD091
:107A6000042B0AD0052B0AD00BE0002008E01E20D2
:107A700006E0322004E0462002E05A2000E0FF2029
:107A800010700120F0BD5B1CDBB2062BDCD3641C44
:107A9000E4B2082CD3D30020F0BD0000544803000A
:107AA0001CB508460021012A02D0022A03D101E0B8
:107AB000032100E00121022B09D0012B09D00B4644
:107AC000002100910A46019107F0CDFC1CBD022265
:107AD00000E0032207F0E2FCBDE81C40012007F0B3
:107AE00037B800000348006801228A401040C840AF
:107AF000704700001005005010B5114C012088405F
:107B000020600024012A02D0022A03D101E00324CC
:107B100000E00124890001F5E06101F1A0410A685B
:107B200022F00C020A600A6842EA84020A60012B11
:107B300003D003490C39086010BD01491039FAE738
:107B40001805005001208840012A02D0024908602F
:107B500070470149091FFAE70C0500502DE9F0476D
:107B60000024924689462346FF2804D0642805D382
:107B70004FF0040206E04FF0050203E04FF014015D
:107B8000B0FBF1F2DFF86080D9F80070DAF800603D
:107B90004FF0000101EB41054FF0000008EBC50577
:107BA00055F820C0BC4500D10C46B44500D10B4669
:107BB000401CC0B20628F3D3491CC9B20829E9D336
:107BC00004EB440008EBC00050F8221003EB430024
:107BD00008EBC000C9F8001050F822100120CAF8C4
:107BE0000010BDE8F087000054480300F0B50828F5
:107BF00000D3072000240F4D0E68234603EB4307F4
:107C0000002205EBC70700BF57F822C0B44500D1DA
:107C10001446521CD2B2062AF6D35B1CDBB2082BE8
:107C2000ECD300EB400005EBC00050F824000860E6
:107C30000120F0BD54480300F0B50024FF2804D013
:107C4000642805D34FF0040306E04FF0050303E07A
:107C50004FF01402B0FBF2F30F4D0E684FF000022C
:107C600002EB42074FF0000005EBC70757F820C0B2
:107C7000B44500D11446401CC0B20628F6D3521CAD
:107C8000D2B2082AECD304EB440005EBC00050F854
:107C9000230008600120F0BD54480300002101705A
:107CA0004FF080510A6E42700A6E120A82700A6E9C
:107CB000120CC2700A6E120E02714A6E42714A6E46
:107CC000120A82714A6E120CC271496E090E01725B
:107CD0007047000070B53A4D3A4E3B4CAA78B178E7
:107CE0008A4227D02046406B82B1012A02D0022A64
:107CF0001DD105E004281AD03349B231002014E028
:107D0000042814D03049BC3100200EE004280ED0E5
:107D1000012904D12C490020C63100F033FEB0788F
:107D2000022804D128490020D03100F02BFE27483A
:107D3000FEF704FFA878012805D0022808D0E878CB
:107D400001280AD00CE00F20FFF7A8FB0F2030E03D
:107D50001020FFF7A3FB10202BE0206B012806D09A
:107D60006878D8B101281CD0022824D11CE094F8EE
:107D70002600022101F02AFD6FF07F4188424FF07A
:107D8000130003D1FFF78AFB142002E0FFF786FB04
:107D90001320FFF745FC00F069FD0CE014F8270FF5
:107DA00004E014F8280F01E014F8290FFFF776FB20
:107DB000E078FFF735FCD5E90001C6E9000170BDA8
:107DC000A42C0020AC2C0020807F00206839030008
:107DD0000449062008700448403900688863FFF7AA
:107DE00087B80000A42C0020102C002070B50122C0
:107DF00005210020FFF7A6FE1A491B4E032008703C
:107E0000A1F140043068A063FEF7ECFFC0B2502837
:107E100003D91C200D25E0630EE03C2803D9152072
:107E20000C25E06308E0282803D912200B25E06325
:107E300002E00C200A25E0630C48816B01290BD07D
:107E40000B4A00212170918090F826002846FFF708
:107E500025FB2846FFF7E4FBFEF7A0FF30686063D0
:107E600070BD0000A42C0020102C0020807F00207A
:107E70000C3900200749002008708870C87040390C
:107E8000D1E9102308630448C1E91223006848635C
:107E900070470000A42C0020102C002070B5104C5E
:107EA00004202070617801200025A1B1012914D09F
:107EB00065700C4A617882F826100B49086001F061
:107EC000B3FCE570FFF706FF054808494038056335
:107ED0000968416370BD6070EBE702216170E8E7FB
:107EE000A42C0020807F0020802E0020102C002059
:107EF00006490720087005480021403801630449FD
:107F0000096841630349012008607047A42C0020E0
:107F1000102C0020802E00200B4810B50421017089
:107F200001214160094991F826104170FFF7D2FE06
:107F30000748FEF703FE0448002140380163054965
:107F40000968416310BD0000A42C0020807F002040
:107F500084390300102C002010B51048052100249E
:107F60000170012141608470C470FFF7B3FE40F2DC
:107F70000110FEF72DFE02F0C7FF0820FFF78EFA72
:107F80000820FFF74DFB0648FEF7D8FD03480549DA
:107F9000403804630968416310BD0000A42C002030
:107FA00000390300102C002070B51248114C012537
:107FB0000570403C002020630F480068606300F0BB
:107FC0008DFC00232570022203211846FFF794FD43
:107FD000012203210020FFF7B5FD01220521002029
:107FE000FFF7B0FDBDE8704001221B210020FFF724
:107FF000A9BD0000A42C0020102C0020084910B5B9
:1080000002200870012205210020FFF79BFD044893
:1080100000214038C162016302490968416310BD13
:10802000A42C0020102C00202DE9F041334E307894
:1080300008281CD2DFE800F004070A0D10131619F7
:1080400000F000F913E000F0EFFA10E000F078FB28
:108050000DE000F095F80AE000F0D0F907E000F03C
:108060007DFA04E000F050F801E000F02DF9FEF791
:108070006FFC224C224D403C0027206AA0B12968A9
:10808000884201D8081A01E0C04308447D2803D281
:10809000002000F0D7FC07E0B0F5FA7F03D2002003
:1080A00000F0C2FC00E02762F07828B1616A28681D
:1080B000814204D8401A04E02868606207E0C9439E
:1080C0000844B0F5FA6F02D9F770FFF703FEB078F5
:1080D00028B1A06A2968884205D8081A05E02868EE
:1080E000A062BDE8F081C043084406498842F8D93F
:1080F000B770BDE8F041FFF7EDBD0000A42C0020F3
:10810000102C0020C0D4010010B5194C19490020D2
:10811000207088800E20FFF7C1F90E20FFF780FA4B
:108120001548A16B0068814201D8421A01E0CA4398
:1081300002447D2A09D2114890F8A400182815D1CC
:10814000BDE81040002000F07DBC814201D8401AFB
:1081500001E0C9430844FA2804D2BDE810400020D9
:1081600000F062BCBDE81040FFF7C2BE10BD0000C9
:10817000642C00200C390020102C0020807F00206F
:108180002DE9FC412C4C2D4DA36B2A68D843D11A04
:108190001044934201D80E4600E00646284F7D2E3B
:1081A00097F8A47006D2182F02D1002000F04AFCE4
:1081B000BDE8FC81934201D80E4600E00646FA2E47
:1081C00003D2002000F030FCF2E7934201D80E46C3
:1081D00000E00646B6F5BB7FE5D9934200D80846D5
:1081E000B0F5FA7FEDD320780028E1D0E06830B117
:1081F000684600F045FB40B1009818B105E0FFF774
:108200008BFED5E701980028F9D0606B2968884279
:1082100001D8081A01E0C0430844B0F5FA6FC7D985
:10822000002000F03DFBE0680028E8D00020E0607E
:10823000FFF792FEBCE70000642C0020102C002009
:10824000807F00207CB51E4C1E4D206B40B1012864
:1082500023D1684600F014FB10B30098F0B11FE082
:10826000684600F00DFB48B1009838B90198012824
:1082700004D128686063206B401C2063606B296810
:10828000884201D8081A01E0C0430844B0F5FA6FEB
:1082900003D901F0DFFA01F019FB7CBD019858B158
:1082A000606B2968884201D8081A01E0C04308447D
:1082B000B0F5FA7FF1D90120E060FFF797FD7CBDB2
:1082C000642C0020102C0020F0B5424C424D20467A
:1082D000D4F830C0436B2A68D843D11A3F4E85B0DA
:1082E0004FF4FA771044BCF1070F3CD2DFE80CF0F2
:1082F000040910282F3D450039A1684601F060FFB0
:1083000012E0934200D80846B8422CD9022029E056
:10831000FEF768FD024633A1684601F051FF68464A
:10832000FEF7A2F8ADF810006846FEF79DF8ADF82C
:108330001000338804AA69462C4803F057FF0DE06B
:10834000934200D80846B8420DD904200AE030888C
:10835000A0F57F41FF3901D0132176DF28686063E3
:10836000206B401C206305B0F0BD934200D8084646
:10837000B0F5FA6FF7D90620F4E71D4CD4E90101F6
:10838000FFF7B0FB0128EED1FEF7DAFA0127194D0D
:10839000194E41DFD4E90101FFF7A4FBE1688842EF
:1083A00000D02F70307829780843F2D000F096FA88
:1083B000084F28780024403718B12C70BC70FFF7A4
:1083C00059FD30780028CED03470BC70FFF70EFD18
:1083D000C9E70000642C0020102C0020D42B0020C2
:1083E00044534300424C3A2575000000242C0020E1
:1083F000602E0020CC2F0020BC2F00202DE9FC4156
:108400004E4C4F4F4F4D206B4FF4FA78002610B171
:10841000012846D10EE0684600F032FA60B30098B9
:1084200050BB019801283CD128686063206B401C38
:10843000206336E0684600F023FA18B1009808B9C6
:10844000019828B1616B2868814216D8401A16E05D
:1084500021692868814201D8401A01E0C9430844D3
:10846000404504D238486661FEF768FB01E0012010
:10847000606126632868206113E0C9430844B0F5B1
:10848000FA6F0ED9002000F00BFA3048FEF756FBC9
:1084900097F8E600012802D12D4903200870FFF764
:1084A00097FC264897F82610403042788A4206D03A
:1084B0004170C670FFF70EFC266328686063606930
:1084C000012802D0022816D02FE0206929688842AE
:1084D00001D8081A01E0C0430844404525D9FFF7F8
:1084E000DDFC01F08BFD1B48FEF728FB2868A0632C
:1084F0000220606119E0A06B2968884201D80A1A3D
:1085000001E0C2430A44322A03D2002000F09AFA62
:108510000BE0884201D8081A01E0C04308446428EF
:1085200003D2002000F080FA66610B480078012831
:1085300001D1FFF74DFCBDE8FC810000642C002058
:10854000807F0020102C002058390300943903004C
:10855000F42F002068390300D22B00207CB52D4C6D
:108560002D4D206B10B101284DD10EE0684600F072
:1085700087F978B3009868BB0198012843D128682F
:108580006063206B401C20633DE0684600F078F992
:1085900018B1009808B9019828B1606B2968884221
:1085A00027D8081A27E0A0690021401CA0610128F3
:1085B00005D0E2692B689A4204D89A1A04E0286828
:1085C000E06112E0D2431A4441F288339A4202D960
:1085D000A1610AE017E0052807D3104AA161104BFA
:1085E000156B01201DB11163186021630BE010634E
:1085F000FAE7C0430844B0F5FA6F04D9002000F050
:108600004FF9FFF7E5FB07480078012801D1FFF794
:10861000DFFB7CBD642C0020102C0020807F00201C
:10862000802E0020D22B00207CB5FEF7DBFB3E49DC
:1086300009684FF461625143CA1701EB92518A12E3
:108640003A4909684FF461635943CB1701EB9351E1
:1086500089124FF47A754FF4C843AA4205D96429A8
:108660000CD3A94201D9324C09E0642A07D2A942AD
:1086700005D9142802D84FF4C80400E01C462D4D3B
:108680000021C1EBC102002005EB021303EB8002C5
:10869000401C946002F580521C28C2F80845F5DBA6
:1086A000491C3029EDDB244C244D206B40B10128BE
:1086B00026D1684600F0E4F8B8B1009898B114E00B
:1086C000684600F0DDF800281AD00098002817D17D
:1086D0000198012814D1002000F0C0FF28686063D1
:1086E000206B401C0BE0019828B1606B2968884220
:1086F00007D8081A07E0002000F080FF0020206360
:108700007CBDC0430844B0F5FA6FF9D9002000F0F1
:10871000C7F8002203211046FFF714FA002000F0EA
:108720006DFFFFF755FB7CBD842F0020882F0020B4
:108730000080FF000C390020642C0020102C002049
:10874000FEB5434C434D0226216B2868052948D2CB
:10875000DFE801F0030A173A53001D20FEF79EFEE2
:108760001D20FEF75DFF29E0616B814201D8411AAF
:1087700001E0C9430144B1F5FA7F32D9C4E90C6084
:108780002FE0FEF72FFB411C2BD03449324A51F821
:10879000013F93604968D16002F1080101230E7224
:1087A0004B722F4BDE6906EBC606334453F8056F58
:1087B000C2F812605B68C2F81630087428686063FB
:1087C000206B401C20630CE01120ADF80000254810
:1087D00021496A4603880831234803F007FD002831
:1087E000ECD0606860B101281AD101A800F048F807
:1087F0000026C0B10198A0B115E060630520E1E753
:1088000001A800F03DF800280AD00198002807D1FF
:108810000298012804D12868A0606068401C60604C
:10882000FEBD029828B1A0682968884203D8081ABA
:1088300003E06660FEBDC0430844B0F5FA6FF9D9A5
:10884000002000F02DF86660FFF7C2FAFEBD0000C0
:10885000642C0020102C00200C630020E038002045
:10886000807F0020D42B0020242C002002480349C4
:108870000068486270470000102C0020642C002023
:10888000064A11684B1C07D001604FF0FF311160A0
:10889000516841600120704700207047582E002029
:1088A000024A012142F8201070470000542E002097
:1088B00010B5084CD4E90101D4E90423FFF7F0F81E
:1088C0000548A4F1140100680860091DE06808600B
:1088D00010BD0000602E0020102C00200348002353
:1088E000026981684068FFF7DBB80000602E002055
:1088F0002DE9F0411C484FF000050168491C01605A
:1089000000D00560184C06681834D4E90101FFF75F
:10891000E9F8A4F11003154A1F68191F874203D113
:1089200010680860BDE8F0810F681268974201D8AE
:10893000D71B01E0FF431744D4F818C06745F1D3B3
:108940000A60094A18600C32E368111D834205D1A0
:1089500010680028E6D1C1E90065E3E70120156051
:10896000C1E90050DEE70000482E0020102C002056
:10897000034B00EB800203EB8202D16000F05CBD90
:10898000247D00202DE9F04782460F4608882249C1
:10899000224DB1FBF0F0DFF888900AEB8A064FF029
:1089A000050805EB8604884208D164210020FFF702
:1089B000DFFF40F6B83060601A4825E0A0F574315A
:1089C000903918D032210020FFF7D2FF002108464D
:1089D0003A18401C927806281144F9DB32204143B2
:1089E00014D0C4E9011700BF45F82680D9F800006B
:1089F0002061BDE8F08764210020FFF7B9FF4FF444
:108A00007A60606007480A30A060EDE75046BDE834
:108A1000F04700F009B8000040420F00247D00201C
:108A2000102C00209C2F002010B5044600F0E6FD1D
:108A3000034A04EB8401002042F8210010BD00002D
:108A4000247D002010B5044600F008FE034A04EB24
:108A50008401012042F8210010BD0000247D002087
:108A60002DE9F04F0C253024394EDFF8E880DFF88F
:108A7000E8B08E4600204FF0FF094FF4480A00BFCF
:108A800000FB05F1B1FBF4F2B4FBF5F1B0FBF1F33F
:108A9000520001FB130126FA02F212F0030252D037
:108AA000012A04D0022A02D0032A4CD100E059BB8B
:108AB00098F80010BEF1010F06D031B3002188F8FC
:108AC000001052464B4625E029B1002188F80010DD
:108AD0004A46534604E0012188F8001052464B46AE
:108AE000C0EBC00700210BEB071700BF07EB810CA1
:108AF000491CCCF808200E29F8D30E2107EB81027F
:108B0000491C93601C29F9D31DE0012188F800104D
:108B10004A465346C0EBC00C00210BEB0C1700BFBC
:108B200007EB810C0CF5805C491CCCF808250E295C
:108B3000F6D30E2107EB810202F58052491CC2F8E0
:108B400008351C29F6D3401CA04299D3BDE8F08F0C
:108B5000A00AAA00883000200C390020F0B50027B8
:108B60003B4B01293FD002293CD1002100224C1C63
:108B7000C1EBC105444303EB051500BF05EB8206BD
:108B800006F58056521CC6F808451C2AF6DB491C1F
:108B90001429EBDB14240021C4F12802C4EBC40522
:108BA000424303EB051500BF05EB810606F5805631
:108BB000491CC6F808251C29F6DB641C282CEADBB6
:108BC0002820C0EBC002002103EB021202EB81045B
:108BD00004F58054491CC4F808751C29F6DB401CB8
:108BE0003028EEDBF0BD002100224C1CC1EBC1059A
:108BF000444303EB051500BF05EB8206521CB4602D
:108C00001C2AF9DB491C1429EEDB14210022C1F1D6
:108C10002804C1EBC105444303EB051505EB8206AF
:108C2000521CB4601C2AF9DB491C2829EEDB2820E1
:108C3000C0EBC002002103EB021200BF02EB810473
:108C4000491CA7601C29F9DB401C3028F0DBF0BD73
:108C50000C39002070B52A4A01282CD0022829D1CD
:108C6000284C00214FF44803C1EBC105002002EB62
:108C70000515265C2EB105EB800606F58056C6F874
:108C80000835401C1C28F4DB491C1829ECDB182093
:108C9000C0EBC004002102EB041400BF04EB81050B
:108CA00005F58055491CC5F808351C29F6DB401C24
:108CB0003028EDDB70BD134C0021134B383CC1EB69
:108CC000C105002002EB0515265C16B105EB8006F8
:108CD000B360401C1C28F7DB491C1829EFDB182067
:108CE000C0EBC004002102EB041400BF04EB8105BB
:108CF000491CAB601C29F9DB401C3028F0DB70BD3F
:108D00000C390020EC6003006068CC002DE9F041D4
:108D1000FEF768F8C0B2502803D90E204FF47F4107
:108D200003E024493C2804D90B200022224D1C24B6
:108D30000BE0282801D90920F7E74FF4480114284F
:108D400001D90620F1E70320EFE7C2EBC2061B239F
:108D500005EB0617564204EB460606E007EB830CCC
:108D60000CF5805C5B1ECCF858169E4201DC002B93
:108D7000F4DA521C8242E8DB0023424204EB420454
:108D80001B221E18C6EBC60605EB061607E000BF41
:108D900006EB820707F58057521EC7F85816944213
:108DA00001DC002AF4DA5B1C0C2BE9DB0F30BDE898
:108DB000F0810000001564000C390020FFB5134A53
:108DC000134D6C460FCA8DE80F00002000EB4001E8
:108DD0008A00411C01EB410C11E0C2EBC20305EB20
:108DE000031754F82030002107EB8106491CB360BB
:108DF00006F580561C29C6F80835F5DB521CB2EB87
:108E00008C0FEADB401C0428E0DBFFBDF4680300A4
:108E10000C39002070B52E4B2E4A012831D0022883
:108E20002ED100214FF47F05C1EBC104002003EBDC
:108E3000041400BF04EB800606F58056401CC6F8FB
:108E400008550E28F6DB491C3029EDDB0021C1EB6B
:108E5000C1000E2403EB001505EB840606F58050D7
:108E600006F50056C0F80825C0F8482AC0F8882F33
:108E7000641CC6F8C8241C2CEEDB491C0629E6DB62
:108E800070BD154D0021C1EBC1040E2003EB04148D
:108E900004EB8006401CB5601C28F9DB491C302916
:108EA000F1DB0021C1EBC100002403EB001500BF82
:108EB00005EB8400641C8260C0F84825C0F8882A4D
:108EC000C0F8C82F0E2CF3DB491C0629EADB70BD65
:108ED0000C3900200037FF006480FF0070B52E4B76
:108EE0002E4A012831D002282ED100214FF47F05CF
:108EF000C1EBC1040E2003EB041400BF04EB800699
:108F000006F58056401CC6F808551C28F6DB491C9F
:108F10003029EDDB0021C1EBC100002403EB00157B
:108F200005EB840606F5805006F50056C0F80825C6
:108F3000C0F8482AC0F8882F641CC6F8C8240E2C34
:108F4000EEDB491C0629E6DB70BD154D0021C1EBA7
:108F5000C104002003EB041404EB8006401CB56040
:108F60000E28F9DB491C3029F1DB0021C1EBC100DF
:108F70000E2403EB001500BF05EB8400641C826027
:108F8000C0F84825C0F8882AC0F8C82F1C2CF3DB8D
:108F9000491C0629EADB70BD0C3900200037FF00B0
:108FA0006480FF0010B54FF4A85421460748FDF730
:108FB00050FA21460648FDF74CFA0024E0B2FFF7CC
:108FC00033FD641C032CF9DB10BD000014390020B4
:108FD000144E002010B5FFF7E5FF002400E024B98F
:108FE0003221204600F028FA01246421204600F0B6
:108FF00023FA641C032CF2DB10BD00002DE9F04FB6
:109000008FB0FEF76BF846094FF4FA609FED6B0ADC
:10901000B6FBF0F100FB116000EE900A684DDFF83E
:10902000A491F8EE600A80EE801AFCEEC10A10EE00
:10903000900A84B2287850B3302C00D32F24624891
:1090400001888C4214D04168711A00EE901AF8EE33
:10905000600AF4EEC00AF1EE10FA09DB0480466003
:109060002046FEF7AFF92046FEF7E6F9FEF796F93F
:10907000564D00240DF1200B04EB840155F821001E
:1090800002282ED005283BD0062839D08FE0504A40
:10909000D9F800001168814201D8411A01E0C943A2
:1090A00001443229E4D34B4C1060A088FEF78AF9C2
:1090B000A088FEF7C1F9FEF771F9A0882B2802D22B
:1090C000401CA080D4E70120287042484FF4A854E7
:1090D00021460830FDF7BDF921463F48FDF7B9F9B3
:1090E000C6E705EB8101D1E901010144B6FBF1F2CC
:1090F00001FB1261814253D8204600F0AFFA56E0DE
:1091000005EB81014FF0050AD1E9012700205B46FC
:1091100007EB000C9CF802C0BCF1000F11D04FF01F
:1091200032081CFB08FC43F820C0401C0628EFDB7B
:10913000D1F810C0D9F80000844505D8A0EB0C0088
:109140000CE0A0F1010AF3E76FEA0C0C604405E0C3
:10915000D1F810C0801A9444C1F810C09042F7D2E0
:109160000022114653F821C06244904201D204917A
:1091700002E0491C0629F5DB049800F001005FEAD3
:109180000008204602D000F039FA01E000F066FA4B
:1091900004998A450BD1B8F1000F08D0387A18B17C
:1091A000204600F02BFA02E0E0B2FFF73DFC641C21
:1091B000032CFFF661AF0FB0BDE8F08FABAA2642DB
:1091C000642C0020102C0020902F0020247D0020F3
:1091D000182C00200C390020144E00202DE9F041FD
:1091E0002D4E86B03069002852D0142802D00828AD
:1091F00046D04BE0142229496846FDF711F9019841
:10920000FDF780FFDDE90370254C8046012194F8CD
:109210002600009D00F0DAFA052D04D0062D07D0B7
:10922000072D22D010E094F826100122384620E0C5
:1092300094F826100122384600F0FCFA94F8261023
:109240000222384600F0F6FA154894F82610273026
:10925000085C02281AD8FEF721F9114894F8261064
:109260002A30085CFEF7DCF910E094F826100122A1
:10927000404600F0DFFA94F8261002224046E1E76B
:1092800006481A38D0F81E00FDF73CFF0020306178
:1092900006B0BDE8F0810000D42F0020A680002099
:1092A000807F002010B50C4620290AD8054909788E
:1092B000052906D0014622460348FDF7B1F80348C8
:1092C000046110BDA42C0020A6800020D42F002013
:1092D00000B5164885B0D0F8E100CDF8010014487B
:1092E00000788DF80000114890F830108DF80910C2
:1092F000818FADF80A10C18FADF80C10B0F8401096
:10930000ADF80E100B498A68012A0BD0B0F8420064
:10931000ADF8100000231A4612216846FEF7ECFA59
:1093200005B000BD888900EB0020F1E7807F0020B8
:109330008C800020D42F00202DE9F041394F0546C4
:10934000DFF8E480387801240026042834D005288A
:1093500065D198F81610C8F81C10404601EBC10101
:1093600001442A684A606A688A602A7A0A73A97A7C
:1093700098F81C20432998F8171004FA02F206D036
:109380009143C175AA7A2949432A02D00AE01143C0
:10939000F7E7274B244AD3F80130C2F8E13080F8D0
:1093A000E5600C60827D521CD2B28275022A00D325
:1093B00086750C60FEF7B0FD697A1E484C2907D00F
:1093C0004F2902D0522908D104E0BE70067004E093
:1093D000BC7001E00221B9700470A97A4B2906D053
:1093E0004E2902D043290ED006E0FE7004E0D8F8E2
:1093F0003010012900D1FC70E97AC0E90116BDE8FE
:10940000F041FEF767BC4FF0CC314160298BA1F5EC
:109410008072013A01D08660F1E78460EFE7BDE831
:10942000F0810000A42C0020807F0020802E0020EE
:10943000E0380020D42F00202DE9F0410F460646E9
:1094400004F0B8FA05461348C6EBC60100EB8104E8
:10945000606801280AD1304600F062F930B1AAB242
:10946000217A0D4801F0AEF91128F8D06068022881
:109470000AD1304600F054F930B1064A0020383A9B
:10948000A168526822F81100044840F82670BDE82F
:10949000F0810000EC2D002028380300F87C00202B
:1094A0002DE9F04F85B000244FF0FF31009101917C
:1094B000CDE90340DFF800812646274625460DF119
:1094C00008094FF0010AA8F10C0B00BFC5EBC5015C
:1094D00008EB8100416821B1012909D002291BD084
:1094E0002BE0D0E905320169C068FEF705FB21E0F9
:1094F000039A0169761C4DF82210406928B103993E
:1095000001F80940039820B114E0039A02F809A079
:10951000F8E7CDF80CA00DE0042F0BD28368017C96
:109520007F1C0BF803104069012803D141F0800033
:109530000BF80300214840F825406D1C032DC5DBC6
:109540001D4D383DAC60EC602C61F6B1012E02D0AF
:10955000022E08D019E000226946194801F06CFA81
:10956000002211460BE000226946154801F064FA1A
:1095700000221146124801F025F90022012110486D
:1095800001F020F90E4801F01BFA002F11D00A4912
:109590000C4A0C39A1F1180006F046FC18B10AA2D9
:1095A0009C21FCF737FE287840F00100287000F07D
:1095B0001DFA05B0BDE8F08FEC2D0020F87C0020EE
:1095C00028380300A91B03002E2E5C2E2E5C2E2EA5
:1095D0005C2E2E5C2E2E5C2E2E5C2E2E5C2E2E5C97
:1095E0004C4C5F48617264776172655C4C4C5F50B3
:1095F000574D5F6E524635312E63000070B50546FB
:1096000000F08EF8002815D01248C5EBC50100EB1C
:109610008104104E6068383E01280CD0022812D018
:109620000C3494E80700FEF78DFA0120B168A840D9
:109630008143B16070BD217A0022074801F0C2F871
:109640001128F8D0F1E7A1687268002022F8110013
:10965000EBE70000EC2D0020283803002DE9F04155
:1096600004461B4850F82410204604F0A3F907468E
:10967000204600F047F800281AD01648C4EBC40171
:1096800000EB8106134D0122383D706802FA04F4A4
:1096900001280FD0022815D070698243D6E9030152
:1096A000FEF750FAE868A043E860A8680443AC609D
:1096B000BDE8F081BAB2317A074801F083F8112889
:1096C000F8D0F2E7B1686A68002022F81100ECE7F0
:1096D000F87C0020EC2D00202838030010B5074846
:1096E00001F074FA064C2078C00703D004F114008E
:1096F00006F03EFC0020207010BD0000283803005A
:10970000B42D0020054A0121814092681140C140DA
:1097100001D000207047012070470000B42D0020C8
:10972000054A0121814092681140C140012901D0C0
:109730000020704701207047B42D00202DE9F04132
:10974000204D2869401C2861642802D3002028612C
:10975000E8601C4F0024383701262046FFF7E0FF61
:10976000F8B1C4EBC40007EB80035868C8B91648C9
:10977000296950F82400884206FA04F0E968804616
:1097800000EA010020FA04F00CD950B9586926EA21
:109790000002D3E90301FEF7D5F9E96848EA0100C0
:1097A000E8600AE0012808D10C3393E80700FEF7CF
:1097B000C9F9E96821EA0801E960641C032CCCDBE3
:1097C000BDE8F081B42D0020F87C0020094A00EBB0
:1097D000400012682AB1084A02EB800050F82100CC
:1097E0007047054AE83A02EB800000EB8100C06D4B
:1097F00070470000D02F002068800020074B01EB4D
:10980000410103EB810101EB8201C865044901209C
:10981000086004490020086070470000807F002035
:10982000802E0020D02F00200149002008607047C2
:10983000D02F0020054B01EB410103EB810141F8E2
:109840002200034901200860704700006880002062
:10985000D02F002070B51C480068012801D00228D4
:1098600004D103F019FF08B103F0C6FE00221B214A
:109870001046FEF767F9002205211046FEF762F94F
:1098800000231A4615211846FEF70AF900221E2168
:109890001046FEF757F9FFF785FB03F0FDFE68B9A8
:1098A000002440F6A42500BF03F0F6FE30B90120E5
:1098B00005F03EF9641CA4B2AC42F5D3FFF70EFFED
:1098C000BDE87040FEF7F4BF802E002033DF704704
:1098D0002DE9F843414C42480427217800780025BF
:1098E000404E4FF00508072946D2DFE801F0040F8B
:1098F000161F38476200052801D0012000E0002033
:1099000003F09EFABDE8F843FFF7E2BC012003F044
:10991000F5FAFF2009F00EFA05E0012003F0EEFA57
:10992000FF2009F0DBF9FDF7EDFA16E0012003F066
:10993000E5FA4FF00008FDF7CBFB00264FF4FA796B
:109940000095484606F096F80123424604216846F1
:10995000FDF7D2FF761C0F2EF3DB277027E0A068FF
:10996000401CA0606168491C6160032804D384F82E
:109970000080A5603068E060BDE8F883A168491CFC
:10998000A160052801D0012000E0002003F058FA72
:10999000FFF79EFCE0683168884201D8081A01E0B0
:1099A000C043084410498842E6D306202070A560D1
:1099B000E2E7A068401CA060012003F09FFAFF20AE
:1099C00009F08CF9FDF79EFAA0680028D4D084F83D
:1099D00000803068C4E90250CEE70000F42F002078
:1099E000A42C0020102C0020C0270900542101487D
:1099F000FCF72FBDA467002070B54FF48076304689
:109A000005F086F8114CB50560B1304605F087F8D1
:109A10000120C5F80803607920B901206071216830
:109A2000002088474FF48276304605F071F8002810
:109A30000AD0304605F073F80220C5F80803216803
:109A4000BDE870400120084770BD0000182D0020BF
:109A50000149024804F0D8B8E864002000C0014081
:109A60000149024804F0D0B8F06400200010024020
:109A70000149024804F0C8B8F86400200020024000
:109A800010B505F0DFF8024800210170416010BDFB
:109A90001830002070B5144CD4F80001002628B10D
:109AA000D4F80403C00701D0C4F80061D4F80C0155
:109AB0000E4D40B1D4F80403000704D5C4F80C617E
:109AC000286900B18047D4F8100100280BD0D4F8E1
:109AD0000403C00607D5C4F81061E868002802D066
:109AE000BDE87040004770BD0010004040300020CD
:109AF00002490248091F096800680847602D0020D4
:109B00002DE9FE434FF48278404605F079FD4C4F35
:109B100000254C4C012600B3404605F079FD94F831
:109B20002E0010B194F82F10D1B18DF8005061685B
:109B300001912189ADF80810E26832B1218B61836F
:109B400062602181E56010B102E0257400E03E60B2
:109B500021686846884784F82F5094F82E0060B337
:109B60004FF48077384605F04BFD30B3384605F0AA
:109B70004FFD628B94F82D108A420AD9A2EB0100A6
:109B800080B260832289A2EB0000626802EB400091
:109B900005E007D1E06828B184F82F60658305F0FF
:109BA0001DFD04E08A4202D184F82F60658340469F
:109BB00005F02EFD2248001D06604FF488773846D8
:109BC00005F01EFD48B1384605F022FD257402203F
:109BD0008DF800002168684688474FF48A77384638
:109BE00005F00EFD28B1384605F012FD2574BDE8DC
:109BF000FE834FF000484FF48C7967691DE000BF89
:109C0000B7FA87F028FA00F109EB80058F43284660
:109C100005F0F6FC88B1284605F0FAFCA5F58C7530
:109C2000E8088DF8040045F38000401C8DF80060C2
:109C30008DF80500216868468847002FE0D1D6E7F7
:109C400000700040B86400207CB5144C606A01903C
:109C50002078002821D0012000F0D3FA6568002682
:109C60006660012000F0DEFAE169002915D0E807FE
:109C700003D08DF8006068468847A80705D5012005
:109C80008DF80000E16968468847680705D502201D
:109C90008DF80000E169684688477CBD40300020AF
:109CA00005F0DCBDF0B5A149A1484FF080540B6828
:109CB000D4F830210078D4F83411551CC0F30310C7
:109CC00006D0944601270026BCF1060F03D00AE017
:109CD00003F0FF0CF6E7B4F82453DFF858C2C5F3DD
:109CE0000425CCF80050DDB2062D06D1032804D19E
:109CF000DFF848C2904DCCF87450551C04D09446FF
:109D0000BCF1060F03D00AE003F0FF0CF8E7D4F82B
:109D10004452DFF82CC2C5F34235CCF80050DDB216
:109D2000062D08D1032806D1864DD5F800C02CF0A9
:109D3000807CC5F800C0551C04D09446BCF1060FC9
:109D400003D00BE003F0FF0CF8E74FF08045C5F8B7
:109D50000C61C5F810617A4D2D1F2E60DDB2062D05
:109D600008D1032806D1DFF8D8C103250CF1640C13
:109D7000CCF80050DDB2062D10D103280ED1DFF84B
:109D8000C8C10525CCF800506F4D78352F606E4D59
:109D900008352E600CF104063F253560551C04D0B3
:109DA00016460D46062E03D05BE0DEB20546F9E707
:109DB000ED1E012D55D9654D2D68654E3560634DFD
:109DC0002D1D2D68361D3560604D08352D68361DFA
:109DD00035605E4D0C352D68361D35605B4D103598
:109DE0002D68361D3560594D14352D68361D35608A
:109DF000564D18352D68564E20363560534D1C355E
:109E00002D68361D3560514D20352D68361D356065
:109E10004E4D24352D68361D35604C4D28352D6846
:109E2000361D3560494D2C352D68361D3560474D42
:109E300030352D68464E40363560444D34352D68FA
:109E4000361D3560414D38352D68361D35603F4D26
:109E50003C352D68361D35603C4D40352D68361D2E
:109E60003560551C03D01646062E02D007E0DEB240
:109E7000FAE7D4F85852374E05F04F053560551CB7
:109E800003D01346062B02D008E0DBB2FAE73248D3
:109E90000368DB0702D06FF001030360062A07D1D5
:109EA000C91E022904D92D48016841F4806101606E
:109EB00024487438016841F470010160BFF34F8F8A
:109EC000BFF36F8FD4E94C104FF01022062907D151
:109ED000C01E032804D9D2F8080219491C310860B1
:109EE000D2F80C02C0071DD0012007F067F9D2F8A4
:109EF0000C0220F00100C2F80C0219480168002988
:109F0000FCD0002007F05AF9BFF34F8F0D48F0380E
:109F10000168144A01F4E06111430160BFF34F8FFF
:109F200000BFFDE7114910480860F0BDE00F00F0E8
:109F3000E80F00F0403501400DF0ADBA00C0074019
:109F40003C050040FCED00E0105600400404001009
:109F500020C50040E40E0040000400403C170040D3
:109F600000E401400400FA050090D0030C34002006
:109F70002DE9F047104E042700244FF4A0784FF449
:109F8000803900BF08EB840509FA04F0715961B10A
:109F9000D6F80413014208D02946304605F015FDD5
:109FA0000648D0E9002128469047641CE4B2BC4230
:109FB000E8D3BDE8F0870000009000400065002075
:109FC0000748D0F84011002909D00021C0F84011FD
:109FD00004484078032802D10349012008617047F2
:109FE00000A00140403000200010004000214A1E27
:109FF0000160C0E90112C160704700000EB5052084
:10A00000ADF808000B4966208DF8000091F8261085
:10A010008DF8040030318DF801108DF802008DF8B4
:10A020000300054802AA69468388543002F0DEF82E
:10A030000EBD0000807F0020D02B00202DE9F041D4
:10A04000544D88B0296A00297ED0286C814201D8FD
:10A05000411A01E0C9430144322975D3401E40F042
:10A060000100002328624C49ADF81C306E6A91F85B
:10A07000272091F8280091F829404FF006080D2E6E
:10A0800061D2DFE806F0070F18293238434547430D
:10A0900045475D0000261F27022A01D800240FE053
:10A0A000941E0DE0002691F82A003746022829D98F
:10A0B000941E022105E001261F270228EED9841EE6
:10A0C00001213046FFF782FB0090E3B23A46314669
:10A0D00001A807F03DFB4EE02F490126002791F82B
:10A0E0002B1002290ED9841EE3E702261F27022C1B
:10A0F000D4D9A41EE4E728480226002790F82C00B3
:10A10000022801D80024D4E7A41ED2E7002002E0F0
:10A11000012000E0022042228DF804204D228DF81B
:10A1200005208DF80600092E11D200EB40001F22F9
:10A1300001EB80008DF80720D0F884000FE003E0E9
:10A14000FFF75CFF19E02B6208B0BDE8F08100EB7F
:10A15000400001EB80008DF80730D0F8880005AA98
:10A1600006A9FDF769FC9DF818008DF808009DF818
:10A1700014008DF80900ADF81C800648AB8807AACA
:10A1800001A9543002F032F80028DDD1686A401C81
:10A190006862D9E7D02B0020807F00200448016C42
:10A1A000491E41F001010162002141627047000037
:10A1B000D02B00200148006800470000202D00201F
:10A1C0000FB4084B10B504A902AA039800F07AF85E
:10A1D000044602A9002000F016FA204610BC5DF8E3
:10A1E00014FB000007A60200002809DB00F01F0294
:10A1F000012191404009800000F1E020C0F8801268
:10A20000704700280DDB00F01F020121914040093A
:10A21000800000F1E020C0F88011BFF34F8FBFF342
:10A220006F8F7047002809DB00F01F020121914069
:10A230004009800000F1E020C0F8001170470028BC
:10A2400009DB00F01F02012191404009800000F16C
:10A25000E020C0F8001270474907090E002804DB0F
:10A2600000F1E02080F80014704700F00F0000F1CA
:10A27000E02080F8141D704700487047103400201B
:10A2800002E008C8121F08C1002AFAD170477047BF
:10A29000002001E001C1121F002AFBD1704700001D
:10A2A0000121202803DA81400548014003E04028CD
:10A2B00002DA2038814009B1012070470020704740
:10A2C000FC06FFBD2DE9FF4F8BB0884605460026F2
:10A2D00006E025280BD0DDE90D1290476D1C761C99
:10A2E00028780028F5D10FB03046BDE8F08F002463
:10A2F000A146A2460122AE4900E0044315F8013F01
:10A30000203B02FA03F00842F7D128782A2810D01F
:10A310006FF02F022878A0F13001092915D809EB38
:10A32000890102EB410144F0020400EB01096D1CBC
:10A33000F0E758F8041B5FEA010903D544F4005420
:10A34000C9F1000944F002046D1C28782E2817D1A9
:10A3500015F8010F44F004042A280ED06FF02F02E4
:10A360002878A0F1300109290AD80AEB8A0102EB0A
:10A37000410100EB010A6D1CF2E758F804AB6D1CBB
:10A3800028786C280FD006DC4C2817D068280DD010
:10A390006A2814D104E0742810D07A280FD10DE077
:10A3A00044F400140AE044F4801401E044F440143E
:10A3B0006978814202D104F580146D1C6D1C2878E7
:10A3C000692865D006DC00288DD0632827D0642852
:10A3D00006D15DE06E2808D073282AD0752877D082
:10A3E000DDE90D129047761CE0E0C4F3025002282C
:10A3F00009D003280DD0D8F8001004280DD00E6025
:10A4000008F10408D2E0D8F80010F217C1E90062A0
:10A41000F6E7D8F800100E80F2E70E70F0E718F8B3
:10A42000041B8DF8001000208DF80100EB46012080
:10A4300003E058F804BB4FF0FF3061074FF000070E
:10A4400001D40AE07F1C57450DDA8742FADB1BF87E
:10A4500007100029F6D106E07F1C8742FCDB1BF8C1
:10A4600007100029F8D1DDE90D23A9EB070081468B
:10A47000214600F0B1F83044C61904E0DDE90D12C0
:10A480001BF8010B90477F1EF8D22146484688E012
:10A4900058F8040BC4F302514FF00A0B032900D102
:10A4A00000B2042900D140B2002802DA40422D2136
:10A4B00002E0210505D52B218DF82410012104E0AF
:10A4C00006E0E10710D02021F6E708AF089113E07D
:10A4D00058F8040BC4F302514FF00A0B032900D1C2
:10A4E00080B2042900D1C0B20021EEE75946FBF743
:10A4F000F9FF303107F8011D0028F7D1ADEB070057
:10A5000000F1200B600702D524F4803401E04FF005
:10A51000010ADA4502DDAAEB0B0000E000208246CA
:10A5200000EB0B0108980144A9EB01000A90E0033D
:10A5300006D4DDE90D2321460A9800F04DF80644C3
:10A540004FF0000908E009A911F80900DDE90D1232
:10A55000904709F10109761C08998945F3DBE0036E
:10A560000CD5DDE90D2321460A9800F035F80644A4
:10A5700004E0DDE90D1230209047761CBAF10001AD
:10A58000AAF1010AF5DC05E0DDE90D1217F8010B6F
:10A590009047761CBBF10001ABF1010BF4DC0A988B
:10A5A0002146DDE90D2300F005F806446D1C97E611
:10A5B000092801002DE9F041044600251E461746F2
:10A5C000880404D405E039462020B0476D1C641E81
:10A5D000F9D52846BDE8F0812DE9F0410446002573
:10A5E0001E469046C80301D5302700E02027880486
:10A5F00004D505E041463846B0476D1C641EF9D5C8
:10A600002846BDE8F0810A68531C0B601070704743
:10A61000006890FAA0F000BA00BA7047800701D035
:10A620000020704701207047C3688B4206D8114450
:10A630000069491E814201D80120704700207047FF
:10A64000044906220A700872B42264210B2002F029
:10A65000C5B80000187E002090F82400012801D021
:10A660001F207047EE20704710B501220221002004
:10A6700001F0CEFE08B1072810D1072202210120E7
:10A6800001F0C6FE08B1072808D100210A220846B9
:10A6900001F0BEFE08B1072800D1002010BD000067
:10A6A00000B5ABB0AC216846FBF7D3FE02208DF8B5
:10A6B000000000218DF8021006218DF80310ADF87E
:10A6C0004C000E48149001208DF87C004FF4487027
:10A6D0002290B42023900A4829906946094800F046
:10A6E0003EFE20B1084A40F2BA51FBF793FD01212A
:10A6F000044800F031FE2BB000BD00001C2C0020EF
:10A70000D5110300703400207CE1020030B472B631
:10A71000034B1B68DB0700D000BE30BC00F002B862
:10A72000F0ED00E008B501238DF800309DF8003011
:10A73000144B186059609A606FF48041401807D03C
:10A7400001280FD1DA60D86800689861D86807E0FE
:10A750001A611869806858611869006898611869F9
:10A760004068D861186858689868D8681869586946
:10A770009869D86972B600BF9DF800000028FBD127
:10A7800062B608BD0C65002030B542680B4C1379E9
:10A79000E15C0120FF290ED0FE290DD012684FF494
:10A7A000A86505EB81015158054A52F823209142D2
:10A7B00002D1FF20E054002030BD0000712D0020A8
:10A7C000AC65002003681B8B9BB253436422B3FB30
:10A7D000F2F292B2AFF3008070B5044600681646FC
:10A7E0000D4690F8212001EB450100EB8101022A82
:10A7F00001D0082070BD4968B14205D1C16909B3D3
:10A800006068007988471DE02046FFF7BDFF08B16A
:10A81000112070BD61680C4AFE20097950543246FF
:10A820002946204607F0F4F92068C06950B16168F4
:10A83000064A0220097902EB41014855022160686D
:10A8400005F0EEFC002070BD712D0020C0650020D9
:10A850002DE9F84F07688946054601EB490897F846
:10A8600021001E46924607EB880410B10820BDE87F
:10A87000F88F4FF0000B3248C4F804B0A67200689D
:10A8800000900A22296802EB8800085C40B1002091
:10A890008DF801006946504605F048F9B0B901E06D
:10A8A0000120F5E747F828A04FF001084FF0A0413C
:10A8B00008FA0AF016B1C1F80C0501E0C1F8080564
:10A8C0000027E019083005F003FA08B10420CEE7AC
:10A8D0007F1CFFB2022FF4D3207A05F051FA607A80
:10A8E00005F04EFA206836B105F0CCF8064620682F
:10A8F00005F0DEF905E005F0DBF90646206805F015
:10A90000C1F807464946686805F07BFC0146207A95
:10A91000324605F013FA0221686805F072FC014620
:10A92000607A3A4605F00AFA84F80B806968054AAD
:10A93000097902EB410202F809B0002097E7000014
:10A9400028370300C06500202DE9F0470646D6E908
:10A95000007005F077FC0221706805F05AFC97F84A
:10A96000200005F00DFA00254FF001084FF0A04936
:10A9700005EB450007EB8004E17A99B10A223168C2
:10A9800002EB8000085CA8B1207808FA00F2C9F850
:10A990000C25206805F028F9207A05F0F1F9607A95
:10A9A00005F0EEF96D1CEDB2022DE1D387F82180A0
:10A9B000BDE8F087217808FA01F0C9F80805E8E752
:10A9C0002DE9F0470025DFF8689007680446A8469F
:10A9D000626805EB450007EB8006137909EB43023B
:10A9E00002F80580F17A71B10A22216802EB800039
:10A9F000085CD8B10021306805F01AF9306805F01C
:10AA000005F9C6F804806D1C022DE1D36168094A7E
:10AA1000FF2009795054606805F0D2FB606805F0AA
:10AA20001FFC022087F82100BDE8F0870121E2E742
:10AA3000C0650020712D00202DE9F74F84B00E0075
:10AA4000044607D0256895F8210028B1082007B0F2
:10AA5000BDE8F08F0B20FAE704F0E8F818B185287C
:10AA600001D00420F3E705F057F820B905F01AF8F3
:10AA700008B10320EBE75048DFF840A1002100783F
:10AA80004FF0010BC0F30310032821D08AF800B067
:10AA9000FF2285F82020002091464FF0FF3C00BFA8
:10AAA00000EB400705EB8703401CD97283F8089040
:10AAB00083F80990C0B245F827C00228F0D305F109
:10AAC000200005F005F930B1204607F039F8C8E755
:10AAD0008AF80010DCE7002756F82720501C12D017
:10AAE000F0193946037A2046FFF7B2FE5FEA000804
:10AAF00004D0204607F024F84046A8E70022394653
:10AB00002046FFF769FE7F1CFFB2022FE4D300202E
:10AB100009224FF48053316901E04908401C9942F1
:10AB200001D39042F9D39AF8001009B100B901207D
:10AB3000234AD2E90112CDE901128DF804006068C0
:10AB4000204A01A900790290606805F0ADFB07007A
:10AB500004D0204606F0F4FF384678E76168306993
:10AB60000968D1F81015CAB2010F0001FBF748FCC3
:10AB70000646A861606805F023FBCDF800B05F468B
:10AB8000042332460221606805F078FB02216068E8
:10AB900005F03FFB0698E86160680B49074A0079B9
:10ABA000521C41F820406168097902F8019085F84B
:10ABB000217000204BE70000E80F00F0702D00200E
:10ABC00028370300B91B0300CC65002070B504686A
:10ABD000054694F82100022801D050B102E0284631
:10ABE000FFF7B2FE284606F0ABFF002084F82100F4
:10ABF00070BD082070BD012070470000014802F0C0
:10AC000026B80000402D002010B55AB100684FF062
:10AC1000FF3401294261C0E9024400D000210161F2
:10AC2000002010BD072010BD38B511480823582258
:10AC3000416800910F49006803F07FFB002815D19F
:10AC40000D4A69460D4802F007F804000ED10121B3
:10AC50000A4802F04EF80123094A1946074801F054
:10AC6000CEFF0649012008390870204638BD000093
:10AC7000043703003C65002051210300402D0020D3
:10AC8000FFFF7F00F8B50446002617460D468DF8F5
:10AC90000060684600F042F8D4E90201C04370EA5F
:10ACA000010005D09DF8000000F05CF80020F8BD20
:10ACB00002F0A6FE40197141C4E902019DF80000AE
:10ACC00000F050F8A761206900B125612146BDE878
:10ACD000F840002008F03CB938B5044600208DF853
:10ACE0000000684600F01AF8D4E90201C04370EA97
:10ACF00001000DD04FF0FF30C4E902009DF80000C4
:10AD000000F030F82146BDE83840012008F020B9B5
:10AD10009DF8000000F026F8002038BD30B5EFF3B4
:10AD2000108172B60D4A9468012324B10370002982
:10AD300000D162B630BD93604FF0E023D3F880516C
:10AD4000074C25401560C3F88041D3F88441546016
:10AD50005A17C3F8842100220270E8E794650020A6
:10AD6000FC06FFBD0B498A68002A11D000280FD1CC
:10AD7000EFF3108072B60B684FF0E022C2F800319A
:10AD80004B68C2F8043100228A60002800D162B604
:10AD90007047000094650020F0B54FF08050D0F867
:10ADA0000411C1F307222949422A0AD1284A13680B
:10ADB00023F0010313600A6822F0010242F080725E
:10ADC0000A60D0F80401C0F3072045283AD1214891
:10ADD000407C052838D04FF07F431F4800681E4A4A
:10ADE0001840121D12681A4090422BD11A4A08329C
:10ADF00010681368C0B2C3F3072C13681268C3F35A
:10AE00000747160E144A0C321368DDB21368C3F3F9
:10AE1000072413681268C3F30743120E60450BD072
:10AE2000B84209D0B04207D0A84205D0A04203D012
:10AE3000984201D0904205D1086820F0010040F00E
:10AE4000807008600020F0BD044BC6E77417004016
:10AE500050160040743000201C1500400000FFFF19
:10AE6000400C01D0002070470120704770B50446A7
:10AE700090B0087B0D468DF83800202105A8FBF71F
:10AE8000E8FA42F61920ADF814000120ADF81800D8
:10AE9000ADF81A000EA80790617C9DF82100A21D54
:10AEA00061F3041040F002008DF82100A87B8DF8BA
:10AEB0002700687B8DF82500A08805A901F06AFBB2
:10AEC00000281CD1A968E1B10FA801F079FA064663
:10AED00014216846FBF7BDFA42F60810ADF80000F1
:10AEE000E87B8DF806000FA8ADF80A60ADF80E609B
:10AEF0000490E08804F10E02694601F017FE10B0DC
:10AF000070BD0020E081FAE770B5FBF76BFF174CCE
:10AF1000C5B26069411961612078401CC0B22070DF
:10AF20000F2808D1B1FBF0F0032801D8FBF736FF5A
:10AF30000020606120704FF6FE7229460C4800F038
:10AF4000E1FB002810D008280ED013280CD01128BF
:10AF50000AD043F20141884206D0BDE8704005A204
:10AF60004FF48971FBF756B970BD0000D02B00205B
:10AF70003C3400202E2E5C2E2E5C2E2E5C6D6169E2
:10AF80006E2E63000A4601461046AEDF704770B56C
:10AF90001500044609D00020286034B1206820B193
:10AFA000A079800703D0072070BD0E2070BD084631
:10AFB00000F08AFCC0B2142804D02179814203D861
:10AFC000042070BD052070BDE288216800FB0210DE
:10AFD0002860002070BD2DE9FC4700251788064633
:10AFE000158090F82D001446894630B13A46214626
:10AFF000484600F099FC051E09D1B0784FF00C0AC4
:10B0000018B32088C846001DB84202D95046BDE892
:10B01000FC87684679DF0028F9D12088032108F8E9
:10B02000001020881921401C80B2208008F80010F0
:10B030002088401C80B2208000EB0801BDF8000091
:10B0400007F0A2FF218808442080F0780222C8B1CE
:10B05000218896F9033001F1030C4846BC45D5D848
:10B06000425421884FF0010C491C89B2218000F81C
:10B0700001C02188491C89B2218009F8013020884B
:10B08000401C20807068B8B1218890F9003001F12F
:10B09000030C4846BC45B9D8425421880A22491CB1
:10B0A00089B2218042542188491C89B2218009F843
:10B0B00001302088401C2080308950B1CDE9004704
:10B0C0004B460622022106F1080008F0C1F8051ED1
:10B0D0009DD1308A50B1CDE900474B46072203216C
:10B0E00006F1100008F0B4F8051E90D1308B50B175
:10B0F000CDE900474B461522142106F1180008F04F
:10B10000A7F8051E83D1306A30B13B462246494636
:10B1100001F026FC051EDBD1706A30B13B462246A9
:10B12000494603F07DF8051ED2D196F82C0038B1BF
:10B130003B4622464946304607F0BAFA051EC7D1BB
:10B14000307838B13B4622464946304603F09AF8FB
:10B15000051EBDD128465AE7F8B506464FF0000057
:10B160001500ADF8000015D009236A46304600F0FE
:10B1700025F80446BDF80000064458B154B12846ED
:10B18000FBF772F9A04205D1224631462846FBF76B
:10B1900080F908B10020F8BD0120F8BD18B50446BB
:10B1A0000020ADF8000013466A46204600F006F87D
:10B1B000002802D0BDF80000204418BD70B5E0B1F1
:10B1C000DAB1002402E0045D2C44A4B2651C8D4277
:10B1D00006D21688A642F6D8061976789E42F2D193
:10B1E0008C420AD2A31C005D9BB200B1401E000439
:10B1F000000C02D01C188C4201D9002070BD1380B5
:10B2000070BD2DE9F0418AB006460020ADF814006B
:10B210001346102088468DF804000D4606AA01A9A1
:10B22000184664DFA6B398BB9DF80400022804D03A
:10B23000042807D0102839D10DE003208DF8100024
:10B24000022003E005208DF8100004208DF8110085
:10B25000002404AF0FE007208DF810000620F5E76A
:10B260003B5D05AA41463046FFF7A8FF641CE4B2E7
:10B270000546022C04D2BDF814000028F0D003E0EB
:10B28000BDF81400002812D080B2064400240BE060
:10B290000CE030199DF8042006A9FBF7FAF848B134
:10B2A0009DF80400204484B2AC42F2D300200AB0DE
:10B2B000BDE8F0810120FAE77FB516460D4604008F
:10B2C00048D02078F0B355EA060043D00020009023
:10B2D000019002900390A5B1D4F82004016804F114
:10B2E0005500814200D1EE3000902046FFF7B4F9BE
:10B2F000ADF80400284601AA0099FFF76CFE00286B
:10B3000024D1A6B1D4F82004816804F2312081420E
:10B3100000D1EE3002902046FFF79EF9ADF80C0008
:10B32000304603AA0299FFF756FE00280ED19DE889
:10B330000F0004F5826585E80F002946002204F11C
:10B34000540000E004E0C4F8201472DF04B070BDC3
:10B350000820FBE70E20F9E780F8301070472DE950
:10B36000F0410D00044606D02CB195F87A00002675
:10B37000012803D006E00E20BDE8F08195F8980082
:10B38000012829D0D5F8A000042825D0D5F89C00A4
:10B39000042821D04FF00108A6702C2205F1780175
:10B3A000201DFBF73DF884F83060D5F8A4006063F9
:10B3B000D5F8A800A0634FF6FF70A4F8240404F5A4
:10B3C0008260C4F82004C4F82664A4F82A6484F8CF
:10B3D0002C64207810B104E00720CDE7FF2084F82A
:10B3E000540004F155072046C4F81074FFF734F9EF
:10B3F000A4F8140404F2144239462846FFF7EBFD82
:10B400000028B9D104F23120C4F818042046FFF70F
:10B4100023F9A4F81C0404F21C4205F13C00D4F802
:10B420001814FFF7D8FD0028A6D184F85180208B8E
:10B43000A4F8480084F83C80266484F85060606971
:10B4400000216064454604F13C02781E72DF00284A
:10B4500092D1257090E72C22001DFAF7E1BF10B5BC
:10B460000288102A1BD0112A20D0262A1DD1007A4A
:10B470000C46012801D0022817D1A0780521401CD4
:10B48000B0FBF1F201FB1201204600F01DF800288C
:10B490000BD0A16B002908D0BDE810400847C27B43
:10B4A000012A02D18088A1F8240410BD0C46002195
:10B4B00084F82E148088B4F824148842F5D12079B9
:10B4C0000028F2D10121DFE72DE9F05F0446007882
:10B4D0000F4698B1A7700025C4F82654A4F82A5442
:10B4E00084F82C54A079012608B1012F09D0E07905
:10B4F00080B1012F05D0022F03D00BE00820BDE85A
:10B50000F09F616B21B184F82D640820884701E029
:10B5100084F82D5404F2274100200A5C0AB1304619
:10B5200003E0401C0628F8D300204FF002084FF03B
:10B53000030B012F06D0022F0CD0032F0FD0042FA6
:10B5400015D110E0A17929B194F8241011B908B1EE
:10B5500030460DE0E17911B108B1404608E0207AAB
:10B5600008B1584604E0607A08B1042000E028469B
:10B57000A070616B41B1032801D0042804D1607927
:10B5800010B194F82E0498B184F82F5404F13C00C3
:10B5900018210746FAF75DFF84F83C6004F12C009F
:10B5A00006F0F2F958B194F82C0084F8510008E044
:10B5B00084F8305484F82F6407208847E6E784F83D
:10B5C000516094F8240058B104F1280006F0DCF929
:10B5D00020B194F8280084F8520001E084F8526009
:10B5E00084F85050A27804F2264104F582694FF0A5
:10B5F000060A052A68D2DFE802F080030F2247001E
:10B6000084F83160C4F82054C4E9101584F83C80F3
:10B610008020A4F8480059E084F8318094F8242070
:10B62000384612B10722027001E080F800B0228A89
:10B630008281C4F820544160E168B96046E06069E5
:10B64000B860208BB88194F824003D4610B184F88E
:10B650003CA007E02A4884F83C60007810B9042038
:10B6600084F83C00204607F0D5FD50B185F81480E1
:10B670000421204601F0DDFE30BB052184F83110A5
:10B6800020E084F831B01DE0E069B860208CB8811A
:10B6900094F824003D4610B184F83CA001E084F801
:10B6A0003C60204607F0B6FD48B185F814800421BF
:10B6B000204601F0BEFE38B984F831A002E0042033
:10B6C00084F83100C4F82094A07878B13A4604F1A7
:10B6D0005400D4F8201472DF00287FF410AF94F8DF
:10B6E000301094F8540073DF0028F6D1616B11B16B
:10B6F00094F831008847002001E784F83150F5E7DD
:10B70000BC2C0020F7B594B0174605003CD0287C2F
:10B710009DF854100024884252D000264FF0010EAC
:10B720000D9615A8ADF834E00E90ADF83660E988B6
:10B730000DAA4FF6FF70ACDF040026D19DF854002F
:10B740002874687CA0B30F96109611961296E8881C
:10B75000ADF83C00BDF83600ADF840000DA81190E2
:10B760000E981290A7F57F408DF83EE0FE3805D088
:10B7700039460FA8FFF706FC044621E0684600F0B2
:10B780009DF800256F460FE00E2017B0F0BD00BFFA
:10B7900007EB4506B08800F0ABF8022803D144B1AE
:10B7A0000FA9B088AEDF6D1C0098A842F0D807E062
:10B7B00005E0B1880FA8FFF7E5FB0446F3E708248E
:10B7C0002046E2E738B50D46040018D0BDB1286820
:10B7D000206028796074FF20207401208DF8020019
:10B7E00041F60F00ADF80000221D69460120A8DFD8
:10B7F000002803D129462046FFF738FB38BD0E202C
:10B8000038BD38B5002924D0002822D00288502A1B
:10B810001FD10546487C0C4600281AD0E988628969
:10B82000A81D914215D14189022912D12168002910
:10B830000FD00C3000F0C0FD08B1002000E0012066
:10B840008DF80000A888ADF80200226869462046FD
:10B85000904738BD70B5040012D001461C22144830
:10B86000FAF7DEFD1248134D0560206850B17ADF0B
:10B87000002806D12068016829604068686005E0FA
:10B880000E2070BD0B487BDF0028FAD108484FF628
:10B89000FF711438084A20F8041B05493439016047
:10B8A0000021FFF7B1F90028EBD0032070BD0000A4
:10B8B0006C630020BE2C0020AD31030001494968B3
:10B8C00001F02FB88863002010B5044600F022F87C
:10B8D00008B1204610BD142010BD000003460348E7
:10B8E00080680A46194601F0DDBE0000886300202A
:10B8F00070B50546002400F00DF838B1294604481B
:10B9000002F065FD08B1022400E00124204670BD6C
:10B9100090630020142801D300207047014601489D
:10B9200002F055BD8C6300207CB5054608880C46A6
:10B930000930904201D90C207CBD68466DDF00289B
:10B94000FAD121880820685420881B21401C80B22D
:10B95000208029542088401C80B220802844DDF8B3
:10B9600001100160BDF8051081802088801D80B223
:10B9700020809DF80010490800D00121295420881A
:10B98000401C208000207CBD10B503F001F9002888
:10B9900009D105484FF0030C00DF002803D1BDE8B2
:10B9A000104003F003B910BD2064002018B1034912
:10B9B0000860002070470E2070470000C82C00204F
:10B9C00010B54FF0FF3100203DDF00280BD1B12131
:10B9D0003CDF002807D10448416901208847022044
:10B9E00003F0CAFD002010BD04640020044810B517
:10B9F0000068416900208847BDE81040FFF7E0BFBC
:10BA0000C82C002010B588B0044620216846FAF7FB
:10BA100020FD0320ADF8000020788DF802009DF88D
:10BA20000D00172140F028008DF80D0001208DF841
:10BA300010008DF81300ADF804108DF812008DF889
:10BA40000C008DF811006088A21D694600F0A2FD6F
:10BA500008B010BD10B5184C86B01ECC8DE81E0085
:10BA600048B1164C4FF6FF71A1800068002160615B
:10BA7000217618B104E00E2006B010BD10486061B8
:10BA80000E48FFF793FF0028F6D101208DF8120031
:10BA90004FF65960ADF81000A21C04A90120A8DFE0
:10BAA0000028E9D10549684662DF0028E4D103484F
:10BAB000FFF7A8FFE0E70000F03603000464002071
:10BAC000F1CD020010B5002827D003881E4C102BA2
:10BAD0001BD02146112B8A8819D0C988512B1DD023
