:020000040007F3
:10800000888F0020D5830700DD830700DF8307000A
:10801000E1830700E3830700E58307000000000019
:10802000000000000000000000000000C183070005
:10803000E983070000000000EB830700ED830700E1
:10804000EF830700EF830700EF830700EF8307004C
:10805000EF830700EF830700EF830700EF8307003C
:10806000EF830700EF830700EF830700EF8307002C
:10807000EF830700EF830700EF830700EF8307001C
:1080800075970700EF830700EF830700EF83070072
:10809000EF830700EF830700A5940700EF83070035
:1080A000EF830700EF830700EF830700EF830700EC
:1080B000EF830700EF8307000000000000000000CE
:1080C000EF830700EF830700EF830700EF830700CC
:1080D00031940700EF830700EF83070000000000E2
:1080E0000000000000000000000000000000000090
:1080F0000000000000000000000000000000000080
:10810000000000000000000000000000000000006F
:10811000000000000000000000000000000000005F
:10812000000000000000000000000000000000004F
:10813000000000000000000000000000000000003F
:10814000000000000000000000000000000000002F
:10815000000000000000000000000000000000001F
:10816000000000000000000000000000000000000F
:1081700000000000000000000000000000000000FF
:1081800000000000000000000000000000000000EF
:1081900000000000000000000000000000000000DF
:1081A00000000000000000000000000000000000CF
:1081B00000000000000000000000000000000000BF
:1081C00000000000000000000000000000000000AF
:1081D000000000000000000000000000000000009F
:1081E000000000000000000000000000000000008F
:1081F000000000000000000000000000000000007F
:10820000DFF80CD000F038F9004800476DA70700F0
:10821000888F002030B450E8012F93B2C4892344E2
:108220008489A34228BF1B1B0489A34202BFBFF35A
:108230002F8F002007E0C3EA020340E80134002C3E
:10824000E9D14FF001000A6030BC704750E8012FBF
:10825000C2EA024240E801210029F7D1704730B458
:1082600050E8022F1FFAA2F3C488A34202BFBFF353
:108270002F8F00200DE0C48923448489A34228BFA6
:108280001B1BC2EA034340E80234002CE8D14FF044
:1082900001000A6030BC704750E8022FC2EA224257
:1082A00040E802210029F7D17047034653E8022F26
:1082B000D988B2EB324F4FF0000017BF92B241EABB
:1082C000014142EA014104E05A68B2EB324F08BF73
:1082D000012043E80212002AE8D1704730B4044676
:1082E00054E8000F0D4644E80053002BF8D1156008
:1082F00030BC704730B4044654E8000F40EA010532
:1083000044E80053002BF7D1156030BC704730B4FF
:10831000044654E8000F00EA010544E80053002B2E
:10832000F7D1156030BC704730B4044654E8000FF4
:1083300080EA010544E80053002BF7D1156030BCFA
:10834000704730B4044654E8000F00EB010544E8E0
:108350000053002BF7D1156030BC704730B4044691
:1083600054E8000FA0EB010544E80053002BF7D1BF
:10837000156030BC704770B404464FF0000054E8FC
:10838000006F0D68AE4207BF44E80023012044E8B7
:1083900000630E60002B1CBF0020F0E770BC70472C
:1083A00030B4044654E8000F88422CBF451A0546F5
:1083B00044E80053002BF5D1156030BC7047000035
:1083C0001EF0040F0CBFEFF30880EFF3098003F0F9
:1083D00003BD00000648804706480047FEE7FEE769
:1083E000FEE7FEE7FEE7FEE7FEE7FEE7FEE7FEE765
:1083F000A994070001820700202A04DB203A00FA32
:1084000002F1002070479140C2F1200320FA03F3EB
:1084100019439040704740EA01039B0703D009E0ED
:1084200008C9121F08C0042AFAD203E011F8013B60
:1084300000F8013B521EF9D27047D2B201E000F8B9
:10844000012B491EFBD270470022F6E710B51346F8
:108450000A4604461946FFF7F0FF204610BD30B526
:1084600004460020034600E05B1C934203D2E05C1C
:10847000CD5C401BF8D030BD064C074D06E0E068EF
:1084800040F0010394E8070098471034AC42F6D35B
:10849000FFF7BAFE0CDC07002CDC07002DE9F047E3
:1084A0008AB01446DDF848A055461F4615F9046BFE
:1084B0000096804689462B460246214602A800F0D7
:1084C0007CFC02A95246084600F073FC534602AAFF
:1084D0004146404600F05DFC534602AA2146204634
:1084E00000F057FC2B464A4639463846009600F0C5
:1084F00064FC5246394602A800F05BFC02A92B46F8
:1085000042460846009600F058FC02A92B46224637
:108510000846009600F051FC2B4642462146204674
:10852000009600F04AFC534622464946484600F071
:1085300030FC2B4602AA41462046009600F03DFC46
:10854000534622463946384600F023FC2B464A461D
:1085500039463846009600F030FC324602A92046E3
:1085600000F0F3FD0AB0BDE8F087F0B5154689B01C
:108570001C4607460E461A462946684600F019FC76
:1085800023466A463946384600F003FC23462A460D
:108590006946684600F0FDFB23466A463146304690
:1085A00000F0F7FB09B0F0BD8B1802448B4200D1FC
:1085B000704713F8010D02F8010DF7E72DE9F047B8
:1085C0001E46B3F9023013F11F0448BF03F13E0405
:1085D0006511DC1D48BF03F10E04E41094424FFA0C
:1085E00085F928BF14468846494600F065FA2246B8
:1085F00041460746FFF7D8FFB6F90220B2EBC40F99
:108600004FEAC4031FD29B1A07EB85040021C3F174
:108610002005A7420ED324364A463946304600F09C
:1086200056FA01280FD04B4632463846BDE8F0478F
:1086300000F09EBD54F8040D20FA03F20A432260B4
:1086400000FA05F1E5E7BDE8F0872DE9F04793F979
:10865000006092B0044689461046314615461F46D2
:1086600000F04AFA002840F091803A46494602A8B4
:1086700000F09FFB3B4602AA21460AA800F089FBB6
:1086800002A908463A4600F094FB3B462A46494672
:10869000484600F07EFB07F104083A462946284682
:1086A00000F087FB43462A4621462046009600F00C
:1086B00032FA43462A4629462846009600F02BFA0D
:1086C00043462A4621462846009600F076FB3B4664
:1086D0002A462146204600F05CFB434622462146BE
:1086E0002846009600F017FA434600962A4621468F
:1086F000204600F010FA2368DB074AD5334642468D
:108700002146204600F0ACF931468246204600F072
:108710000FFD06F18043013B54F8232042EACA7260
:1087200044F823203A462146284600F042FB4346BF
:108730000AAA29462846009600F03FFB43460AAAAB
:1087400029462846009600F038FB0AA90846434609
:108750002A46009600F031FB3B460AAA21462046F5
:1087600000F017FB02AA434610462146009600F08F
:1087700024FB32462946204600F0E7FC49462846BD
:1087800000F0E3FC02A9484600F0DFFC12B0BDE8AF
:10879000F0873146204600F0CBFCC3E70048704725
:1087A0005CDB07002DE9F04FEDB0CDE90310769EBC
:1087B0001946B6F9023096F9017096F9005013F196
:1087C0001F0848BF03F13E0848F3471808F1FF3B74
:1087D00024AB002443F82B406CAB03EB8B034CA879
:1087E00092463A4643F8804C43F8604CFFF7DCFE73
:1087F0003A46394454A8FFF7D7FE29464CA800F062
:108800007BF90746002840F0D38054A800F074F9A3
:108810000446002840F01B8106F1240942464CA979
:10882000484600F054F9012840F0C280424654A95D
:10883000484600F04CF90128069040F0B9800CAF92
:1088400043464A461CA800F07FF952463846039931
:1088500047F82B403346FFF7B1FE394638464B46C2
:108860001CAACDF8008000F0F3F90DF5B87A4B465C
:108870001CAA4CA914A8CDF8008000F0E9F92A46FA
:108880005046049900F061FCAB000793049B0AEB8F
:10889000850B03EB8501584600F057FC06F14403B5
:1088A000194634A8039300F050FC039BA900591803
:1088B0003CA800F04AFC331D514634AA1CA8009580
:1088C000059300F07AFA5B4652463CA934A800961C
:1088D000FFF7E4FD1CA908462B46321D00F034F9D1
:1088E0001CAA594650463346FFF73FFE039B0993A7
:1088F000049B089441463846CDE90A3A00F0F8FB5B
:108900004146824614A800F0F3FB8245B8BF824678
:108910001FFA8AFA0AF1FF3109B23846039100F0D2
:1089200057FC0399074614A800F052FC003818BF02
:108930000120003F18BF012747EA40070DF1200B37
:108940002A465BF8271024A800F0FFFBAB0019446F
:108950002CA800F0FAFB29461CA800F0ADF8069BF5
:108960001C93AAF1020A0FFA8AFABAF1000F23DA6D
:108970001CA90846059A2B4600F0E6F833461CAAC7
:108980002CA924A8FFF7F1FD424624A9484600F08F
:108990009EF8012804D043464A46084600F0E8FB0A
:1089A000013D6DB24CAA2B0648D5B4FA84F4640993
:1089B00020466DB0BDE8F08F33461CAAD6F8A470EF
:1089C0002CA924A8B84751460CA800F001FC514638
:1089D000074614A800F0FCFB003818BF0120003F38
:1089E00018BF012747EA400708AB53F8271011B317
:1089F0002A4634A800F0A9FB079B3CA8194400F0C4
:108A0000A4FB014633461CAA34A8FFF7AEFD059B24
:108A1000009534AA24A944A800F0CFF92CAB24AACD
:108A20003CA934A80096FFF739FD1CA9334644AA97
:108A3000084600F0AEF90AF1FF3A94E724AB52F889
:108A4000251053F825304B401C43013DABE73C4615
:108A5000AEE7000000000000000000000000000081
:108A6000C3F10803DB0070B501330446002003A501
:108A70005B1920C940CAAD1920C4184720C940CA93
:108A8000754120C420C940CA754120C420C940CACC
:108A9000754120C420C940CA754120C420C940CABC
:108AA000754120C420C940CA754120C420C940CAAC
:108AB000754120C4404170BD002310B51C465AB218
:108AC000914200DC10BD40F823400133F7E710B5B8
:108AD000013A52B2130601D5002010BD50F82240D1
:108AE00051F822309C4205D802F1FF32F2D24FF009
:108AF000FF30F2E70120F0E710B500231A465CB220
:108B0000A14203DCB2FA82F0400910BD50F82340C4
:108B100001332243F3E770B59DF910601D463346DB
:108B20000446FFF79DFF30B9324621462846FFF73D
:108B3000CEFF012807D033462A4621462046BDE80D
:108B4000704000F015BB70BDF0B50F46A1B00646F1
:108B50001946384615461C46FFF7CEFF28B1304669
:108B600021B0BDE8F040FFF7A7BF2246394668466E
:108B700000F0EBFA294608A800F0E7FA10A8214611
:108B8000FFF79AFF012318A81093FFF795FF2246DD
:108B900008A96846FFF79BFF30B9224610A9304666
:108BA00000F0D3FA21B0F0BD009BDA0709D42146CA
:108BB000684600F0BDFA2246294610A800F0E8FBFE
:108BC000E5E7089BDB0707D4214608A800F0B0FAC8
:108BD0002246294618A8F1E7002823461CDD08AAEA
:108BE0006946684600F0C4FA2146684600F0A0FADB
:108BF000224618A910A8FFF76AFF002805DA10A975
:108C000023462A460846FFF72BFF10A9234618AA39
:108C1000084600F0ADFACEE76A4608A800F0A8FAC8
:108C2000214608A800F084FA224610A918A8FFF7E8
:108C30004EFF002805DA18A923462A460846FFF702
:108C40000FFF18A9234610AA084600F091FABFE7C3
:108C50002DE9F04FB5B004AC9DF9F85001901F46D6
:108C600020462B4600F0BBF824AB29463846CDE918
:108C7000023400F03DFAC0EB851424B2002C2146EA
:108C8000B8BF04F11F01634203F01F0341F3471112
:108C900004F01F0614A858BF5E42FFF70DFF002E18
:108CA0004FEA81002DDD14AB00221844C6F1200EDE
:108CB0001346AB421AD314AB03EB850300936F1E2C
:108CC00034AB4FEA45084FEA8509012603EB8707D5
:108CD000002C53DA34AB03EB8606019856F8C81C17
:108CE0002A4600F032FA35B0BDE8F08F57F823C0BD
:108CF0000CFA06F10A4340F8042B01332CFA0EF269
:108D0000D7E714AB2A463946184400F01EFAD2E7DA
:108D10005AF8C83C53F8202034AB03EB80030CF125
:108D2000010C53F8803C0B44D31A34BF4FF0010BB5
:108D30004FF0000B9A425EF8C82C42F8203018BF62
:108D400059464FFA8CF04045E2DB731A5E422946E1
:108D500014A85E4100F0ECF909F1D0036B440098CF
:108D600053F8802C57F8803C294643EAC273013CF3
:108D700047F8803C24B200F0DBF9A9E734AB4FF0B0
:108D8000000CC6F1010E614603EB860A03EB8E0E62
:108D9000D7E730B51C4691B0054693F900306846D8
:108DA00000F01DF8D4F8AC3069462846984711B059
:108DB00030BD13460A46FFF7ECBF70B59DF9106051
:108DC0001D463346044600F0D3F938B133462A46EF
:108DD00021462046BDE87040FFF742BE70BD2DE938
:108DE000F04F08B4F8CA04B451F8042BA3FB02896D
:108DF00040F8048B4FF0000AE4FB629A4FF0000B3E
:108E0000E5FB62AB4FF0000CE6FB62BC4FF0000EDE
:108E1000E7FB62CE51F8042B4FF00008E3FB6289B8
:108E200040F8048BE4FB629AE5FB62ABE6FB62BCB4
:108E3000E7FB62CE51F8042B4FF00008E3FB628998
:108E400040F8048BE4FB629AE5FB62ABE6FB62BC94
:108E5000E7FB62CE51F8042B4FF00008E3FB628978
:108E600040F8048BE4FB629AE5FB62ABE6FB62BC74
:108E7000E7FB62CE51F8042B4FF00008E3FB628958
:108E800040F8048BE4FB629AE5FB62ABE6FB62BC54
:108E9000E7FB62CE40F8049B40F804AB40F804BB0B
:108EA00040F804CB40F804EB0CBC052B00F01E810D
:108EB0000C68A0F11400A1F11401A2F1140252F8FF
:108EC00004EB4FF0000550F8046BE4FB6E5652F8CB
:108ED00004EB50F8047BE4FB6E6752F804EB50F8A7
:108EE000048BE4FB6E7852F804EB50F8049BE4FB2F
:108EF0006E8952F804EB50F804ABE4FB6E9AA0F1D3
:108F0000140052F8044B51F804EB4FF0000CE4FB52
:108F10006EC540F804CB51F804EBE4FB6E5640F804
:108F2000045B51F804EBE4FB6E6740F8046B51F806
:108F300004EBE4FB6E7840F8047B51F804EBE4FBAF
:108F40006E8940F8048B51F804EBE4FB6E9AA0E8BC
:108F50000006062B00F0CA800C68A0F11800A1F1F1
:108F60001801A2F1180252F804EB4FF0000550F876
:108F7000046BE4FB6E5652F804EB50F8047BE4FB00
:108F80006E6752F804EB50F8048BE4FB6E7852F8ED
:108F900004EB50F8049BE4FB6E8952F804EB50F8A4
:108FA00004ABE4FB6E9A52F804EB50F804BBE4FB0C
:108FB0006EABA0F1180052F8044B51F804EB4FF0DF
:108FC000000CE4FB6EC540F804CB51F804EBE4FB65
:108FD0006E5640F8045B51F804EBE4FB6E6740F812
:108FE000046B51F804EBE4FB6E7840F8047B51F815
:108FF00004EBE4FB6E8940F8048B51F804EBE4FBCE
:109000006E9A40F8049B51F804EBE4FB6EABA0E8C9
:10901000000C072B6AD008B40C68A0F11C00A1F169
:109020001C01A2F11C0252F804EB4FF0000550F8AD
:10903000046BE4FB6E5652F804EB50F8047BE4FB3F
:109040006E6752F804EB50F8048BE4FB6E7852F82C
:1090500004EB50F8049BE4FB6E8952F804EB50F8E3
:1090600004ABE4FB6E9A52F804EB50F804BBE4FB4B
:109070006EAB52F804EB50F804CBE4FB6EBCA0F1ED
:109080001C0052F8044B51F804EB4FF00003E4FBD2
:109090006E3540F8043B51F804EBE4FB6E5640F8A3
:1090A000045B51F804EBE4FB6E6740F8046B51F885
:1090B00004EBE4FB6E7840F8047B51F804EBE4FB2E
:1090C0006E8940F8048B51F804EBE4FB6E9A40F88B
:1090D000049B51F804EBE4FB6EAB40F804AB51F891
:1090E00004EBE4FB6EBCA0E8001808BCBDE8F08F00
:1090F0004B1E10B55BB2041D1A0603D45A1E54F859
:10910000221071B101335BB283B103F18042013AA5
:1091100050F82210002231B9013B02EB431210B289
:1091200010BD1346E8E749080132F4E71846F7E7AF
:1091300000EB81010023884200D3704751F8042DD1
:1091400043EA52030B60D307F5E710B500235CB286
:10915000A24200DC10BD51F8234040F82340013307
:10916000F5E7000000000000000000000000000023
:10917000C3F10803DB0070B50133002403A500BF71
:109180005B1920C940CAAD1B20C0184720C940CA7E
:10919000B54120C020C940CAB54120C020C940CA3D
:1091A000B54120C020C940CAB54120C020C940CA2D
:1091B000B54120C020C940CAB54120C020C940CA1D
:1091C000B54120C06441B4FA84F0400970BD00BFCD
:1091D0004A11012350F8220001F01F018B40184072
:1091E00070470000F0B5082289B0FFF7AEFFCB6AE8
:1091F00003930B6B04934B6B05938B6B0693CB6BB9
:1092000007930C4606460027134669466A46684699
:10921000CDE901770097FFF723FC082305466A464E
:1092200031463046FFF71CFC236B0393636B0493BA
:10923000A36B0593E36B0544CDE906376A46082323
:1092400069466846FFF70CFC082305446A46314628
:109250003046FFF705FC236A0093636A0193A36A13
:109260000293A36B0693E36B0793054408236A46B6
:1092700031463046CDE904770397FFF7F1FB636A87
:109280000093A36AA26B0193E36A02930492636B57
:10929000E26B0393CDE90523236A07930544082372
:1092A0006A4631463046FFF7DBFBE36A0093236BE7
:1092B0000193636B0293236A0693A36A07930544A1
:1092C00008236A4631463046CDE904770397FFF715
:1092D0004FFF236B0093636B0193A36B0293E36BCC
:1092E0000393636A0693E36A07932D1A08236A4679
:1092F00031463046CDE90477FFF73AFF636B0093C0
:10930000A36B0193E36B0293236A0393636A049351
:10931000A36ACDE90537236B07932D1A08236A4604
:1093200031463046FFF724FFA36B0093E36BCDE992
:109330000137636A0393A36A0493E36ACDE90537AF
:10934000636B07932D1A08236A4631463046FFF7B0
:109350000FFF2D1A0D4C0FD435B908223146204687
:10936000FFF7B5FB01280FD00823224631463046CF
:10937000FFF7FEFE2D1AEFE708232246314630465E
:10938000FFF76EFB2D18F7D409B0F0BD60DB0700C6
:1093900070B50368DB070546144604D4BDE8704089
:1093A0001146FFF7C5BE13460A460146FFF758FBB4
:1093B000214606462846FFF7BBFE46B104F180442D
:1093C000013C55F8243043F0004345F8243070BD8B
:1093D0002DE9F04115468AB004460E461C220021B4
:1093E00003A8FFF733F82F1D95F9008003232A46C1
:1093F000314620460293FFF7DCFC3B4602AA214699
:109400002046CDF80080FFF7D8FC2B463246214697
:109410002046FFF7BEFCCDF800803B4605F18402F4
:1094200021462046FFF777FB0AB0BDE8F081000037
:109430002DE9F041194E4FF48271D6F8040130B194
:1094400017480269521C0261304602F05DFB00259C
:109450004FF4A07707EB85018AB23046B258BAB113
:1094600089B202F051FB0E48143000EB051420467F
:1094700003F0CAFF616819B1204603F04DFF07E011
:10948000A16811B1204603F047FF206800B1804772
:109490006D1C032DDED3BDE8F081000000400240CA
:1094A0008859002002F02CBCF0B5A149A1484FF02A
:1094B00080540B68D4F830210078D4F83411551C4E
:1094C000C0F3031006D0944601270026BCF1060F16
:1094D00003D00AE003F0FF0CF6E7B4F82453DFF8FA
:1094E00058C2C5F30425CCF80050DDB2062D06D1D4
:1094F000032804D1DFF848C2904DCCF87450551CB5
:1095000004D09446BCF1060F03D00AE003F0FF0C30
:10951000F8E7D4F84452DFF82CC2C5F34235CCF852
:109520000050DDB2062D08D1032806D1864DD5F8AE
:1095300000C02CF0807CC5F800C0551C04D09446B7
:10954000BCF1060F03D00BE003F0FF0CF8E74FF07F
:109550008045C5F80C61C5F810617A4D2D1F2E604D
:10956000DDB2062D08D1032806D1DFF8D8C10325C6
:109570000CF1640CCCF80050DDB2062D10D103289C
:109580000ED1DFF8C8C10525CCF800506F4D7835F5
:109590002F606E4D08352E600CF104063F253560B6
:1095A000551C04D016460D46062E03D05BE0DEB2F5
:1095B0000546F9E7ED1E012D55D9654D2D68654E1F
:1095C0003560634D2D1D2D68361D3560604D0835A5
:1095D0002D68361D35605E4D0C352D68361D3560A5
:1095E0005B4D10352D68361D3560594D14352D688D
:1095F000361D3560564D18352D68564E203635606F
:10960000534D1C352D68361D3560514D20352D6864
:10961000361D35604E4D24352D68361D35604C4D58
:1096200028352D68361D3560494D2C352D68361D81
:109630003560474D30352D68464E40363560444DD7
:1096400034352D68361D3560414D38352D68361D51
:1096500035603F4D3C352D68361D35603C4D4035FD
:109660002D68361D3560551C03D01646062E02D0D7
:1096700007E0DEB2FAE7D4F85852374E05F04F054E
:109680003560551C03D01346062B02D008E0DBB230
:10969000FAE732480368DB0702D06FF0010303608A
:1096A000062A07D1C91E022904D92D48016841F4B0
:1096B0008061016024487438016841F470010160E0
:1096C000BFF34F8FBFF36F8FD4E94C104FF01022D0
:1096D000062907D1C01E032804D9D2F80802194967
:1096E0001C310860D2F80C02C0071DD0012002F026
:1096F000C1FBD2F80C0220F00100C2F80C0219489C
:1097000001680029FCD0002002F0B4FBBFF34F8FAA
:109710000D48F0380168144A01F4E061114301601A
:10972000BFF34F8F00BFFDE7114910480860F0BD3F
:10973000E00F00F0E80F00F0403501400DF0ADBA49
:1097400000C007403C050040FCED00E01056004022
:109750000404001020C50040E40E00400004004056
:109760003C17004000E401400400FA050090D003DB
:10977000345A0020034808B50021016000680090B9
:1097800008BD00000001014002E008C8121F08C126
:10979000002AFAD170477047002001E001C1121F72
:1097A000002AFBD1704700000121202803DA814004
:1097B0000548014003E0402802DA2038814009B121
:1097C0000120704700207047FC06FFBD800701D0D4
:1097D0000020704701207047C3688B4206D81144AF
:1097E0000069491E814201D801207047002070475E
:1097F00030B585B00D46164C1621ADF800101ECCC4
:109800000DF1040C8CE81E00124C02210122217083
:109810006270A0700320E070217159206071FE20F9
:10982000A071694604F109007DDF00280ED1BDF862
:1098300000002A46411CE17109212172BDF808107F
:109840000844ADF8080001A9034872DF05B030BD37
:1098500010D807006C5E0020D459002010B586B0E7
:109860000624182208496846FEF7D5FD69462046B9
:10987000FFF7BEFF002805D1044C207874DF0121DA
:10988000207873DF06B010BD20D80700D45900201F
:1098900070B5104CA66C656A01F022FB216B084480
:1098A0006A1A3144814200D10022082300F04CFEA4
:1098B00006000DD101F014FB0022294600F0B2FB96
:1098C000A16A814203D10121A561C4E907013046A3
:1098D00070BD00000476002002F0CCFB02F0CAFB51
:1098E0002DE9F84F254C8146924660880E4681420C
:1098F00041D800274FF6FF788DF80070684600F0D9
:1099000075F822786078A188884201DA401C00E06E
:109910000020C0B2904204D19DF8000000F08AF807
:1099200027E065786078884201DA401C00E000207A
:1099300060709DF8000000F07DF8454519D0A068E2
:10994000B9F1000F40F835A00DD066B16188E0682C
:10995000324605FB01004946FEF75DFDA06800EBBD
:10996000C500868002E000EBC50087800020BDE8CE
:10997000F88F0420FBE70920F9E70000145A0020C3
:1099800010B50E4C03E0401C00E000202070207851
:109990006178814210D022786188E068A36802FB78
:1099A000010003EBC20153F83220898890472078E8
:1099B000A1888842E9DAE6E710BD0000145A0020C9
:1099C00030B5CB0008339DB293074FF0000401D0AF
:1099D000072030BD044B9A602A44DA605C701C702A
:1099E00058809980002030BD145A002030B5EFF324
:1099F000108172B60D4A9468012324B103700029C6
:109A000000D162B630BD93604FF0E023D3F88051AF
:109A1000074C25401560C3F88041D3F88441546059
:109A20005A17C3F8842100220270E8E7787D0020ED
:109A3000FC06FFBD0B498A68002A11D000280FD10F
:109A4000EFF3108072B60B684FF0E022C2F80031DD
:109A50004B68C2F8043100228A60002800D162B647
:109A600070470000787D002070B5164E154856F8F6
:109A7000245F846CB168AC2901D024B111E0406B43
:109A800004442D1A05E001F03FFA0446B068AC2802
:109A900007D12A46A4F580410B48FEF7E0FC0028D8
:109AA0000ED02A4621460848FEF7D9FC002807D0E8
:109AB00001F090F829462046BDE8704001F048BB0F
:109AC00070BD0000047600200080070030B5044619
:109AD0002C4995B04FF6FF70488001208DF8120098
:109AE0004FF65960ADF81000224604A90120A8DF06
:109AF000002844D1244B0FCB8DE80F00A11C6846F1
:109B000062DF00283BD120491C2260390BA8FEF7F8
:109B100082FC1E4D142205F1C401A8681290A078A1
:109B20008DF84A002868139006A8FEF774FC12A866
:109B3000069013A807902088231D06AA0BA9AADF68
:109B400000281CD11C2205F1D8010BA8FEF763FCEC
:109B5000E8681290A0788DF84A0068681390142283
:109B600005F1F40106A8FEF756FC12A8069013A80A
:109B70000790208804F10C0306AA0BA9AADF15B0F0
:109B800030BD0000D4590020E8D80700E0D7070016
:109B9000F0B585B0044614216846FEF755FC2078E0
:109BA000032308280BD12748C188491E89B2C180E8
:109BB0008288002A3ED000293CD1C28023702178BF
:109BC000607860228DF800208DF801108DF8020079
:109BD0006078032101280AD00B2828D100F062FC0C
:109BE0008DF80300002000F065FC04211FE02078C0
:109BF00009281CD2DFE800F01B1B1B201B1B051BC8
:109C00002000D4E902706D46E91C666803F006FC8A
:109C1000044629193046C91C03F000FC04442919E4
:109C20003846C91C03F0FAFB2044C01CC1B2684688
:109C300003F04CF805B0F0BDD4E90112684603F01A
:109C400034F8F2E7D45900202DE9F04113490346D6
:109C500000208A68D4071ED0114CA3421BD048882C
:109C6000A0F57F43FF3B10D042F004028A6013212D
:109C700076DF00280FD10B4EC8254FF47A47741CAD
:109C80003846A0476D1EFAD101E0087874DFBDE8C0
:109C9000F04101F0D1BFBDE8F0810000D4590020AF
:109CA0002CDC0700F0D7070038B5214C0021227AC0
:109CB000D20701D0084638BDE0601E4800F014FE0F
:109CC0000020009001F050FA88B91B4813DF70B9EA
:109CD00001F0DCFF58B9684601F01CFF38B969464D
:109CE000012001F021FF10B9684601F06BFF002848
:109CF000E1D101F025FB30B1104801F015FBA0685F
:109D000040F00200A06000F0EBFB0028D3D10B482C
:109D10001C30FFF7DBFE0028CDD1FFF79FFD0028A8
:109D2000C9D1A06840F00100A060002038BD00004B
:109D3000D459002034DC0700008007008C5E00202E
:109D400070B50446011D008800226F4D86B02128A1
:109D50007ED025DC13287CD018DC01287AD010288E
:109D60005BD011284AD14FF6FF706880287A4007EF
:109D700004D4FFF773FD08B1FFF7B0FDE9680029CF
:109D80003CD006B00220BDE870400847142878D0C7
:109D90001A2877D01F2831D16888091D75DF62E045
:109DA000512870D02CDC222828D0232862D02428E7
:109DB00024D0502822D1554D34F8060FA988884266
:109DC0001CD1534800F056FD060017D0628904F1FB
:109DD0000C01FEF720FB18224E496846FEF71BFBDC
:109DE000049601956089ADF81400684601F0F0F919
:109DF000002803D03146464800F05EFD06B070BD35
:109E000052287BD0552813D05628F7D1A0790028A6
:109E1000F4D11321688876DF25E008886880E96836
:109E200009B1012088473B4968887A3975DFE5E741
:109E3000E188F72914D28807B0F1404F11D0C91F2B
:109E400089B2481EC21700EB927222F0030202E0B0
:109E500033E01CE036E0801A081A801D81B200E071
:109E6000F7216888B5DF0028C8D006B0BDE870408B
:109E7000FFF734BD00920192A0880022694690DF6E
:109E800018E034E03AE021E0FFF728FDB6E721488A
:109E90006A46903842F60521806A009002A8019037
:109EA0006888ADDF08B1FFF719FD00231A46852148
:109EB00068887FDF0028E7D1A0E70092088869461C
:109EC0008FDFF7E70021688866DFCCE7A0790028FC
:109ED00094D021460D4802F0E5F800288ED006B057
:109EE00004F10801BDE87040084801F0CFBF00242C
:109EF000088822462346214686DFB4E700230888E7
:109F00001A461946B1DFAEE7D4590020A85E0020FA
:109F100034DC070070D80700007800F001007047BB
:109F200013B90378012B01D001F02DBB012070473C
:109F30000022C32100F5187000F074B82DE9F04339
:109F4000A1B00446DDE9289520200F4620909846D0
:109F50001646782102A8FEF777FA41212046FEF73F
:109F600073FAB7F8940006EB061107EB8101B042D3
:109F700001D991F8965025701DB3012D04D0022D02
:109F80000AD0032D13D116E000224946404600F0C6
:109F900049F8C4F8010014E020A9601CCDE90001D3
:109FA0004B4642460A4902A800F0C2FE48B10020D2
:109FB00021B0BDE8F083B1F89820601C9A31FEF71B
:109FC0002AFA4A464146204601F0DDFAF0E7000051
:109FD00008D6070010B500284FF0000006D004494D
:109FE0000870BDE81040034801F0D6B900F0B2F99E
:109FF0007859002055A3070010B543689C184460A9
:10A0000021B905E013F8010B01F8010B521EF9D23A
:10A01000012010BD0249CA6B4260096C8160704723
:10A0200004760020F0B54FF0FF3622B11268D2431B
:10A0300000230A4D0DE03246FAE7C45C6240082472
:10A04000D70700D037462F4087EA5202641EF7D167
:10A050005B1C8B42F1D3D043F0BD00002083B8EDF0
:10A0600010B504460068401C07D0204602F004FFEB
:10A070002168814201D1012010BD002010BD0000E7
:10A0800010B50B4C90B0607800280ED100F0B4FEF3
:10A0900020220849684600F0CFFE40236A46064960
:10A0A000064800F005FE0120607010B010BD0000F1
:10A0B000045A0020B4D50700B07C002020D6070049
:10A0C000F0B5146906468DB020681546271DE0B12D
:10A0D000022920D00A2000906B4609AA304602F0DF
:10A0E000B3FD00280FD009A901A8009A02F07AFB5D
:10A0F00001AE96E80F0005AE86E80F002368696898
:10A100003A4605A898470DB0F0BD0DB03046BDE801
:10A11000F04002F0DBBB6946304602F06DFB0028E0
:10A12000F1D0236869683A46684698470028EAD023
:10A1300002980028F5D1019870600120E3E7536888
:10A140009B7813F0C00303D0402B03D0002070474E
:10A1500000F002B8FFF7B4BF2DE9FF410B4651688C
:10A16000064614468878334D00F00F0210F0300098
:10A1700055F8225006D0102806D0202808D03028C4
:10A1800056D13EE022694DE061690120087047E048
:10A19000022B28D1042A26D84FF001086946304600
:10A1A000676902F029FB00281AD009E00B892269AF
:10A1B00003FB00226846A84770B13888401C3880ED
:10A1C000029820B1616838884A899042EED301989C
:10A1D0007060029860BB02E04FF00008F7E740466D
:10A1E00004B0BDE8F081D4E904300F8902884989C0
:10A1F00007FB02338A421BD2521C02801A46616856
:10A2000010E008886169072A088009D1606801891F
:10A210002069FEF719F960682169C06802F007FB40
:10A220002269616804B03046AC46BDE8F041604741
:10A230000020D5E738DB070070B500F003FA10B155
:10A2400000F03CFAC8B31E4801240168C90301D5D7
:10A25000811308E01B48016801F0F901A92904D124
:10A26000016801F0560101600024174D286A012899
:10A2700024D14FF4405015494068884208D1234604
:10A280004FF4805105F518706A6BFFF749FEA0B1D5
:10A2900000F026FE014623460D48AA69FFF740FE5E
:10A2A00058B10848001F006800F0F900B12805D037
:10A2B000A86D012800D0002070BDFFE70120FBE75A
:10A2C000000400402005004004760020DBE5B15189
:10A2D000A57800204169002901D0C068084770476F
:10A2E0007047000010B50446801E062810D2DFE833
:10A2F00000F00D03030F09090A494FF4701000F034
:10A300004DFB05E00120FFF765FE01E001F06CF870
:10A310000548C168002903D02046BDE81040084721
:10A3200010BD0000D9A507007859002010B50446DB
:10A33000062801D0072C02D1002001F0EDF80448D6
:10A340000168002903D02046BDE81040084710BD31
:10A35000D0590020BFF34F8F05480168054A01F42A
:10A36000E06111430160BFF34F8F00BFFDE70000C4
:10A370000CED00E00400FA052DE9FC4180461F4683
:10A3800015460E4600240D4800F066FA38B111203B
:10A39000BDE8FC8106EB043001F064FB641CAC42B8
:10A3A000F8D1064800F055FACDE9005733460022AF
:10A3B0000221404600F02AF80020E9E7245A002054
:10A3C0002DE9F843104D0F4680461E4691466946DA
:10A3D000286800F012FA040014D01C21FEF734F8AB
:10A3E00001202071C4F81490380BC4F80080C4E92F
:10A3F00002606946286800F021FA02F005FC00209E
:10A40000BDE8F8830420FBE764D907002DE9F04399
:10A4100087B00446DDE90E8980681D4616460F4662
:10A4200000280BD018216846FEF70EF802A88DF818
:10A43000007080E86003A1686846884707B0BDE8FF
:10A44000F08330B50446006887B00D468068002868
:10A450001FD018216846FDF7F7FF0195A068059009
:10A46000207910B1012810D107E001208DF80000FB
:10A4700020690290E068039005E002208DF800005A
:10A48000E068000302906069049020688168684673
:10A49000884707B030BD0B2803D30B38C0B200F09B
:10A4A00009B870470249002208780A707047000016
:10A4B000EC590020014908700B207047EC5900202E
:10A4C0000149012008707047785900200149012096
:10A4D00008707047CC5900200123723001F07CB81D
:10A4E0000EB59DF8080020F00F00401C20F0F00091
:10A4F00010308DF8080068466DDF002819D19DF8EE
:10A500000100401C8DF8010068466CDF002810D166
:10A510000848007A800703D50748011D806901E0DB
:10A5200006A1052082B202A87CDF002801D10548DF
:10A530007ADF0EBDD45900208C5E00204E797865FC
:10A540006C000000F6D707002DE9F04781461D4654
:10A5500016468846494502D10020BDE8F087A8EBA1
:10A560000900040B06F6FF704FF0000A070B00F01D
:10A5700045FBA5422AD22C4628E0A74202D8BA467B
:10A58000354601E0A246250300225146484600F028
:10A59000A5FD0028E1D1681E00F003002A1A00235F
:10A5A00041464846D21C00F0AFFD0028D5D10948ED
:10A5B000A7EB0A07761B016BA94429440163A84451
:10A5C000002000F095FF5FEA000AC6D1002ED4D12A
:10A5D0005046C2E7047600200120FFF7FBBC0000D4
:10A5E000014941600020704738D9070010B50B4978
:10A5F00041600B4800F030F968B901F093FB08495D
:10A600001C234FF4EE7208740448A1F5EE71001F8C
:10A61000006800F0DFF8002010BD000068D90700D6
:10A62000707F002002480068002800D00120704799
:10A63000245A00200248007A002800D001207047E8
:10A64000707F00204FF0A040D0F81005800810F077
:10A65000010F01D0002070470120704710B54FF462
:10A660004051144B4C6800F500509C4204D04268A5
:10A670009A4201D1012200E000229C4218D1446894
:10A680009C4215D10A78142A01D9496900E00021B9
:10A69000094A0378B1FBF2F1142B01D9406900E0BB
:10A6A0000020B0FBF2F0814201D0012200E0002244
:10A6B000104610BDDBE5B15140420F000448C068B0
:10A6C000C10301D5C00701D00020704701207047A9
:10A6D0006859002070B5054608680C464A688668C7
:10A6E0002846314601F0C4FF6068286104F10C007F
:10A6F0006861B0780221B1EB901F01D1241D2C615B
:10A7000070BD0000164810B541680024491C416026
:10A7100083685B1C83600A2904D3124944600A6879
:10A72000521C0A604FF0A0414FF48002062B0AD25F
:10A73000D1F8043522EA0300C1F8080503F48000CB
:10A74000C1F80C0505E0082B02D2C1F80C2500E089
:10A75000846005480078002801D0C1F80C2510BDA0
:10A76000785900206C590020685900201048016871
:10A77000104AD1600160104A03214FF0A040C2F896
:10A7800000174FF48001C0F80C1500F00BFA4FF4DD
:10A790008051002000F016F940B90848C0F5FC21AE
:10A7A00000F010F910B9064800F078F901F062FCE9
:10A7B0000004004068590020580000500080070045
:10A7C000E1A2070010B5FDF770FD08B1002010BD33
:10A7D000112010BD10B531B1B2FBF3F403FB14240A
:10A7E0001CB1092010BD0E2010BD01600021416088
:10A7F00081608281C381084610BD70B50C46054654
:10A80000FDF708FD002802D021882868084470BDA3
:10A8100010B50A8849888A4203D1FDF73DFD012021
:10A8200010BD002010BD70B50C460546FDF717FDA4
:10A83000002802D061882868084470BD10B50A88D5
:10A8400049888A4203D1FDF701FD012010BD002097
:10A8500010BD002100F003B8012100F006B808B5D2
:10A860006A46FDF754FD009808BD08B56A46FDF735
:10A8700041FD08BD38B5044600258DF800506846F6
:10A88000FFF7B4F821686268086890420ED9401E4C
:10A8900008600178238AE26801FB0325227A216897
:10A8A000101AC0B20A79824200D208719DF80000E5
:10A8B000FFF7C0F8284638BD38B5054600208DF8AA
:10A8C00000000C466846FFF791F8E868298A201ACC
:10A8D000B0FBF1F12A681068431C136001709DF809
:10A8E0000000FFF7A7F838BD10B530B1017A426813
:10A8F0000368891AC9B21A6006E00E2010BD036809
:10A900001A68541C1C601170491EC9B2F7D2006845
:10A9100000210171084610BD10B54FF0E0224FF044
:10A92000FF314FF48054C2F88011C2F8801200F059
:10A9300027FC2046BDE81040AFF3008010B5044668
:10A940001448C0F5FE2100F03DF808B1FEF7C6FF3F
:10A9500000F0C6FA014610488069421EC2F30B029D
:10A96000801A0144002001F6FF7100F02BF808B1B5
:10A97000FEF7B4FFD4E90001002282F3148882F3C9
:10A98000108882F3118882F3138880F30888BDE869
:10A9900010400847008007000476002070B5084D7D
:10A9A00004460E46686802F02FFD002C06D03246A1
:10A9B00021466868BDE8704002F018BD70BD000017
:10A9C00088590020F0B50A0502D1B0F5FE2F01D953
:10A9D0000720F0BD134D000B491E124F01222E1D02
:10A9E000103700EB113407F1040C17E04309C3F1F1
:10A9F000000100EB411E02FA0EF106D0012B06D039
:10AA0000022B06D0032B08D105E0296005E0316058
:10AA100003E0396001E0CCF80010401CA042E5D909
:10AA20000020F0BD0006004070B5194D0024E86A12
:10AA30002435012807D0A52808D0AA2809D0AC2899
:10AA40000AD0002070BDFEF723FF0BE002F05CF996
:10AA500007E0FFF709F805E002F056F908B9FFF73B
:10AA600003F80124284600F05FFA0A490020087024
:10AA7000094800F03DFD08B1032070BD0120002C05
:10AA8000FBD00349096A0129F7D1022070BD0000FB
:10AA900004760020CC590020CDA4070070B5324EBA
:10AAA00033490025F0603148C1F80007284600F01E
:10AAB00079FC00284FD1FFF7B7FF20B1012820D043
:10AAC000022848D105E04FF47014FFF7B5FB10B928
:10AAD0003EE04FF4A02440F6CC40264900F058F860
:10AAE00000F08CF8244A20211820FEF769FF08B1F5
:10AAF000FEF7F4FE2148016801F0F901B12904D004
:10AB000007E00120FFF766FA25E0016801F04E0139
:10AB100001601B48816D012906D18565002000F088
:10AB2000CDFC08B1FEF7DAFE00F010FB98B915492C
:10AB30002046FFF733FF144800F0F2FA58B900BF7F
:10AB400000F048F801F0E0FFFEF71AFF41DFF7E7F9
:10AB500000F0D0FB08B1032070BD35700B4800F049
:10AB60001BFCFFF7D9FEF6E7785900200C00030024
:10AB70000800005005A707004C5A00201C050040A3
:10AB800004760020D9A50700E5A20700C1A40700AC
:10AB9000034AD3680A4601469860184602F026BC6C
:10ABA0008859002010B540F6F8700168491C02D1A0
:10ABB000074900F06FFF40F6FC700168491C05D1A1
:10ABC000BDE810404FF4FC2100F064BF10BD000050
:10ABD0000080070010B501F045F9002803D0BDE85A
:10ABE000104002F079BC10BD034A93680A46014642
:10ABF0009860184602F0FABB8859002070B50E4DD7
:10AC00002878002817D101F02DF9012690B10B48C2
:10AC10000468A4F54864962C00DA962402F05CFCE3
:10AC200007492046FFF7E0FF4FF0E0214FF4803066
:10AC3000C1F800012E7070BDCD59002004050140FF
:10AC400015D5070040688068004710B54268083095
:10AC5000527900F0F1F8002010BD2DE9F04399B0D1
:10AC60001C4690460D460846DDF88090FFF7EAFF47
:10AC70006E6807467079A04200D8044622464146D5
:10AC800011A800F015F97279494601A800F0D4F82E
:10AC900001AB224611A905F108000097FDF782FDDE
:10ACA00018B1002019B0BDE8F08348F24250F9E72E
:10ACB00070B516460C46054600F0E2F800280ED1A5
:10ACC000AA791946304600F0E8F8002807D1314645
:10ACD0002046FFF7BAFF002801D10149216070BD6D
:10ACE0007052464D2DE9F8430C46DDE90857814680
:10ACF000984616460D49204600F0B6F8002810D1B7
:10AD00006068394640794200284600F0C6F80028BD
:10AD100007D146B143463246214648460095FFF7E3
:10AD20009CFFBDE8F88348F21050FAE77052464D98
:10AD30002DE9F0411D46DDE906871646044600F080
:10AD40002DF800280DD12A463146204600F03CF867
:10AD5000002806D13A4641462046BDE8F04100F0C1
:10AD600002B8BDE8F08170B515460E46044602F003
:10AD7000A3FB002807D13EB160682968C2689142F0
:10AD800005D248F2145070BD48F2135070BD83686C
:10AD90002A4631462046BDE87040184710B550B1EC
:10ADA00061B14160096804468847002802D105481E
:10ADB0002060002010BD48F2015010BD48F2105034
:10ADC00010BD00006E52464870B515460E4604464A
:10ADD00002F072FB00280BD146B155B160682A46DB
:10ADE000314643682046BDE87040184748F210508D
:10ADF00070BD002070BD00002DE9F0410B480C4DE6
:10AE00000C4F401BC60801203870002406E000BF2C
:10AE100055F834008047002805D1641CB442F7D3AC
:10AE2000022038700020BDE8F08100000000000022
:10AE300000000000CE59002070B514460D460646AD
:10AE400000F036F8291930192246BDE8704000F0AC
:10AE50002FB830B50C46054600F035F828192146C4
:10AE6000BDE8304000F02FB828B10068884205D016
:10AE700048F24050704748F2105070470020704729
:10AE800028B139B10022C1E900201046704748F2CC
:10AE90001050704748F21350704720B1914205D0CE
:10AEA00048F21150704748F2105070470020704728
:10AEB0000244521E04E000BF11F8013B02F80139C0
:10AEC0008242F9D270470144491E05E002780B78AE
:10AED00000F8013B01F801298142F7D270470000D8
:10AEE0004FF44050074A4168914207D18068411EA3
:10AEF000C1F30B01401A00F6FF7070474FF4805009
:10AF000070470000DBE5B15100B5FFF7E9FF0549E7
:10AF100089690A18401E0844C0F30B00101A00F695
:10AF2000FF7000BD04760020002101604160816057
:10AF30000148016370470000047600202DE9F041CC
:10AF40009846214F16460C460546002301215BB169
:10AF5000012B11D0022B1ED00020381AA0F5405032
:10AF6000A8421BD201221AE0FFF7CEFF8EB117498B
:10AF7000096A0129F1D00CE0FFF7B2FFB8F1000F28
:10AF800005D14FF44051124A4968914201D0012144
:10AF9000E3E70021E1E74FF48050DEE7002242EAD8
:10AFA0000400884305D0022B03D25B1CDBB2022BCA
:10AFB000CCD912B10420BDE8F0811BB10348183090
:10AFC000FFF7B2FF0020F6E70080070004760020BC
:10AFD000DBE5B15170B504460078092811D2DFE8ED
:10AFE00000F0100510112510381013000D461D49F2
:10AFF0000320C9688847606900F056FBFFF74BFAE9
:10B00000687070BD084628E00D46A18A206900F0EE
:10B0100027FBFFF740FA68702846FEF7FBFFE16860
:10B020000029EED02069BDE8704008470C460D4964
:10B030000831081F00F052FBFFF72DFA607001285D
:10B04000DFD1002000F054FA0028DAD00A20607026
:10B0500070BD08464FF40071C160BDE87040FEF756
:10B06000D9BF0000F059002070B51A4A05780124B4
:10B07000936C092D2CD2DFE805F02B052B0B0F2B41
:10B08000252B080000F03AFF22E000F0ADFF1FE0A2
:10B090008B60106D48601BE0D2E91454566C2C1B79
:10B0A000A64203D008204870012411E00024556511
:10B0B00054642146D36400F05BFF07490420C9684B
:10B0C000884705E08B60106D48604FF48050C86081
:10B0D000204670BD04760020F059002013460A4631
:10B0E0000146014800F0F0BB385A002008B103497E
:10B0F00000E003490022034800F0FCBB74D90700BC
:10B1000044D90700385A002008B5009313460A4670
:10B110000146024800F086FC08BD0000385A0020B5
:10B12000084910B508600020FFF700F9064800F054
:10B130000DFA002804D1BDE81040034800F026B8FD
:10B1400010BD0000D05900202DA30700002070473B
:10B150001FB58908002201AB009283E8070068460A
:10B1600018DF04B010BD00001FB5044B0FCB8DE8F5
:10B170000F00684618DF04B010BD0000F8D80700C3
:10B180004FF48050410408600020704710B504005F
:10B1900011D00120FFF7AAFF00280BD100F04EFAD2
:10B1A00000F0DEFA48B10949081F00F097FA0128BB
:10B1B00003D0032010BD072010BD04480838C46028
:10B1C0000020FFF777F9002010BD0000F85900209B
:10B1D000816819B1024A1821FEF782BB0720704727
:10B1E000E5B10700AFF3008030B587B00446182200
:10B1F0001F496846FDF70FF920788DF80000227886
:10B200001C4D0D2A25D2DFE802F0240B270B0B245E
:10B210000B240B2424240700E968072088471BE03F
:10B2200020466946062A01D0012A01D1027C2A70F3
:10B230002A78012A05D0022A06D00020287005208D
:10B2400008E0FFF7C7FE07E0FFF70EFF20B907B0E1
:10B2500030BD02208DF80100D4E901126846904704
:10B260009DF801000128F2D0E96805208847EEE743
:10B2700020D90700F059002038B10549016005497F
:10B28000416001210172002070470E2070470000CC
:10B2900099B20700D1B2070010B50C0001464FF07B
:10B2A000110007D02278052A05D2DFE802F00F0549
:10B2B0000D0F0F000E2010BD084600F051F80028B9
:10B2C000F9D10221217010BD112010BD082010BD40
:10B2D0000246082041B10B78022B04D1022A05D086
:10B2E000032A00D1112070470E207047002003224E
:10B2F0000A70704770B50B480024D0F82413491C1D
:10B3000003D1D0F86403401C09D04FF4FE25284631
:10B3100000F0A8FBC9220349284600F0D3FB2046D1
:10B3200070BD00000476002010B528B11C2203492E
:10B33000FDF771F8002010BD0E2010BD64F307006A
:10B3400010B5064C00221821201DFEF76BFE216867
:10B35000814201D1012010BD002010BD64F307001F
:10B3600070B50C4D0400D5F8640305F5597503D08C
:10B37000401C03D0082070BD0E2070BD0022182193
:10B38000201DFEF74FFE206007222146284629DFB8
:10B3900070BD000000F00700014901F063BD00002E
:10B3A00000F0070010B5FFF7A1FE30B900F01CF85F
:10B3B000002000F09DF8002800D0032010BD000000
:10B3C00010B5FF224FF400710648FDF736F8054826
:10B3D00020212438FDF738F8024900205C39086341
:10B3E00010BD0000607600202DE9F0472E48FEF7E2
:10B3F00037FE2E4E074634682046FEF731FE4FF0EA
:10B40000010A4FF0000958B16068012806D02046B3
:10B41000FEF78EFDD4F85C12884201D1012500E0D0
:10B420000025234C4FF002084FF460719FB10A468B
:10B430001D492046FCF7EFFF9DB136682546542292
:10B44000311D281DFCF7E7FF4FF4327206F15C0155
:10B4500005F15C0003E015B30A4615483168FCF7B6
:10B46000DAFF6068012818D11249402201F5E47022
:10B47000FCF7D1FF0F491C22403101F5E470FCF7C5
:10B48000CAFF84F8609284F8A1A20B4884F8E29283
:10B49000E169C0F82210C4F80480BDE8F0870448D0
:10B4A000FCF7D2FFF7E7000000F00700005A002089
:10B4B00004760020607700208478002070B505466F
:10B4C000094801F0D9FC084C20602046FEF730FD09
:10B4D000C4F85C02A4F5E0632A462146BDE870404A
:10B4E000024801F0CEBC00000476002000F0070006
:10B4F00070B505460020FFF7E1FF040003D10349C2
:10B50000284601F0AFFC204670BD00000476002004
:10B510004FF48050704700002DE9F041074609487C
:10B52000094D401BC6080020044607E005EBC40097
:10B53000416838468847002802D1641CB442F5D3DC
:10B54000BDE8F08134DC07002CDC07002DE9F04178
:10B5500007460948094D401BC6080020044606E07E
:10B5600055F8341038468847002802D1641CB4428C
:10B57000F6D3BDE8F081000034DC07002CDC0700C6
:10B58000012201F0D1B938B5144602780B467AB1E0
:10B59000012A04D0022A0DD0032A1BD112E0D0F8D0
:10B5A0000150002221461846FEF73CFDA84211D169
:10B5B000012038BD01B02246BDE830400023401CC8
:10B5C00000F00AB8411C40220020009400F0F2F87C
:10B5D0000128EED0002038BD2DE9F041AAB0054683
:10B5E0002020884628901E4617460124782102A86C
:10B5F000FCF72AFFFEF744FD2EB12022294620A8A1
:10B60000FFF756FC20AD28A90A48CDE900013B46CA
:10B610004246094902A8FFF78BFB28B92022294698
:10B620000448FCF71CFF00B100242AB02046BDE806
:10B63000F0810000587D002008D6070010B50648AC
:10B64000064C806B20B101F003FE08B1012000E040
:10B650000020207010BD000004760020045A002055
:10B660002DE9F0410F4C07460D46E06BA26B012619
:10B670004119914201D9032610E00A492A465C315A
:10B6800008443946FCF7C7FEE06B064A2844E063ED
:10B69000403229463846FEF7C5FC20643046BDE8F6
:10B6A000F08100000476002070B504004FF0010521
:10B6B00004D0B4F5007F03D9042508E0032506E093
:10B6C000044900200870FFF77BFE03488463284686
:10B6D00070BD0000045A0020047600202DE9F041DE
:10B6E00006461D480F46C16B806B814201D008247D
:10B6F0002FE01A4D287840B1FFF706FC306039463C
:10B70000E86801F0ADFE044623E001F0A1FDF8B1C8
:10B7100000F02CF80446002030603860012C0FD176
:10B720003946E86801F09CFE0446012808D13868D3
:10B73000012700213B460A46FFF700FC18B104240C
:10B74000FFF73EFE05E0FFF7DFFB30602F7000E003
:10B7500005242046BDE8F08104760020045A00202C
:10B760000148007870470000045A002038B50F4C9B
:10B77000251D002094F86C31014602463BB194F837
:10B78000D802B4F8DA2204F5B87504F53771084B1D
:10B790009C6800945B6800F00DF8012804D1281D16
:10B7A000BDE8384000F050B838BD00008479002072
:10B7B000045A00202DE9F041A2B0064620200D4693
:10B7C00020901F461446DDF8A080782102A8FCF7DF
:10B7D0003BFE00202190FEF753FC25B12EB1162030
:10B7E00022B0BDE8F0811320FAE720A91448CDE982
:10B7F000000143463A46134902A8FFF799FA08B9EF
:10B80000402C01D00A20EBE70D482246294640385B
:10B81000FCF701FE0A4820214038FFF71AFB0848D0
:10B8200040214038CDE90001A0F14801044A21A897
:10B83000209BFFF757FA08B10520D1E70120CFE799
:10B84000387D002008D6070070B5044690F85400F3
:10B85000012570B394F8550028B1012803D00228BF
:10B8600001D003282AD194F86E00032801D01425B2
:10B8700025E0207AE8B1E068342801D011251EE0E7
:10B88000204601F08DFA68B1207898B194F85510EF
:10B890000C4849B1012907D06168C06881420ED8BF
:10B8A00010250CE012250AE061688068814206D20A
:10B8B000F6E703E094F85500012800D00F2528464C
:10B8C00070BD0000047600202DE9F0410446406878
:10B8D00015461E4602680F466A432046FDF77CFF68
:10B8E000206833462A46D0F810C039462046BDE8C5
:10B8F000F041604701600B68114618472DE9F0419F
:10B9000028B1016819B1C969BDE8F04108470D4D7A
:10B910000D480024461B14270DE000BF04EB8400F3
:10B9200005EB8000016829B1C969884710B1012081
:10B93000BDE8F081641CB6FBF7F0A042EED8002011
:10B94000F6E70000385A00204C5A00200448012134
:10B950004174007A08B10020704701207047000050
:10B96000707F0020012801D0032808D1044900225B
:10B9700001284A7400D00020087401F0F7B870471D
:10B98000707F002070B50146022801D0032943D101
:10B99000224C207A00283FD0012831D002282FD114
:10B9A0001F4800230229006802D0032928D119E08A
:10B9B000E360027912B1012A22D10BE0D0E90565DA
:10B9C000721B142A00D314222A4482614569AA42B8
:10B9D0000ED015E00169491C0161426991420FD105
:10B9E000237213E0E268521CE260082A08D9E3607F
:10B9F000237202290AD00D21FEF723FD01F0ACF8D5
:10BA0000607C28B1BDE8704000F092B90021F3E7F6
:10BA1000BDE8704001F0AAB870BD0000707F002042
:10BA2000285A00202DE9F84304461D4616460F46C5
:10BA30000846DDF82080FDF7C9FE3046FDF7C6FE5A
:10BA40002A4639462046FDF7C7FECDF8008020681B
:10BA50002B463246D0F80CC039462046E047BDE8B8
:10BA6000F8830000094902220A60BFF36F8FBFF319
:10BA70004F8F0A1D106006480268002AFCD0002083
:10BA80000860BFF36F8FBFF34F8F704704E501402D
:10BA900000E40140094A01231360BFF36F8FBFF335
:10BAA0004F8F0160064801680029FCD0002010601B
:10BAB000BFF36F8FBFF34F8F7047000004E5014065
:10BAC00000E4014070B50E4C01232360BFF36F8F7B
:10BAD000BFF34F8F00230B4D08E000BF51F82360E8
:10BAE00040F823602E68002EFCD05B1C9342F5D3F7
:10BAF00000202060BFF36F8FBFF34F8F70BD000039
:10BB000004E5014000E4014008B5002242504058DD
:10BB1000009008BD20B1034909680160002070470A
:10BB20000E2070470CDB0700FEB506460D460846A2
:10BB3000FFF7F0FF002844D100240094019401276E
:10BB400006208DF80060ADF8040002948DF80270B4
:10BB5000694620202A6869DF00948DF801708DF80D
:10BB60000240019402948DF80340694640202A68FF
:10BB700069DF00948DF80060F720ADF802000194B1
:10BB80000294694623202A6869DF00940194029494
:10BB90008DF80070694601202A6869DF4FF4B060B3
:10BBA0000090019402946946A1202A6869DF0094FC
:10BBB000019402948DF800406946A0202A6869DF4C
:10BBC0000020FEBD60DF002802D1024A0121117071
:10BBD00070470000335A002030B51548ADF5017D9F
:10BBE0000078002821D04FF4FA7500BFADF800525C
:10BBF00080A9684661DF38B1052816D00DF5017DB2
:10BC0000BDE83040FDF76ABE6C460A497DA800F0E9
:10BC1000BBF806E0D0E90021204690477DA800F05F
:10BC2000CAF87F980028E1D0F4E70DF5017D30BD1A
:10BC3000335A002010DB0700F8B5134C2078C0B150
:10BC40000120A07001F0E0F8112814D0022001F0CA
:10BC5000F3F800258DF800506846FDF7C7FE11DFA8
:10BC6000064625709DF80000FDF7E4FE2EB1304633
:10BC7000F8BD0820F8BD0020F8BDA57001F09CFAC1
:10BC8000032001F0D9F8F6E7305A00207CB5194CB2
:10BC9000207808B108207CBD0120A070002001F0B0
:10BCA000B3F8112819D0002001F0C6F81248002678
:10BCB000006801908DF800606846FDF797FE0F4917
:10BCC00001A810DF05000AD0002020709DF80000B8
:10BCD000FDF7B0FE2DB128467CBD00207CBD0120C3
:10BCE000F3E7A670667001F087FA012001F0A4F86E
:10BCF000F3E70000305A0020A4DA0700D9980700C3
:10BD00000EB50749684600F03FF805E0D0E900109D
:10BD10008847684600F04FF802980028F6D10EBD1B
:10BD2000C0DA07000148007870470000305A002050
:10BD30000548817819B1007818B1FFF77DBF082058
:10BD40007047FFF7A3BF0000305A00201FB56846B8
:10BD50004BDF30B1052814D004B0BDE81040FDF72A
:10BD6000BDBD084901A800F00FF806E0D0E90021A8
:10BD70000098904701A800F01EF803980028E6D02C
:10BD8000F4E71FBD2CDB0700016009684160AFF3D9
:10BD9000008010B5D0E900215368994201D10021FB
:10BDA00004E0D1E90034A34202D01946816010BDFD
:10BDB00008314160F0E7816800290BD00268926881
:10BDC0000A44826041684B689A4203D1083141605D
:10BDD000FFF7DFBF704700002DE9F041044613482C
:10BDE000134BC01A0C21B0FBF1F6A0694FF0FF31E4
:10BDF00010F8022C02B92169002011E000EB400587
:10BE000003EB85052F68974209D14F1C02D06F685C
:10BE10008F4204D194E80F00AD68A84703E0401CAE
:10BE2000B042EBD301202060BDE8F08184DC070044
:10BE300078DC070010B5144612680830202A02D2B8
:10BE400048F2145010BD002201F043F80028F9D147
:10BE500020202060002010BD083001F0C3B8083059
:10BE600001F080B902480068002800D00120704726
:10BE70000004014003490860034801680029FCD020
:10BE80007047000004E5014000E4014030B587B090
:10BE90000C460546182216496846FCF7BCFA217B79
:10BEA00014488DF800100195012906D0022915D0FB
:10BEB000062917D1607B049014E08188C180607BE3
:10BEC0000490617CD4F80E0061F31F600590049823
:10BED000012807D10848FFF71FFB03E0B4F80D1055
:10BEE0008180C1806846FFF773F907B030BD00005C
:10BEF00048D80700D45900202CDC07002DE9F04178
:10BF00000C460546FFF72CFC0826B8B169690320EA
:10BF100041B3154A154B0F0505D0576DD3F808C02E
:10BF20000F4467451ED1B1F5805F01D9042019E0A7
:10BF3000506DD3F808C04718674502D96670BDE850
:10BF4000F0815164D16C10659164106369695A681D
:10BF500001F6FF711044090B0022FFF7BFF800281B
:10BF6000EDD005206070EAE704760020F05900204B
:10BF700010B5044686B00020FFF7C0FC30B1154A6A
:10BF800018212046FDF7ACFC06B010BD182212495E
:10BF90006846FCF740FA1148026D114881688A42F0
:10BFA00010D14068FFF7ECFA8DF80100FEF773FA44
:10BFB0008DF80100D4E90112684690470948FFF75F
:10BFC00097FAE1E701208DF80100D4E901126846F3
:10BFD0009047D9E771BF070008D907000476002011
:10BFE000F059002069C007002DE9F0410E460446D3
:10BFF000FFF7B6FB60B11A4DD5E91401401AA18ACA
:10C000006A6C0844904205D903207070BDE8F08145
:10C010000820FAE7134A286B52688718104A2069EB
:10C020004832FDF7FFFFD4E903318046A28A384643
:10C03000FFF76AF820B1D4E90310BDE8F0410847E2
:10C04000A18A286B08442863A18A286DC5F8488016
:10C0500008442865C6F80880286D7060D6E700009F
:10C0600004760020F059002001490620C9680847DD
:10C07000F0590020BFF34F8F05480168054A01F4CD
:10C08000E06111430160BFF34F8F00BFFDE7000087
:10C090000CED00E00400FA0501460148FEF70CBC77
:10C0A00034DC070030B58A1D8B79083187B0022B4C
:10C0B00033D153888489A3422FD1127A012A2CD1FB
:10C0C000184C0DF1040C3CCC8CE83C000A89ADF80E
:10C0D0000C204A890C3104911249ADF80E208039A8
:10C0E000114C096A0591CDF818D0018A05AA60881B
:10C0F000ADDF18B96846FDF70FFF38B10020ADF885
:10C10000080001A96088B0DF50B106E040F2FD10E0
:10C11000ADF8080001A96088B0DF002007B030BD8D
:10C120000120FBE760D80700D4590020F8B50D4680
:10C1300014460646694600F057FA00280FD0009BC7
:10C14000B3F5803F0AD2981C834207D8A97802220F
:10C15000B2EB911F02D02989814201D20020F8BDA3
:10C160002380A11C3046009A00F074FBF8BD1146F4
:10C1700000F0D6B8114600F0E3B8F8B50C46154605
:10C180000646694600F030FA00280CD0009A501C90
:10C19000904207D3A1780223B3EB911F02D02189EB
:10C1A000814201D20020F8BD2946304600F052FB02
:10C1B000009A0021A954F8BD2DE9FF410C46CE6834
:10C1C00017460546694600F017FB00280ED0E068C8
:10C1D00000280BD0A0783A46C0F30110022831465F
:10C1E000684606D000F0DAF80199696004B0BDE84D
:10C1F000F08100F086F8F7E77CB50D4614466946F5
:10C2000000F08FF9002820D02889082806D00428BB
:10C2100009D002280AD001280CD015E0DDE9000180
:10C22000C4E900010AE00098206006E0009800B22E
:10C23000208002E0009840B22070C117DDE90023A1
:10C2400050405940084301D000207CBD01207CBDF6
:10C250007CB50D461446694600F0A1F9002820D0AF
:10C260002889082807D00021042809D002280AD0EC
:10C2700001280CD014E0DDE90001C4E9000109E067
:10C280000098206006E0009880B2208002E00098CC
:10C29000C0B22070DDE9002350405940084301D06E
:10C2A00000207CBD01207CBD7CB50D46144669464E
:10C2B00000F075F9002821D02989082908D00098B4
:10C2C000C21704290BD002290DD001290ED014E089
:10C2D000DDE90002C4E900020146134609E0C31784
:10C2E0000146206005E001B2218001E041B22170E9
:10C2F000CB1741405340194301D000207CBD0120A1
:10C300007CBD70B50D46064614461146284600F021
:10C310008EFA224629463046BDE8704000F03EB80D
:10C3200038B50C460422694600F094FA002806D07D
:10C330009DF80310009861F31F602060012038BD54
:10C340001CB50C460822694600F084FA002824D067
:10C350009DF801109DF800209DF80230080E42EA79
:10C36000012242EA034240EA13409DF803309DF85F
:10C37000041040EA132008439DF8051042EA0362C6
:10C3800040EA01209DF8061040EA01409DF80710A0
:10C3900040EA0160C4E9002001201CBD2DE9F04FF6
:10C3A00004469DB000200090064601904FF0FF3AF1
:10C3B0000AA800F05DF94FF0010BE94682E012ABEC
:10C3C00005AA06A9204600F0C9F850B10AA80599A7
:10C3D00000F05FF960B10B98807810F0300F53D007
:10C3E00060E09DF84800002870D11DB0BDE8F08FD6
:10C3F0000598B04242D30B9D0AAE0B98807800F0AE
:10C400000F00082812D0304600F05AF90B98A842C5
:10C41000F3D156460599B14230D3D4F8088009913A
:10C420009DF8181008910E990D6820E00B98068869
:10C43000F0E729680F682FB1DDE908322946204668
:10C44000B84711E011948968DDE9087209889142C2
:10C450000CD1294617A8FEF73DF985F80CB017AAAC
:10C4600039461198FDF76BFE0028BED0AD6815B1B6
:10C47000A1684145DDD0A168414523D19DF8181040
:10C48000204600F023FA1BE00C9840280AD200F066
:10C490001F010BFA01F00C994A0959F822300343A5
:10C4A00049F82230E5682DB10AAB9DF818202046E6
:10C4B0000599A8470AAA9DF818102046FDF73FFEE7
:10C4C000002892D0A06800287FF479AFDDE90B0442
:10C4D00085780AA800F0F4F80028F7D115F0300F9D
:10C4E00003D10B98008800B1641CC4B100204946F8
:10C4F00005E000BF51F82020521C0ED1401CB0EBCB
:10C50000541FF7D3600959F8201004F01F00C0F140
:10C5100020022AFA02F0814201D0002065E70120C2
:10C5200063E71CB50C46694600F039F8002814D0C2
:10C53000DDE90002C10709D051084FEA30006FEA77
:10C5400000026FEA0100C4E9002004E051084FEA4C
:10C550003000C4E900014FF001001CBDF8B50746EA
:10C560000020187008700E4610601C46154669467B
:10C57000384600F039F801004FF0010009D0009969
:10C5800059B1C8082860009800F0070030700120F9
:10C59000F8BDB96809B10020F8BD2070FBE72DE9AE
:10C5A000F8430026884681463446354604E0402E4E
:10C5B00002D30020BDE8F8836946484600F076F9CA
:10C5C0000028F7D09DF80070324607F07F00C10FB9
:10C5D000FBF712FF29430443F61D0D463806E6D447
:10C5E000C8E900410120E5E7F8B50E46074669466F
:10C5F00000F05CF900280AD09DF80040200616D50E
:10C60000072504F07F0403E0202D01D30020F8BDAE
:10C610006946384600F04AF90028F8D09DF8001025
:10C6200001F07F00A8400443ED1D0806ECD4012072
:10C630003460F8BD10B559680B4AC968914212D1EF
:10C640000A4AD0E90110D2E90134234301D0002085
:10C6500008E011F8013BA0F101001B06F9D4C2E982
:10C6600001100120907010BD90D60700045A0020E0
:10C67000C26000230160C0E901138B881A44026183
:10C68000B1F906301A4442610888002800D0012020
:10C69000704770B545680E46044660680188B1422F
:10C6A00006D1807800F00F00082801D0012070BD6D
:10C6B000204600F005F86068A842EED1002070BD69
:10C6C00030B541680A885AB101F1100343600A8A03
:10C6D00042B18C780A89C4F30115032D07D00BE011
:10C6E000002030BDC2680168FFF7C2FFF8E79D78FF
:10C6F000C5F30115032D06D00225B5EB141F08D193
:10C700004C89624309E08D8804690022641B04613E
:10C7100003E0B5EB941F00D10422897811F0300FAB
:10C7200002D18168491C81609C88016921441144BF
:10C730000161B3F9062011444161012030BD30B5DB
:10C740004168002487B0897801F00F02082A11D0CF
:10C750008A091ED00222B2EB911F09D10269C1F3EE
:10C7600001110229146001D0032901D1406904801C
:10C7700007B030BD0069056808E02C73294668469B
:10C78000FDF7A8FF6846FFF7DAFFAD68002DF4D18A
:10C79000EEE7C1F30111012912D00229E6D00329E5
:10C7A000E4D04268917801F00F0107290BD0D168DD
:10C7B00081B11289006907B0BDE83040FBF72BBE9C
:10C7C00041690C70EDE70169D06807B0BDE8304001
:10C7D00000F02DB81189006907B0BDE83040FBF7C3
:10C7E00033BE000010B5034B002408C080E81600DB
:10C7F00010BD0000F99F070038B50D460446694694
:10C80000FFF7F2FE00280BD0D4E90002D4E90213AE
:10C81000C5E90002C5E902130098814201D2002057
:10C8200038BDA860A168081AA060012038BD00B515
:10C830000A4687B001466846FFF71AFF002807D06E
:10C840006846FFF77CFF6846FFF73AFF0028F7D1FC
:10C8500007B000BD7FB514460546A9B9124A28683D
:10C86000904208D110E0102269462846FFF7F2FFF7
:10C87000002807D0103C102CF5D8224669462846DF
:10C88000FFF7E8FF04B070BDA868A04201D2002005
:10C89000F8E72B682246284698470028F2D0A86877
:10C8A000001BA8600120EDE7F99F070010B50446C2
:10C8B0008068002809D02368012220469847002874
:10C8C00003D0A068401EA060012010BD38B5002430
:10C8D00039B1012912D0022912D005291DD000201A
:10C8E00038BD0546012269462846FFF7B3FF90B1DF
:10C8F0009DF800000006F5D4012038BD08220DE0A7
:10C9000005466946FFF770FE28B100212846009AC7
:10C91000FFF7A0FF38BD204638BD0422BDE83840EF
:10C920000021FFF797BF00002DE9F04F81462C480A
:10C9300017460E46C5680A4693B001244946284664
:10C94000FDF7CAFDDFF89C80A24670B195F855004E
:10C9500068B100F00101C0F340024B462846CDE922
:10C96000006700F043F8D8B11BE0172419E0CDE9C7
:10C97000006A4B460022294602A8FDF7DFFA4FF075
:10C98000000B68B10FB3412202A91748FBF743FD22
:10C99000C8F820B0C8F82CA06968C8F8081017E0DB
:10C9A00005246FB1012C13D00E482430FEF7BCFAD9
:10C9B000FEF706FDC8F8489013B02046BDE8F08F9A
:10C9C000012C02D0FEF7FCFCF6E7C8F814A0F3E750
:10C9D000002231464846FDF725FBC8E90960E7E734
:10C9E000045A002004760020A57800202DE9F047A5
:10C9F000A4B08946DDE92C5A0446984616464421DF
:10CA000002A8FBF721FD442113A8FBF71DFD4746B3
:10CA1000B9F1000F38D008F50050384A4368A16DCD
:10CA2000934255D14B1EC3F30B03C91A41F6FF7352
:10CA3000D0F808C019448C454AD34FF440514B6894
:10CA400093420DD10A78102A01D9096900E000212A
:10CA50000278102A01D9006900E00020814237D114
:10CA60004046FDF7FBFD00B18EB30121A06DCDE97D
:10CA7000000143460022214602A8FDF75FFA002884
:10CA800027D0A06D07442D1A56B10020CDE90050E3
:10CA90003B464A46214613A8FDF750FA002818D015
:10CAA000BAF1000F28D0164DB9F1000F19D0404649
:10CAB000FDF7D4FD18B105F11800FEF735FA412253
:10CAC00002A91048FBF7A7FC36B1AC2005E0FFE750
:10CAD000002024B0BDE8F087A520E862A06D68635F
:10CAE00001E0AA20E8623EB10648412213A9823043
:10CAF000FBF791FC6068E8600120EAE7DBE5B151F3
:10CB0000047600206478002070B54FF0A044D4F87B
:10CB100010054FF00003C0F380010E484FF00102F2
:10CB200085686E1C0FD08D4212D04168032909D947
:10CB3000027033DF4FF48000C4F80C05FDF782FD6E
:10CB40000028FBD170BD0029FCD0C0E9013270BDC6
:10CB5000436070BD68590020034802490068FDF732
:10CB600057BE00002C5A002064D907002DE9F0417F
:10CB7000224C0025224E207A012730B92148311D50
:10CB80000068FDF750FE306038B102202072316835
:10CB9000087928B101281CD114E06560BDE8F08156
:10CBA000D1E90503C01A142800D31420B7EB900F65
:10CBB00001D2820800E001220869C96818441944BA
:10CBC00029DF03E0D1E90301084428DF58B1112827
:10CBD00012D003213068FDF734FC25726560BDE892
:10CBE000F041FFF7B9BF207C0028D7D1BDE8F04164
:10CBF00000210220FEF7C6BE2772CFE7707F00201B
:10CC0000285A002064D9070010B5074C201DFDF7F5
:10CC100023FE002806D1607C002803D1BDE8104027
:10CC2000FFF7A4BF10BD0000707F002010B51046B4
:10CC30001A46FBF7F0FB002010BD10B510461A464F
:10CC4000FBF7E9FB002010BD2DE9F0411E681C46F2
:10CC50001546074621B1012918D0052923D119E02D
:10CC600000202060401C2060B0421CD801222946D0
:10CC70003846FFF7EFFD002806D015F8010B000637
:10CC800001D52068EEE70120BDE8F08108200246CA
:10CC9000186002E004200246186029463846BDE8C4
:10CCA000F041FFF7D7BD0020EEE770B516460A4603
:10CCB0000446C11C104600F0B1FB05466119304620
:10CCC000C91C00F0ABFB284470BD000003B5094A45
:10CCD00085B0D2E91612CDE9001207498989ADF86D
:10CCE000001006A9CDE90210044869464088AEDF6D
:10CCF00007B000BDE0D70700A85E0020D45900208F
:10CD0000084670470846704770B5FEF701FC114AA7
:10CD1000114E136B546B916CE21A551EC5F30B0543
:10CD2000521B42F2040518446D5802F6FF72B542D8
:10CD300001D0032070BD1944A34201D1002070BD71
:10CD40000823FDF701FC0028F9D1BDE87040FEF78B
:10CD5000CFBB000004760020DBE5B151F0B50546FD
:10CD6000002003464FF440540C4E4FF6FE7712E07D
:10CD7000D4F804C0B44505D155F823C0B4F80CE08C
:10CD8000F44504D02AB155F823C0BC4501D1012097
:10CD9000F0BD5B1CDBB28B42EAD3F0BDDBE5B151E9
:10CDA00010B54FF44051174B4A68018A9A4221D17D
:10CDB00071B100F11403426990F8550062B1042882
:10CDC00008D00022BDE81040C9B21846FFF7C6BF20
:10CDD000002010BD0122F5E710B1012808D1F7E7C6
:10CDE000012905D9C9B200221846FFF7B7FFEFE7BE
:10CDF000012010BD11B141690029E9D10078002856
:10CE0000F6D110BDDBE5B1513EB50446094968468F
:10CE1000FEF7BAFF08E000BFD0E9002120469047A6
:10CE200030B16846FEF7C7FF02980028F4D13EBD36
:10CE300011203EBDA8DA07003EB504460849684601
:10CE4000FEF7A2FF07E000BFD0E90021204690478F
:10CE50006846FEF7B0FF02980028F5D13EBD0000FD
:10CE6000B4DA070002460348014B006800F009B835
:10CE700084720020005A002000225821001DFDF776
:10CE8000D1B82DE9F04114464FF460751E460F46A7
:10CE900080462A46FBF7E3FA30B1002201214046E2
:10CEA000FEF71CF998B905E00CB10020A04700205E
:10CEB000BDE8F0812A4639463046FBF7ACFA2346F6
:10CEC0002A4631464046FEF71FF90028F0D00320DD
:10CED000EEE770B516460D46040007D035B1206C5C
:10CEE000802200213828225403D307E00E2070BD91
:10CEF0002154401C3828FBD30BE02154401C40280F
:10CF0000FBD32146084600F097F838212046FBF76E
:10CF10009BFA216CD4E912304A0FC90038345918F1
:10CF20005041C4E90410227CE2710A0A42EA00621C
:10CF3000A2710A0C42EA00426271020242EA1160E6
:10CF400020716069E070010AA170010C6170000E2F
:10CF500004F838092146084600F06EF84FF0000248
:10CF6000EEB1E06ED100C840A854A36ECB40A81823
:10CF70000371636ECB400372236ECB400373E36D8A
:10CF8000CB400374A36DCB400375636DCB40037638
:10CF9000236DCB40521C0377042AE2D31FE01823F1
:10CFA0005042216D03EBC000C140A954666DC640DC
:10CFB000A9180E71A66DC6400E72E66DC6400E73BE
:10CFC000266EC6400E74666EC6400E75A66EC640CE
:10CFD0000E76E66EC640521C0E77042AE0D300207F
:10CFE00070BD0000A8B100210164C0E912110A4916
:10CFF00001650A4941650A4981650A49C1650A49CD
:10D0000001660A4941660A4981660A49C1660020EB
:10D0100070470E207047000067E6096A85AE67BB5F
:10D0200072F36E3C3AF54FA57F520E518C68059B0A
:10D03000ABD9831F19CDE05B2DE9F04FC8B00022BA
:10D0400013466F46CC181B1D2568E4782DBA25F0D1
:10D05000FF05254347F82250521C102AF2D31BE04B
:10D0600007EB820151F8083C4FEA734484EAF34429
:10D0700084EA932451F83C3C4FEAF31585EAB34522
:10D0800085EAD303234451F81C4C51F8401C214439
:10D09000194447F82210521C402AE1D3036D4793EC
:10D0A000416D4691846D4594C26D44929246026EE4
:10D0B0004392456E4295A946856E4195C66E40964F
:10D0C000B34600264FEAB21787EAF22787EA726C66
:10D0D00002EA090725EA020887EA0807BC44204F4C
:10D0E00057F8268008EB0B07BC445DF82670AB466A
:10D0F0000CEB070E4FEAB30787EA733787EAB35C96
:10D1000081EA04074D4601EA040891461F400AEBF4
:10D110000E02A24687EA08070C46BC441946761C54
:10D120000EEB0C03402ECDD3479E33440365469B44
:10D130001944416545992144816544995144C1652B
:10D1400043991144016642994944416641992944F1
:10D15000816640995944C16648B0BDE8F08F00002F
:10D1600094D907002DE9F04116460F46040004D07B
:10D1700006B317B10025A8461AE00E20BDE8F081DD
:10D18000216C785D6054206C401C206440280ED1D6
:10D1900021460846FFF750FFD4E912014FF4007210
:10D1A000801841F10001C4F84080C4E912016D1CEF
:10D1B000B542E5D30020E1E710B51620FCF7F4FAFC
:10D1C00048B10C4882684FF4800152B1016821F4E3
:10D1D0008001016010BDBDE8104042F20100FCF783
:10D1E0007DBB4FF0E020C0F88011BFF34F8FBFF33D
:10D1F0006F8F10BD787D002010B51620FCF7D4FA93
:10D20000A0B1114890F800044009082811D201216A
:10D21000814011F0EC0F0CD00C4882684FF4800173
:10D220006AB1016841F48001016010BD42F2010061
:10D2300001E042F20200BDE81040FCF74FBB4FF0A6
:10D24000E020C0F8001110BD16E000E0787D00205D
:10D250007FB52A4800F15C01826B6846FFF7C2FA8D
:10D26000274E9DE8070006F11C03274C83E80700C2
:10D2700019462448C8600020A0706060A0604FF488
:10D280004771A6F54070FBF7DFF8A6F540721F491D
:10D2900002F54770FFF735F800282BD0A07858B377
:10D2A000A6F5407090F86C11002901781CD019BBCC
:10D2B00090F8720100B3D4E90112A6F5C67568466C
:10D2C000FFF790FA9DE80F001C3686E80F004FF438
:10D2D000B2712846FBF7B8F82A460D493046FFF7E9
:10D2E00010F8002806D003E031B1807920B1094D53
:10D2F0000120E56004B070BD0020FBE7047600204B
:10D30000847C002035C60700045A0020B0D70700EF
:10D3100090D607008C79002070B503466FF07F40EF
:10D32000814200D20846124DD5F804250244081A5D
:10D33000411E22F07F425860952902D29630963ADB
:10D3400058601C7B05EB8400C0F8402509494FF468
:10D35000F86088474FF4A07000EB84012846FEF780
:10D36000D3FB4FF48030A040C5F8040370BD00002B
:10D370000040024001D6070070B5174E30780028F3
:10D3800029D1164800680125C0F3004008B91448A7
:10D390000560144C4FF480712046FEF7B5FB4FF446
:10D3A000A0712046FEF7B0FB4FF4A2712046FEF7B5
:10D3B000ABFB0D49A02081F800040B491020203957
:10D3C000C1F800010020C4F80805A560256002200E
:10D3D000C4F80403357070BD88590020180400405B
:10D3E000080000400040024024E000E070B515460F
:10D3F0000E460446FFF7C0FF314620462560BDE8D3
:10D400007040FFF789BF0000017B4FF480308840F7
:10D410000149C1F808037047004002400870020A41
:10D420004A70020C8A70000EC87004207047000019
:10D4300010B50248FDF70DFA002010BD245A002057
:10D4400010B514210448FAF7FFFF04480068FDF7FF
:10D45000B9F9002010BD0000707F002064D90700DA
:10D4600030B50F2490F8553000220BB1042B03D1B6
:10D4700090F86450012D06D0DD0707D090F8565083
:10D48000012D02D002E0826E0DE0826D9B070AD56D
:10D4900090F85C30012B06D1064B006EC3F5FC23DF
:10D4A000984205D802440AB101240A60204630BDE2
:10D4B0000424FBE70080070030B10068054988427A
:10D4C00005D048F20250704748F2015070470020E2
:10D4D000704700006E52464870B5FEF7C3FC002846
:10D4E00011D00020084A094B094C0121166801FAA5
:10D4F00000F52E4203D004EB8005C5F80036401C31
:10D50000C0B20728F2D370BD080501403546526EFF
:10D5100000000140FFF7E0BF002070470020704787
:10D520002DE9FC4180461C4617460E460C48089DD6
:10D53000FDF792F910B11120BDE8FC81A20839462F
:10D540003046FEF7BFFA0648FDF783F933463A4600
:10D5500001214046CDE90045FCF758FF0020EBE7EC
:10D56000245A00202DE9F84F114D884681461E4669
:10D5700017466946DDF828A02868FDF73EF9040043
:10D5800013D01C21FAF760FF00202071C4F800902E
:10D59000C4E90486C4E902A769462868FDF74EF984
:10D5A000FFF732FB0020BDE8F88F0420FBE7000006
:10D5B00064D907000BCA0F264381B712A2B273D7F2
:10D5C000C73ECA51A5A23E0D69CFA198580D8774D8
:10D5D00037F49E664DD656AB708BB33C07E1744270
:10D5E000FC1A654C995BEBD3EC951F86571B910198
:10D5F000E69C1F2900000000000000000000000061
:10D600000338FDD87047000059BE07005FBE070011
:10D6100035BE070020000000780000000000000078
:10D6200048002800002040009D87070000000000FF
:10D6300001000100000000000100000000000000E7
:10D6400002000500010000002200000000000000B0
:10D6500000000000000000000000000000000000CA
:10D6600001000100000000000100000000000000B7
:10D670000200050001000000420000000000000060
:10D68000000000000000000000000000000000009A
:10D69000010011000400FCFF040000000000000075
:10D6A000020011000400FCFF040000000000000064
:10D6B000030021000400FCFF040010000000000033
:10D6C000040011000100FFFF010000000000000045
:10D6D000050011000200FEFF040000000000000031
:10D6E000060011000400FCFF040000000000000020
:10D6F000070011000400FCFF04000000000000000F
:10D70000080017000200FEFF2400000030D60700CA
:10D71000090010000100FFFF010000002CD60700E7
:10D720000A0027000200FEFF4400030060D6070045
:10D7300000000000000000000000000000000000E9
:10D74000010011000100FFFF0100000000000000C7
:10D75000020017000200FEFF6401000090D60700DF
:10D7600000000000000000000000000000000000B9
:10D7700001000700000000006801000040D707001A
:10D780000200010000000000010000000000000095
:10D79000030005000100000042000000000000003E
:10D7A0000000000000000000000000000000000079
:10D7B000010017000400FCFF6801000040D70700CB
:10D7C000020017000400FCFFAC01000070D7070046
:10D7D0000000000000000000000000000000000049
:10D7E00000110300001113000200000001000000FE
:10D7F0000338FDD870470C000C00000058020000F0
:10D800000200000000000000020000000000000014
:10D810006C5E002009000000000000000000000015
:10D8200001000000000000002800000000000000CF
:10D8300000000000000100000000010000000000E6
:10D8400000000000000000000000000000000000D8
:10D85000919B070000000000000000000000000095
:10D8600002000000000001000000000000000000B5
:10D870000800000000000000919B070099C007000D
:10D880000000000000000000040000000000000094
:10D890000000000000000000000000000000000088
:10D8A0000000000000000000000000000000000078
:10D8B000F40000000000000018000000000000005C
:10D8C0000000000000000000000000000000000058
:10D8D0000000000000000000000000000000000048
:10D8E000170000000000000050EADA308883B89F7B
:10D8F000604F15F30000C98E020000000000000018
:10D900000000000000000000040000000000000013
:10D910000000000000000000000000000000000007
:10D9200000010000000000000000000000000000F6
:10D9300000000000000000000010000004000000D3
:10D9400001000000E1A5070031D407002DCC07003D
:10D9500021D5070079A3070001CD070019D50700DD
:10D9600025A60700847D00200010000004000000B0
:10D9700001000000EDA5070041D407003BCC0700E3
:10D9800065D50700C1A3070005CD07001DD5070019
:10D9900035A60700982F8A4291443771CFFBC0B556
:10D9A000A5DBB5E95BC25639F111F159A4823F926A
:10D9B000D55E1CAB98AA07D8015B8312BE853124C3
:10D9C000C37D0C55745DBE72FEB1DE80A706DC9B84
:10D9D00074F19BC1C1699BE48647BEEFC69DC10F30
:10D9E000CCA10C246F2CE92DAA84744ADCA9B05C6C
:10D9F000DA88F97652513E986DC631A8C82703B02F
:10DA0000C77F59BFF30BE0C64791A7D55163CA063C
:10DA100067292914850AB72738211B2EFC6D2C4D48
:10DA2000130D385354730A65BB0A6A762EC9C28136
:10DA3000852C7292A1E8BFA24B661AA8708B4BC2CC
:10DA4000A3516CC719E892D1240699D685350EF4F6
:10DA500070A06A1016C1A419086C371E4C774827AD
:10DA6000B5BCB034B30C1C394AAAD84E4FCA9C5B23
:10DA7000F36F2E68EE828F746F63A5781478C88474
:10DA80000802C78CFAFFBE90EB6C50A4F7A3F9BE56
:10DA9000F27871C650DC070058DC07000000000077
:10DAA000000000000010020194DA0700A4DA070069
:10DAB00008000000CCDA0700DCDA070008000000EC
:10DAC000DCDA0700ECDA07000800000070DC070071
:10DAD00078DC0700000000000000000060DC0700A8
