:020000040002F8
:10600000A09B0020DD630200E5630200E76302005D
:10601000E9630200EB630200ED6302000000000090
:10602000000000000000000000000000EF6302001C
:10603000F163020000000000F3630200F563020058
:106040008DA7020029A8020031AF0200F763020009
:10605000F7630200F76302001567020095A80200CB
:10606000F763020005AD0200F7630200F763020068
:10607000F7630200F7630200F7630200F7630200B0
:10608000F763020085A8020015A80200116702004C
:10609000DDA90200F763020035AA0200F7630200DF
:1060A000F7630200F763020055AD0200F7630200D8
:1060B000E5A70200F76302000000000000000000F6
:1060C000F7630200F5A7020005A80200F7630200CB
:1060D000F7630200F7630200F763020000000000AC
:1060E00000000000000000000000000000000000B0
:1060F00000000000000000000000000000000000A0
:10610000000000000000000000000000000000008F
:10611000000000000000000000000000000000007F
:10612000000000000000000000000000000000006F
:10613000000000000000000000000000000000005F
:10614000000000000000000000000000000000004F
:10615000000000000000000000000000000000003F
:10616000000000000000000000000000000000002F
:10617000000000000000000000000000000000001F
:10618000000000000000000000000000000000000F
:1061900000000000000000000000000000000000FF
:1061A00000000000000000000000000000000000EF
:1061B00000000000000000000000000000000000DF
:1061C00000000000000000000000000000000000CF
:1061D00000000000000000000000000000000000BF
:1061E00000000000000000000000000000000000AF
:1061F000000000000000000000000000000000009F
:10620000DFF80CD000F0BCF900480047D1E70200ED
:10621000A09B002000B583B002900091019244F24F
:10622000010071466A4605F029F903B000BD00007F
:1062300030B450E8012F93B2C48923448489A34227
:1062400028BF1B1B0489A34202BFBFF32F8F00206E
:1062500007E0C3EA020340E80134002CE9D14FF023
:1062600001000A6030BC704750E8012FC2EA0242C8
:1062700040E801210029F7D1704730B450E8022FDF
:106280001FFAA2F3C488A34202BFBFF32F8F0020DE
:106290000DE0C48923448489A34228BF1B1BC2EAA2
:1062A000034340E80234002CE8D14FF001000A60BB
:1062B00030BC704750E8022FC2EA224240E8022177
:1062C0000029F7D17047034653E8022FD988B2EB73
:1062D000324F4FF0000017BF92B241EA014142EA4B
:1062E000014104E05A68B2EB324F08BF012043E895
:1062F0000212002AE8D1704730B4044654E8000F77
:106300000D4644E80053002BF8D1156030BC7047AF
:1063100030B4044654E8000F40EA010544E8005355
:10632000002BF7D1156030BC704730B4044654E8F8
:10633000000F00EA010544E80053002BF7D1156077
:1063400030BC704730B4044654E8000F80EA0105C1
:1063500044E80053002BF7D1156030BC704730B4CF
:10636000044654E8000F00EB010544E80053002BFD
:10637000F7D1156030BC704730B4044654E8000FC4
:10638000A0EB010544E80053002BF7D1156030BCA9
:10639000704770B404464FF0000054E8006F0D6879
:1063A000AE4207BF44E80023012044E800630E60CA
:1063B000002B1CBF0020F0E770BC704730B40446CF
:1063C00054E8000F88422CBF451A054644E80053A4
:1063D000002BF5D1156030BC70470000064880479F
:1063E00006480047FEE7FEE7FEE7FEE7FEE7FEE7BA
:1063F000FEE7FEE7FEE7FEE739AA020001620200BF
:10640000202A04DB203A21FA02F00021704721FA09
:1064100002F3D040C2F12002914008431946704770
:1064200040EA01039B0703D009E008C9121F08C016
:10643000042AFAD203E011F8013B00F8013B521E96
:10644000F9D27047D2B201E000F8012B491EFBD20D
:1064500070470022F6E710B513460A46044619466F
:10646000FFF7F0FF204610BD421C10F8011B002969
:10647000FBD1801A704710B5002200E0521C835CEB
:106480008C5CA34201D1002BF8D1D8B2E1B2401A02
:1064900010BD30B504460020034600E05B1C93426B
:1064A00003D2E05CCD5C401BF8D030BD30B5054672
:1064B0000020034600E05B1C934205D2EC5CC85C04
:1064C000201A01D1002CF6D130BD70B5064604F07B
:1064D00091FD046805460A220021304600F018F8B4
:1064E0002C6070BD30B50B460146002020220124EF
:1064F00009E021FA02F59D4205D303FA02F5491B92
:1065000004FA02F52844151EA2F10102F1DC30BDA7
:106510002DE9F04791460F4680460446002614F8C0
:10652000015B2DB100F03EF80068405DC007F6D178
:106530002B2D02D02D2D18D0641E4A4639462046F8
:1065400000F034F827B13968A14201D1C7F80080C2
:1065500071054FF002040BD54042002803DD04F022
:1065600049FD0460A007BDE8F08746F48066E4E7D3
:106570000028F8DA04F03EFD04606FF00040F2E716
:10658000064C074D06E0E06840F0010394E8070080
:1065900098471034AC42F6D3FFF736FEA0620300F2
:1065A000C062030000487047546203002DE9F05FA9
:1065B00082460078002715468B460AF10104B94649
:1065C000302801D09DB113E014F8010B0127782881
:1065D00003D0582801D045B10AE00DB1102D07D1E4
:1065E0000027102514F8010B02E0082500E00A2519
:1065F0000026B0460EE005FB080005FB06F101276A
:1066000001EB10461FFA80F8B6F5803F00D3B9467B
:1066100014F8010B294600F018F80028EBDABBF15A
:10662000000F05D00FB1641E00E05446CBF80040C7
:10663000B9F1000F06D004F0DDFC02210160C81E94
:10664000BDE8F09F48EA0640FAE73A2800D2303821
:1066500020F02002412A01D3A2F13700884201D361
:106660004FF0FF30704770B58C1810F8015B15F0D3
:10667000070301D110F8013B2A1106D110F8012BB4
:1066800003E010F8016B01F8016B5B1EF9D12B07D9
:1066900005D40023521E0DD401F8013BFAE710F88F
:1066A000013BCB1A921C03E013F8015B01F8015B7C
:1066B000521EF9D5A142D8D3002070BD30B50024B8
:1066C0001FE000BF51F82450854219D2B4B101EB4C
:1066D000840351F8241053F8045C02EB840352F84D
:1066E000242053F8043C401A9C1A6043691AB0FBFA
:1066F000F1F01044984200D9184630BD106830BD02
:10670000641C9C42DED302EB830050F8040C30BDC5
:1067100001F0C2B82DE9F8430025DFF894804FF46A
:10672000807601242F460095304609F0FBFA38B1F7
:10673000D8F80403204203D0304609F0E9FA254393
:10674000361D64007F1CB6B2082FEDD34FF4BE7423
:10675000204609F0E7FA48B1204609F0D9FA45F099
:1067600000456A460121002009F0ACFA15F0FF0F40
:1067700016D0012600242E420ED008EB8401D1F859
:106780001005D1F81015C0F304200A4AC1F30141E5
:1067900052F8242002B190477600641C082CEAD3FA
:1067A000002D02DA68460AF079FEBDE8F8830000A1
:1067B00000600040D47C002008480068401E40F083
:1067C0000101074801610749096B012903D04FF016
:1067D000FF31416170470021FBE70000D42B00200E
:1067E000CC310020D075002030B589B0002852D0BF
:1067F0002E49012008602E4D0024281D07C88DE871
:1068000007008DF802408DF80340694604200AF025
:1068100019F818B127A24C21FFF7FCFC05F1100074
:1068200003AB07C883E807008DF80E408DF80F40D2
:1068300003A905200AF006F818B11EA25221FFF79D
:10684000E9FC1C3506AB95E8070083E80700042047
:106850008DF81A008DF81B4006A9072009F0F2FFF9
:1068600018B114A25921FFF7D5FC03211B4809F0E8
:1068700097FF18B10FA25C21FFF7CCFC174803214A
:10688000801D09F08DFF002803D00AA25D21FFF7CB
:10689000C1FC09B030BD124905480AF029F80028AA
:1068A000A9D004A24321FFF7B5FCA4E7007500407E
:1068B000D82F03002E2E5C2E2E5C2E2E5C2E2E5CEE
:1068C0002E2E5C2E2E5C2E2E5C2E2E5C2E2E5C2E02
:1068D0002E5C4C4C5F4144432E6300001234002078
:1068E0005D1D03000AF04EB8024890F8540074DFB2
:1068F00070470000147700201FB50020019002901F
:10690000039016480090164A6946164808F0C4FBE2
:1069100018B1154AE821FFF77DFC14A200211148A7
:1069200008F03AFB18B1104AE921FFF773FC002286
:106930001F210C4808F08DFB18B10B4AEB21FFF723
:1069400069FC084808F0CCFC002806D004B0064AD0
:10695000BDE81040EF21FFF75DBC1FBDBA3100203C
:10696000D51D0300404A0020586203004C4D4D00E5
:1069700010B5044692B03C211748FFF76AFD3C2150
:106980006846FFF766FD02228DF8002001238DF88E
:106990000230062011498DF8030004200A704B7064
:1069A0008B70ADF840000C481191ADF83C400FA938
:1069B00041620A4902820831416102466946A0F2F9
:1069C000344005F02FFB002804D005A24FF43B71A2
:1069D000FFF720FC12B010BD487B0020543200208D
:1069E0002E2E5C2E2E5C2E2E5C6D61696E2E630049
:1069F00013B5044901AA4B88014602482C3006F021
:106A0000ADFA1CBD383200202DE9F0414A4C207807
:106A1000002827D000F0BEF8411C23D0E168491CB3
:106A200004D1E060642801D96421E1602378002664
:106A30000121DFF808C1424A424D072B12D2DFE89C
:106A400003F01104203359465900936B0427012B9E
:106A50000AD00223352801D805280ED923702868CA
:106A6000C4E90106BDE8F08100220521104601F0CD
:106A7000B1F827702868606012E09163CCF80010CC
:106A8000F2E761682868814201D8411A01E0C943F0
:106A9000014440F6CA029142E4D90321606014E047
:106AA000401E2860A660DDE761682868814201D841
:106AB000411A01E0C94301448C29D3D96060A1681F
:106AC000491CA1600629CDD305212170E8E70128E2
:106AD000C8D891630620CCF8001020702868606048
:106AE000401E2860A66049DF00F0DAF81648C6703C
:106AF0008670B7E761682868814201D8411A01E0D1
:106B0000C94301448C29ADD96060207AC0074FF099
:106B100000000ED003F0DCFBA068401CA0600A2837
:106B2000A0D3002003F0D4FB2670BDE8F04101F0B3
:106B3000FBB903F0FDFBEFE79C2D0020283200207D
:106B4000D0750020D42B00201432002001490120F0
:106B5000087070479C2D0020002301220421184654
:106B600000F0E6BF00F092B810B5002302221E210B
:106B7000184601F009F801221E21002001F02AF830
:106B8000034C204604F0FCF84FF0FF30206110BDAC
:106B9000B449002030B5174889B04FF0FF3104697F
:106BA000621C05D102681AB3C368B3FBF2F4046136
:106BB000601C1DD0FFF7D6FF0F4948B12DC98DE8E5
:106BC0002D000FC904AD85E80F00042304AA09E0D5
:106BD000203103AD0DC98DE80D0007C985E8070018
:106BE000032303AA69462046FFF768FD09B030BDBC
:106BF0000846FBE7B44900207C30030070B5FFF77E
:106C0000B1FF1D4D1D49044628680968884201D816
:106C1000081A01E0C0430844322802D92960FFF76E
:106C200061FE174869680268914224D00068686074
:106C30001448006814494A68824200D248608A6851
:106C4000824200D98860CA680244CA600868431C4E
:106C50000B60B0F5166F0ED3B2FBF3F00A6914B1F6
:106C6000824202D302E0824200D90861BDE870404E
:106C7000054804F085B870BD942D0020D42B002069
:106C8000E42B0020D82B0020B449002010B50421AB
:106C9000002000F06FFF08B1002010BD012010BDE2
:106CA00010B5002001F0D6FE01490020886210BD19
:106CB000CC310020104810B5807838B1012801D0BF
:106CC00002280FD1BDE8104000F01CB80B480A4C58
:106CD000406B483C00284FF0000004D001F0BAFEA1
:106CE0000020A06210BD01F0B5FE05480068401EFE
:106CF00040F00100F5E7000014320020D0750020BC
:106D0000D42B002070B51448144C406B50B10025B2
:106D1000012811D0022813D0032819D0002001F037
:106D200099FE13E0002001F095FE0D480068401E1A
:106D300040F00100A06270BD7D2140F2771202E0B8
:106D40007D2140F25372002001F01AFEA56270BD51
:106D50007D2140F62372F6E7D0750020CC3100206B
:106D6000D42B0020024800210160416070470000E0
:106D7000CC2B0020014AC2E900017047CC2B002037
:106D80001CB562494FF0010B002581F800B02E467A
:106D90004FF4E1675A461B21284600F01BFF0122F1
:106DA0000521002000F016FF01F096FD584890F8EC
:106DB000540074DF57481321408876DF4FF4A85100
:106DC0005548FFF746FB162000F05CFB5348DFF800
:106DD00050A18146D0F80040FFF710FF01F086FD7A
:106DE00016B1012E1BD10AE0684601F047FDB0B193
:106DF0000098A0B90198012811D101260FE068463A
:106E000001F03CFD58B1009848B9019838B9002606
:106E100015B1012D02D002E0012500E00025D9F8CE
:106E20000000844201D8011B01E0E1430144B94262
:106E300068D3044675BB3B4800684FF46161484322
:106E4000C11700EB91508112374800684FF461621E
:106E50005043C21700EB92508012B1F57A7F04D9EB
:106E6000642802D24FF0FF0814E0B8F1FF0F06D0FB
:106E7000FFF790FE1421B0FBF1F000F0FF082B4863
:106E8000816B39B1B8F1000F04D000218163CAF8D9
:106E900000B003E0DAF80000012804D100F0A2FD00
:106EA0000020CAF800004FF4A8512148FFF7D1FA9A
:106EB000FDB9B8F1050F01D31C2018E0B8F1040F9B
:106EC0000CD0B8F1030F0BD0B8F1020F0AD0B8F113
:106ED000010F09D0B8F1000F08D00AE01B2006E02E
:106EE0001A2004E0192002E0182000E0172000F02A
:106EF000C9FAFFF7CBFE28B9CAF800B003F0FEFAD2
:106F000003F03EFB02F090F866E70000CC31002071
:106F10001477002038320020BC4B0020D42B0020F6
:106F200028320020DC2B0020E02B0020D075002030
:106F3000BC60002001480068704700000415014053
:106F400007480068074906C9884201D3401A03E090
:106F50006FF07F43591A0844104420F07F40704777
:106F600004150140CC2B002002490A680249C1E9FE
:106F70000020704704150140CC2B00202DE9F0477C
:106F800017460C465FEA000955D0002C53D0302C30
:106F900051DC002523E000BF05EB4500C0EB4510A8
:106FA00007EB8006301D7021FFF753FA0020C5EB78
:106FB000C501224B09EB81028446115C0E2906D2E1
:106FC00006EB800853F82110C8F8041003E006EB24
:106FD0008001C1F804C0401C1C28EEDB6D1CA542DA
:106FE000DADB302090FBF4F0C3B2012B23D901226D
:106FF0001FE000211AE001EB4105C5EB411507EB4D
:10700000850604FB021505EB450CCCEB451500206D
:1070100007EB850506EB800C05EB8008DCF804C067
:10702000401CC8F804C01C28F4DB491CA142E2DB68
:10703000521C9A42DDDBBDE8F0870000785F030058
:107040002DE9F04791460E4607002AD0002E28D0A1
:10705000302E26DC002422E004EB4400C0EB441177
:1070600009EB8105281D7021FFF7F3F90020C4EB1F
:10707000C4010D4B07EB81028446115C112906D235
:1070800005EB800853F82110C8F8041003E005EB65
:107090008001C1F804C0401C1C28EEDB641CB44213
:1070A000DADBBDE8F0870000B05F03002DE9FF5F89
:1070B00091460E9F0C465FEA000A45D0002C43D053
:1070C000002527E005EB4500C0EB451109EB8106E3
:1070D000301D7021FFF7BDF90020C5EBC501264A20
:1070E0000AEB81038346195CA1F1010CBCF10D0F81
:1070F00008D206EB800852F821C0C8F804C052F844
:10710000218003E006EB800CCCF804B0401C1C2866
:10711000E9DB6D1CA542D5DB0398012812D0C7F12D
:107120001C0125E004EB4401C1EB4411002009EBF4
:10713000810104E001EB8003401CC3F80480B842E5
:10714000F8D3641C302CEDDBBDE8FF9F04EB440258
:10715000C2EB44121B2009EB820204E002EB800523
:10716000401EC5F80480814201D80028F6DA641C6C
:10717000302CEBDBE8E70000785F0300F0B50E4D44
:107180000024264648F20E0148F2060205F1540793
:1071900007202B78C34013F0010F01D00B4600E00D
:1071A000134627F83430401E04F10104F1D56D1C5C
:1071B000761C542EECDBF0BD44340020F0B50F4CAF
:1071C0000026354648F20E0148F2060204F1540743
:1071D00007202378C34013F0010F01D00B4600E0D5
:1071E000134607EBC60C401EACF8023006F1010650
:1071F000EFD5641C6D1C542DEADBF0BD4434002037
:10720000084810B5417851B100214170012300F1C7
:107210001C011A46143009F06BFA002010BD112031
:1072200010BD0000E82B002070B50E4B0E4AC0EBDD
:10723000C000002103EB001303EB810001EB4105CB
:107240008068AC18060C6670060A491C5655C9B20F
:10725000A0701C29F0D3FFF791FFBDE8704000F04B
:1072600041B80000B44B00204434002030B5034640
:1072700000201B2B00D9072001B1072003EB43049A
:10728000054B01EB410123445C18150C6570150A90
:107290005D54A27030BD00004434002070B50F4B27
:1072A0000F4AC0EBC000002103EB001303EB810089
:1072B00000F5805001EB4105D0F80805AC18060C2C
:1072C0006670060A491C5655C9B2A0701C29EDD338
:1072D000FFF774FFBDE8704000F004B8B44B002025
:1072E0004434002010B50024002211462046FFF748
:1072F000BDFF002803D1641CE4B21C2CF4D310BDE4
:107300002DE9F041ADF5B05D044601AD4FF4AE514D
:107310002846FFF79EF84E484FF4A85631460746D8
:10732000FFF797F822464B48494C0F210C23006881
:10733000083C1E2A13D2DFE802F00F0F0F161A1EA8
:1073400025122A122F35565D646B70757982127D75
:107350001212121212121287012000F09FF90DF57D
:10736000B05DBDE8F081012001F08AFCF7E72180E3
:107370002A46394803E0102121802A463748FFF782
:10738000FDFD17E00121002001F080FBE7E701216E
:10739000334801F0F9FBE2E72180009001232A46FF
:1073A000304805E013212180009001232A462E4811
:1073B000FFF77CFE002000EB4002C2EB401205EB21
:1073C0008203C0EBC002002104EB021203EB810632
:1073D00002EB81077668491CBE601C29F6DB401C65
:1073E0003028E8DBBBE715212180009001232A46E5
:1073F0001E48DDE719212180009001232A461C4800
:10740000D6E73020208031463846FFF722F8A6E73D
:1074100023802A4619461748B1E723802A46194691
:107420001548ACE7012001F00BFD98E7012001F0C1
:107430006BFD94E71C2121802A4610489FE701211B
:1074400021802A460E489AE701F0CEFC87E700002B
:10745000BC4B00201032002024580300192E0020BD
:1074600005060C0034460300D8470300EC4903002E
:10747000384C0300C8300300683303001440030095
:10748000083603002DE9F047ADF5B05D074601ADC4
:107490004FF4AE512846FEF7DCFF6D484FF4A85973
:1074A00049468246FEF7D5FF6A480F210C23302655
:1074B0000068694C4FF0100C4FF001081E2F14D2D9
:1074C000DFE807F00F0F0F171C2028132F13353B91
:1074D000454C535B60656972786D7EA0A6ACB1B710
:1074E000BCC26680022000F0D9F80DF5B05DBDE8A1
:1074F000F0876680022001F0C3FBF6E761802A4630
:10750000564804E06146A4F802C02A465448FFF7F2
:1075100035FD5BE0A4F802C00221002001F0B6FABC
:10752000E3E702214FF4302001F02EFBDDE761801C
:10753000009002232A464B4805E013216180009009
:1075400002232A464848FFF7B1FD66803EE0152138
:107550006180009002232A464448F4E719216180A3
:10756000009002232A464248EDE749465046FEF77E
:1075700070FF01F0E1FB6080B7E7194663802A469F
:107580003C48C4E7194663802A463B48BFE70220CF
:1075900001F056FCA9E7022001F0B6FCA5E71C218A
:1075A00061802A463548B2E74146A4F802802A465F
:1075B0003348ACE70221324861802A461C30A6E7F6
:1075C000252161802A462F48FFF73AFD002101EB73
:1075D0004102C2EB4112C1EBC103002005EB820264
:1075E00004EB031302EB8006776803EB800606F5D5
:1075F0008056401CC6F808751C28F3DB491C30294E
:10760000E5DB72E718211E4861802A4654307EE788
:107610006146A4F802C02A461B4878E719466380F1
:107620002A461A4873E76146A4F802C02A46184859
:107630006DE7194663802A46164868E74146A4F874
:1076400002802A46144862E701F0CEFB4DE70000B5
:10765000BC60002010320020B44B0020C859030049
:10766000D92F0020F44E030098500300AC520300C1
:10767000F854030018320300B83403002443030015
:10768000243603006C5B030018390300D83A03006A
:10769000283C0300E83D0300383F03002DE9F05F7C
:1076A000DFF8B0A006460C2530249AF82600012EFB
:1076B0001FD0022102F0ACFEDFF89CB08146002111
:1076C00001FB05F0B0FBF4F2B4FBF5F0B1FBF0F315
:1076D00000FB1310530029FA03F212F003034FF0DA
:1076E00000020AD0012B06D0022B04D0032B04D1B8
:1076F00002E00121DEE700B901229AF82670C1EB11
:10770000C10C07EB47070AEB870300200BEB0C17B4
:10771000012E03D06AB1D3F888C00CE012B1D3F8BF
:1077200084C001E04FF0000C07EB8008C8F808C0E7
:1077300007E04FF0000C07EB800808F58058C8F808
:1077400008C5401C1C28E3D3491CA142B8D3BDE89E
:10775000F09F0000D0750020B44B002070B5154696
:107760000C460A468AB001461E460DF10500FEF79A
:1077700057FE8DF800408DF801508DF80360684683
:1077800008F0BCF80AB070BD254A10B5107805287D
:1077900007D02448C178491CC1705168012909D01B
:1077A00020E0214807F042FF80BB1F48001D07F082
:1077B00075FF32E04178A9B91C4B1D491A68096868
:1077C0008A4201D88A1A01E0D2430A44B2F5FA7F0C
:1077D00008D38278521CD2B28270022A01D30022CE
:1077E00082701960134C94F8E51099B104F1E1002E
:1077F00007F01CFF002811D194F8E000012806D002
:107800000D4800BF07F04AFF002807D105E00648F1
:10781000001DF7E7807800F011F8002010BD00008F
:10782000143200207C2C002010300300A4320020F1
:10783000D42B0020D07500200D34002070B5134DDE
:1078400001228240E97D114211D000EBC0004419B1
:10785000601D07F0EBFE002808D195F8E000012834
:1078600011D004F1090000BF07F018FF70BD0748F0
:10787000E13007F0DBFE0028F8D195F8E0000128A0
:1078800001D00348F0E70348EEE70000D075002080
:107890000D3400201430030002F074BEF0B5184E11
:1078A000002404EB4405002306EBC50555F82370BE
:1078B00087421AD10C7053B1012B0AD0022B0AD087
:1078C000032B0AD0042B0AD0052B0AD00BE0002092
:1078D00008E01E2006E0322004E0462002E05A20A4
:1078E00000E0FF2010700120F0BD5B1CDBB2062B16
:1078F000DCD3641CE4B2082CD3D30020F0BD00001C
:10790000543F0300F0B5334C8DB001206070A0707F
:10791000E070314806F074FB06F064FA00E041DFE5
:1079200020780028FBD014216846FEF792FD6846B7
:1079300006F07EFB0025059506950795089508AB92
:1079400005AA47F2100148F21000099506F004FB61
:10795000D0B10AF073FC1F48EC222049001DFEF74D
:107960005FFD65701E4905A806F046FBBDF80400E2
:1079700001282DD9E57005A806F0CCFA00264FF4B1
:107980007A77E078B0B90EE00A950AA905A80B95B8
:1079900006F0EAFAEC2211480B99FEF741FD05A822
:1079A00006F094FAE2E7012007F0DCFC761CB6B2A0
:1079B000BE42E6D3A57006F0F5F90025A0780028B0
:1079C00006D1012007F0CEFC6D1CADB2BD42F5D34F
:1079D0000DB0F0BDA42C00206DDD0200D07500209C
:1079E00028300300F0B58BB0002400940194029479
:1079F0000894EC221F4920480994FEF711FD08ABBA
:107A00006A4647F2100148F2100006F0A5FA002875
:107A10002DD1194D2D1F6C701849684606F0E4FAF7
:107A2000A0F5064106391BD1AC7006F0BBF9002663
:107A30004FF47A77A87830B9012007F093FC761CD0
:107A4000B6B2BE42F6D3A8780D4E30B16C700B4979
:107A5000684606F0C9FA346002E0012068703060C0
:107A6000142103A8FEF7F5FC03A806F0E1FA0BB019
:107A7000F0BD0000D0750020A82C002028300300A5
:107A800028320020F0B58BB00025009501950295B5
:107A90000895EC22204921480995FEF7C1FC08AB66
:107AA0006A4647F2100148F2100006F055FA002825
:107AB0002FD11A4C241F65701949684606F094FAB4
:107AC000A0F5064106391DD1A57006F06BF9002618
:107AD00040F6A427A07830B9012007F043FC761CBB
:107AE000B6B2BE42F6D365700D49684606F07CFA20
:107AF0000025607830B9012007F034FC6D1CADB270
:107B0000BD42F6D3142103A8FEF7A3FC03A806F098
:107B10008FFA0BB0F0BD0000D0750020A82C00201B
:107B2000283003000148407870470000A42C002052
:107B30001CB508460021012A02D0022A03D101E027
:107B4000032100E00121022B09D0012B09D00B46B3
:107B5000002100910A46019108F06BF81CBD022239
:107B600000E0032208F092F8BDE81C40012007F075
:107B7000E9BB00000348006801228A401040C84069
:107B8000704700001005005010B5114C01208840CE
:107B900020600024012A02D0022A03D101E003243C
:107BA00000E00124890001F5E06101F1A0410A68CB
:107BB00022F00C020A600A6842EA84020A60012B81
:107BC00003D003490C39086010BD01491039FAE7A8
:107BD0001805005001208840012A02D0024908609F
:107BE00070470149091FFAE70C0500502DE9F047DD
:107BF0000024924689462346FF2804D0642805D3F2
:107C00004FF0040206E04FF0050203E04FF01401CC
:107C1000B0FBF1F2DFF86080D9F80070DAF80060AC
:107C20004FF0000101EB41054FF0000008EBC505E6
:107C300055F820C0BC4500D10C46B44500D10B46D8
:107C4000401CC0B20628F3D3491CC9B20829E9D3A5
:107C500004EB440008EBC00050F8221003EB430093
:107C600008EBC000C9F8001050F822100120CAF833
:107C70000010BDE8F0870000543F0300F0B508286D
:107C800000D3072000240F4D0E68234603EB430763
:107C9000002205EBC70700BF57F822C0B44500D14A
:107CA0001446521CD2B2062AF6D35B1CDBB2082B58
:107CB000ECD300EB400005EBC00050F82400086056
:107CC0000120F0BD543F030030B5002202704FF098
:107CD0008052136E4370136E1B0A8370136E1B0C5D
:107CE000C370136E1B0E0371536E4371536E1B0AE8
:107CF0008371536E1B0CC371526E0023120E0272FD
:107D00001F241A46855C521C03FB0453092AF9D32D
:107D10000B6030BD70B5394D394E3A4CAA78B17808
:107D20008A4221D02046406B92B1012A02D0022A19
:107D30001FD105E0042824D03249B231002004E0EC
:107D4000042823D02F490020BC3100F031FE0BE085
:107D500004280ED0012904D12A490020C63100F0A0
:107D600027FEB078022808D0A878012809D0022878
:107D70000CD0E87801280ED010E02249D031002044
:107D8000E3E70F20FFF7BCFA0F2030E01020FFF7E9
:107D9000B7FA10202BE0206B012806D06878D8B104
:107DA00001281CD0022824D11CE094F826000221CE
:107DB00002F02EFB6FF07F4188424FF0130003D199
:107DC000FFF79EFA142002E0FFF79AFA1320FFF75C
:107DD00059FB00F049FD0CE014F8270F04E014F8FB
:107DE000280F01E014F8290FFFF78AFAE078FFF76F
:107DF00049FBD5E90001C6E9000170BD143200203D
:107E00001C320020D0750020044906200870044868
:107E1000483900680864FEF743BF000014320020B0
:107E2000D42B002070B5012205210020FFF7D2FEDF
:107E30001A491B4E03200870A1F1480430682064E1
:107E4000FEF7A8FEC0B2502803D91C200D2560649F
:107E50000EE03C2803D915200C25606408E0282892
:107E600003D912200B25606402E00C200A2560640F
:107E70000C48816B01290BD00B4A002121709180A5
:107E800090F826002846FFF73BFA2846FFF7FAFA53
:107E9000FEF75CFE3068E06370BD00001432002025
:107EA000D42B0020D0750020B44B002007490020BF
:107EB00008708870C8704839D1E912238863044873
:107EC000C1E914230068C863704700001432002021
:107ED000D42B002070B5104C042020706178012054
:107EE0000025A1B1012914D065700C4A617882F88F
:107EF00026100B49086002F0B5FAE570FFF70AFF9B
:107F000005480849483885630968C16370BD6070D9
:107F1000EBE702216170E8E714320020D075002001
:107F200028320020D42B002006490720087005487D
:107F300000214838816304490968C163034901206D
:107F40000860704714320020D42B00202832002013
:107F5000094810B50421017001214160074991F8D9
:107F600026104170FFF7D6FE034800214838816390
:107F700003490968C16310BD14320020D075002088
:107F8000D42B002010B50E480521002401700121DA
:107F900041608470C470FFF7BDFE40F20110FEF72F
:107FA000E7FC03F069FE0820FFF7AAF90820FFF7B5
:107FB00069FA03480349483884630968C16310BDFE
:107FC00014320020D42B002070B51248114C01252A
:107FD0000570483C0020A0630F480068E06300F093
:107FE0007BFC00232570022203211846FFF7CCFDFD
:107FF000012203210020FFF7EDFD012205210020D1
:10800000FFF7E8FDBDE8704001221B210020FFF7CB
:10801000E1BD000014320020D42B0020084910B527
:1080200002200870012205210020FFF7D3FD04483B
:10803000002148384163816302490968C16310BD6A
:1080400014320020D42B00202DE9F041324E30783C
:1080500008281CD2DFE800F004070A0D10131619D7
:1080600000F0FEF813E000F0DDFA10E000F066FB2F
:108070000DE000F093F80AE000F0CEF907E000F020
:108080006BFA04E000F04EF801E000F02BF9224C0E
:10809000224D483C0027A06AA0B12968884201D837
:1080A000081A01E0C04308447D2803D2002000F0F4
:1080B000DFFC07E0B0F5FA7F03D2002000F0CAFC35
:1080C00000E0A762F07828B1E16A2868814204D80C
:1080D000401A04E02868E06207E0C9430844B0F5AC
:1080E000FA6F02D9F770FFF715FEB07828B1206B50
:1080F0002968884205D8081A05E028682063BDE889
:10810000F081C043084406498842F8D9B770BDE8F9
:10811000F041FFF7FFBD000014320020D42B0020F7
:10812000C0D4010010B5194C194900202070888076
:108130000E20FFF7E5F80E20FFF7A4F91548216C93
:108140000068814201D8421A01E0CA4302447D2AF4
:1081500009D2114890F8A400182815D1BDE81040A4
:10816000002000F085BC814201D8401A01E0C943DB
:108170000844FA2804D2BDE81040002000F06ABC90
:10818000BDE81040FFF7D0BE10BD0000CC3100208C
:10819000B44B0020D42B0020D07500202DE9FC41E9
:1081A0002C4C2D4D236C2A68D843D11A104493428D
:1081B00001D80E4600E00646284F7D2E97F8A470A1
:1081C00006D2182F02D1002000F052FCBDE8FC813D
:1081D000934201D80E4600E00646FA2E03D2002054
:1081E00000F038FCF2E7934201D80E4600E0064664
:1081F000B6F5BB7FE5D9934200D80846B0F5FA7FC3
:10820000EDD320780028E1D0E06830B1684600F076
:1082100035FB40B1009818B105E0FFF799FED5E7AE
:1082200001980028F9D0E06B2968884201D8081A23
:1082300001E0C0430844B0F5FA6FC7D9002000F050
:108240002DFBE0680028E8D00020E060FFF79AFEF0
:10825000BCE70000CC310020D42B0020D0750020DA
:108260007CB51E4C1E4DA06B40B1012823D1684641
:1082700000F004FB10B30098F0B11FE0684600F076
:10828000FDFA48B1009838B90198012804D128684E
:10829000E063A06B401CA063E06B2968884201D8B2
:1082A000081A01E0C0430844B0F5FA6F03D902F0A0
:1082B00025F902F065F97CBD019858B1E06B296899
:1082C000884201D8081A01E0C0430844B0F5FA7F9B
:1082D000F1D90120E060FFF7A5FD7CBDCC31002085
:1082E000D42B0020F0B5424C424D2046D4F838C083
:1082F000C36B2A68D843D11A3F4E85B04FF4FA7742
:108300001044BCF1070F3CD2DFE80CF00409102840
:108310002F3D450039A1684602F010FE12E093425D
:1083200000D80846B8422CD9022029E0FEF732FCDA
:10833000024633A1684602F001FE6846FEF794F853
:10834000ADF810006846FEF78FF8ADF810003388DE
:1083500004AA69462C4804F001FE0DE0934200D8BF
:108360000846B8420DD904200AE03088A0F57F41C4
:10837000FF3901D0132176DF2868E063A06B401C31
:10838000A06305B0F0BD934200D80846B0F5FA6F7F
:10839000F7D90620F4E71D4CD4E90101FFF7EAFB09
:1083A0000128EED1FEF7A0FA0127194D194E41DF41
:1083B000D4E90101FFF7DEFBE168884200D02F70AD
:1083C000307829780843F2D000F086FA084F2878F0
:1083D0000024483718B12C70BC70FFF767FD307867
:1083E0000028CED03470BC70FFF71CFDC9E7000038
:1083F000CC310020D42B00203A32002044534300DB
:10840000424C3A257500000064320020C42D002043
:10841000C8310020B83100202DE9FC41494C4A4FB9
:108420004A4DA06B4FF4FA78002610B101283FD1D5
:108430000EE0684600F022FA40B3009830BB019885
:10844000012835D12868E063A06B401CA0632FE0B1
:10845000684600F013FA18B1009808B9019828B1DD
:10846000E16B2868814212D8401A12E0A16928689D
:10847000814201D8411A01E0C9430144414501D27A
:10848000E66101E00121E161A663A06110E0C9435A
:108490000844B0F5FA6F0BD9002000F0FFF997F807
:1084A000E600012802D12A4903200870FFF7ACFC3E
:1084B000244897F82610483042788A4206D0417006
:1084C000C670FFF727FCA6632868E063E06901280F
:1084D00002D0022813D02CE0A0692968884201D874
:1084E000081A01E0C0430844404522D9FFF7F2FCD6
:1084F00002F04EFC286820640220E06119E0206C44
:108500002968884201D80A1A01E0C2430A44322A83
:1085100003D2002000F0ACFA0BE0884201D8081A20
:1085200001E0C0430844642803D2002000F092FA1E
:10853000E66108480078012801D1FFF765FCBDE835
:10854000FC810000CC310020D0750020D42B00200D
:10855000042E0020393200207CB52D4C2D4DA06B0F
:1085600010B101284DD10EE0684600F087F978B3CC
:10857000009868BB0198012843D12868E063A06B8C
:10858000401CA0633DE0684600F078F918B10098FF
:1085900008B9019828B1E06B2968884227D8081AE1
:1085A00027E0206A0021401C2062012805D0626A71
:1085B0002B689A4204D89A1A04E02868606212E094
:1085C000D2431A4441F288339A4202D921620AE026
:1085D00017E0052807D3104A2162104B156B0120C4
:1085E0001DB111631860A1630BE01063FAE7C0438B
:1085F0000844B0F5FA6F04D9002000F04FF9FFF7F6
:1086000003FC07480078012801D1FFF7FDFB7CBD82
:10861000CC310020D42B0020D0750020283200203F
:10862000393200207CB5FEF7B5FA3E4909684FF4AF
:1086300061625143CA1701EB92518A123A490968A3
:108640004FF461635943CB1701EB935189124FF4F7
:108650007A754FF4C843AA4205D964290CD3A942BC
:1086600001D9324C09E0642A07D2A94205D914285D
:1086700002D84FF4C80400E01C462D4D0021C1EB88
:10868000C102002005EB021303EB8002401C946042
:1086900002F580521C28C2F80845F5DB491C302938
:1086A000EDDB244C244DA06B40B1012826D1684657
:1086B00000F0E4F8B8B1009898B114E0684600F012
:1086C000DDF800281AD00098002817D10198012859
:1086D00014D1002001F02CFE2868E063A06B401C40
:1086E0000BE0019828B1E06B2968884207D8081A86
:1086F00007E0002001F0ECFD0020A0637CBDC0433A
:108700000844B0F5FA6FF9D9002000F0C7F800224C
:1087100003211046FFF75EFA002001F0D9FDFFF7B4
:1087200073FB7CBDDC2B0020E02B00200080FF00D1
:10873000B44B0020CC310020D42B0020FEB5434C9C
:10874000434D0226A16B2868052949D2DFE801F0D4
:10875000030A173B54001D20FEF7D2FD1D20FEF733
:1087600091FE2AE0E16B814201D8411A01E0C94340
:108770000144B1F5FA7F33D9C4E90E6030E0FEF769
:1087800009FA411C2CD03449324A51F8013F936018
:108790004968D16002F1080101230E724B728B729D
:1087A0002E4BDE6906EBC606334453F8056FC2F85C
:1087B00013605B68C2F8173008742868E063A06B28
:1087C000401CA0630CE01120ADF8000024482149B2
:1087D0006A4603880831234804F0C0FB0028ECD027
:1087E000606860B101281AD101A800F047F800269E
:1087F000C0B10198A0B115E0E0630520E1E701A850
:1088000000F03CF800280AD00198002807D102980F
:10881000012804D12868A0606068401C6060FEBD2B
:10882000029828B1A0682968884203D8081A03E092
:108830006660FEBDC0430844B0F5FA6FF9D9002068
:1088400000F02CF86660FFF7DFFAFEBDCC310020A7
:10885000D42B0020B475002008340020D0750020EF
:108860003A32002064320020024803490068C8629E
:1088700070470000D42B0020CC310020064A11683C
:108880004B1C07D001604FF0FF311160516841600F
:108890000120704700207047BC2D0020024A0121B2
:1088A00042F8201070470000B82D002010B5084C89
:1088B000D4E90101D4E90423FFF73AF90548A4F10A
:1088C000140100680860091DE068086010BD000020
:1088D000C42D0020D42B00200348002302698168A6
:1088E0004068FFF725B90000C42D00202DE9F041B4
:1088F0001C484FF000050168491C016000D005606C
:10890000184C06681834D4E90101FFF733F9A4F1D3
:108910001003154A1F68191F874203D110680860A9
:10892000BDE8F0810F681268974201D8D71B01E0BB
:10893000FF431744D4F818C06745F1D30A60094AC9
:1089400018600C32E368111D834205D110680028BD
:10895000E6D1C1E90065E3E701201560C1E90050F7
:10896000DEE70000AC2D0020D42B0020034B00EBF1
:10897000800203EB8202D16001F0CEBBC849002027
:1089800030B5094C00EB8003204654F8235000EB2F
:108990008300022D02D0054DAD680561022544F823
:1089A0002350C0E9011230BDC8490020E02D00204D
:1089B0002DE9F04782460F4608882249224DB1FB37
:1089C000F0F0DFF888900AEB8A064FF0050805EB17
:1089D0008604884208D164210020FFF7C7FF40F6D3
:1089E000B83060601A4825E0A0F57431903918D08D
:1089F00032210020FFF7BAFF002108463A18401C38
:108A0000927806281144F9DB3220414314D0C4E99E
:108A1000011700BF45F82680D9F800002061BDE8A5
:108A2000F08764210020FFF7A1FF4FF47A606060B7
:108A300007480A30A060EDE75046BDE8F04700F077
:108A400009B8000040420F00C8490020D42B002084
:108A5000EC2D002010B5044601F03AFC034A04EB6B
:108A60008401002042F8210010BD0000C849002008
:108A700010B5044601F05CFC034A04EB84010120BC
:108A800042F8210010BD0000C84900202DE9F04F38
:108A90000C253024394EDFF8E880DFF8E8B08E4648
:108AA00000204FF0FF094FF4480A00BF00FB05F11A
:108AB000B1FBF4F2B4FBF5F1B0FBF1F3520001FBB2
:108AC000130126FA02F212F0030252D0012A04D056
:108AD000022A02D0032A4CD100E059BB98F80010BA
:108AE000BEF1010F06D031B3002188F800105246C4
:108AF0004B4625E029B1002188F800104A4653462C
:108B000004E0012188F8001052464B46C0EBC00734
:108B100000210BEB071700BF07EB810C491CCCF8B9
:108B200008200E29F8D30E2107EB8102491C93601F
:108B30001C29F9D31DE0012188F800104A4653464C
:108B4000C0EBC00C00210BEB0C1700BF07EB810C36
:108B50000CF5805C491CCCF808250E29F6D30E21B3
:108B600007EB810202F58052491CC2F808351C2926
:108B7000F6D3401CA04299D3BDE8F08FA00AAA000A
:108B8000182E0020B44B0020F0B500273B4B0129E4
:108B90003FD002293CD1002100224C1CC1EBC10571
:108BA000444303EB051500BF05EB820606F580562E
:108BB000521CC6F808451C2AF6DB491C1429EBDBBD
:108BC00014240021C4F12802C4EBC405424303EB82
:108BD000051500BF05EB810606F58056491CC6F851
:108BE00008251C29F6DB641C282CEADB2820C0EBB6
:108BF000C002002103EB021202EB810404F5805451
:108C0000491CC4F808751C29F6DB401C3028EEDB33
:108C1000F0BD002100224C1CC1EBC105444303EB15
:108C2000051500BF05EB8206521CB4601C2AF9DB57
:108C3000491C1429EEDB14210022C1F12804C1EBE8
:108C4000C105444303EB051505EB8206521CB460D5
:108C50001C2AF9DB491C2829EEDB2820C0EBC002C6
:108C6000002103EB021200BF02EB8104491CA76044
:108C70001C29F9DB401C3028F0DBF0BDB44B002090
:108C800070B52A4A01282CD0022829D1284C00216D
:108C90004FF44803C1EBC105002002EB0515265C2B
:108CA0002EB105EB800606F58056C6F80835401C47
:108CB0001C28F4DB491C1829ECDB1820C0EBC0048D
:108CC000002102EB041400BF04EB810505F580557B
:108CD000491CC5F808351C29F6DB401C3028EDDBA3
:108CE00070BD134C0021134B383CC1EBC105002073
:108CF00002EB0515265C16B105EB8006B360401C3F
:108D00001C28F7DB491C1829EFDB1820C0EBC00436
:108D1000002102EB041400BF04EB8105491CAB6089
:108D20001C29F9DB401C3028F0DB70BDB44B00205F
:108D3000EC5703006068CC002DE9F041FDF72AFFF5
:108D4000C0B2502803D90E204FF47F4103E02449DC
:108D50003C2804D90B200022224D1C240BE028289B
:108D600001D90920F7E74FF44801142801D906205A
:108D7000F1E70320EFE7C2EBC2061B2305EB061762
:108D8000564204EB460606E007EB830C0CF5805CCC
:108D90005B1ECCF858169E4201DC002BF4DA521C04
:108DA0008242E8DB0023424204EB42041B221E18ED
:108DB000C6EBC60605EB061607E000BF06EB82070A
:108DC00007F58057521EC7F85816944201DC002A56
:108DD000F4DA5B1C0C2BE9DB0F30BDE8F0810000FE
:108DE00000156400B44B0020FFB5134A134D6C46C8
:108DF0000FCA8DE80F00002000EB40018A00411CE3
:108E000001EB410C11E0C2EBC20305EB031754F870
:108E10002030002107EB8106491CB36006F580561F
:108E20001C29C6F80835F5DB521CB2EB8C0FEADBC7
:108E3000401C0428E0DBFFBDF45F0300B44B0020BE
:108E400070B52E4B2E4A012831D002282ED1002198
:108E50004FF47F05C1EBC104002003EB041400BFF5
:108E600004EB800606F58056401CC6F808550E280F
:108E7000F6DB491C3029EDDB0021C1EBC1000E24DB
:108E800003EB001505EB840606F5805006F5005649
:108E9000C0F80825C0F8482AC0F8882F641CC6F816
:108EA000C8241C2CEEDB491C0629E6DB70BD154DE1
:108EB0000021C1EBC1040E2003EB041404EB800677
:108EC000401CB5601C28F9DB491C3029F1DB00216E
:108ED000C1EBC100002403EB001500BF05EB8400CB
:108EE000641C8260C0F84825C0F8882AC0F8C82FE2
:108EF0000E2CF3DB491C0629EADB70BDB44B0020C5
:108F00000037FF006480FF0070B52E4B2E4A012809
:108F100031D002282ED100214FF47F05C1EBC104CE
:108F20000E2003EB041400BF04EB800606F5805608
:108F3000401CC6F808551C28F6DB491C3029EDDB1F
:108F40000021C1EBC100002403EB001505EB8406F2
:108F500006F5805006F50056C0F80825C0F8482AE6
:108F6000C0F8882F641CC6F8C8240E2CEEDB491C00
:108F70000629E6DB70BD154D0021C1EBC1040020C0
:108F800003EB041404EB8006401CB5600E28F9DBEB
:108F9000491C3029F1DB0021C1EBC1000E2403EB99
:108FA000001500BF05EB8400641C8260C0F84825F2
:108FB000C0F8882AC0F8C82F1C2CF3DB491C0629EE
:108FC000EADB70BDB44B00200037FF006480FF0077
:108FD00010B54FF4A85421460748FDF73AFA214648
:108FE0000648FDF736FA0024E0B2FFF733FD641CB3
:108FF000032CF9DB10BD0000BC4B0020BC6000203E
:1090000010B5FFF7E5FF002400E024B93221204627
:1090100001F082F801246421204601F07DF8641CEF
:10902000032CF2DB10BD00002DE9F04F8FB0FDF7EF
:1090300087FF46094FF4FA609FED6B0AB6FBF0F12B
:1090400000FB116000EE900A684DDFF8A491F8EE85
:10905000600A80EE801AFCEEC10A10EE900A84B21B
:10906000287850B3302C00D32F24624801888C42DA
:1090700014D04168711A00EE901AF8EE600AF4EE0E
:10908000C00AF1EE10FA09DB048046602046FEF7C4
:10909000CBF82046FEF702F9FEF7B2F8564D002451
:1090A0000DF1200B04EB840155F8210002282ED08D
:1090B00005283BD0062839D08FE0504AD9F8000067
:1090C0001168814201D8411A01E0C94301443229A3
:1090D000E4D34B4C1060A088FEF7A6F8A088FEF7FA
:1090E000DDF8FEF78DF8A0882B2802D2401CA08066
:1090F000D4E70120287042484FF4A8542146083094
:10910000FDF7A7F921463F48FDF7A3F9C6E705EBB0
:109110008101D1E901010144B6FBF1F201FB1261C9
:10912000814253D8204601F003F956E005EB810156
:109130004FF0050AD1E9012700205B4607EB000C40
:109140009CF802C0BCF1000F11D04FF032081CFB9C
:1091500008FC43F820C0401C0628EFDBD1F810C003
:10916000D9F80000844505D8A0EB0C000CE0A0F174
:10917000010AF3E76FEA0C0C604405E0D1F810C077
:10918000801A9444C1F810C09042F7D200221146D0
:1091900053F821C06244904201D2049102E0491C7C
:1091A0000629F5DB049800F001005FEA000820467C
:1091B00002D001F08DF801E001F0BAF804998A4577
:1091C0000BD1B8F1000F08D0387A18B1204601F061
:1091D0007FF802E0E0B2FFF73DFC641C032CFFF6D1
:1091E00061AF0FB0BDE8F08FABAA2642CC310020B2
:1091F000D42B0020E02D0020C84900205832002048
:10920000B44B0020BC6000202DE9F0412D4E86B00B
:109210007068002852D0142802D0082846D04BE0AD
:10922000142229496846FDF7FBF80198FDF79CFEDA
:10923000DDE90370254C8046012194F82600009D4D
:1092400001F0E6F8052D04D0062D07D0072D22D019
:1092500010E094F826100122384620E094F82610F9
:109260000122384601F004F994F82610022238460B
:1092700001F0FEF8154894F826102730085C022803
:109280001AD8FEF73DF8114894F826102A30085CE9
:10929000FEF7F8F810E094F826100122404601F09D
:1092A000E7F894F8261002224046E1E706481A380B
:1092B000D0F81E00FDF758FE0020706006B0BDE833
:1092C000F0810000A83100201E4A0020D075002047
:1092D00010B50C46202906D80A4601460248FDF77B
:1092E0009FF80248446010BD1E4A0020A8310020AB
:1092F00000B5114885B00023D0F8E100CDF8010099
:109300000E481A4600788DF800000B4810F8301F00
:109310008DF809108189ADF80A10C189ADF80C10DB
:10932000018AADF80E10408AADF81000122168468F
:10933000FEF714FA05B000BDD0750020044A0020E5
:109340002DE9F04FF74997B00868002873D0F74D22
:10935000F54C80B2B5F942200126F54F4FF0000AD6
:10936000022820D0032867D0DFF8C8930DF1040B42
:1093700005F14608042873D049460528097870D0BD
:1093800006286FD008286ED009286DD00A286CD026
:109390000B286BD00C286AD00F2869D0102868D011
:1093A000122867D058E2208844F65233C11A9842F6
:1093B0003CD01DDC43F24232A0EB020190426AD065
:1093C0000BDC00F6BE70B0F5804064D0B0F5807F55
:1093D00061D0B0F5007FE5D15DE0B1F5805F2ED0C2
:1093E00001F2F671B1F500511BD00329DAD115E075
:1093F000B1F5407F18D008DCF0293ED0A1F500710E
:10940000FA390FD00329CDD106E0B1F57C7F14D015
:10941000B1F5FE6FC6D118E0002100E00121002067
:1094200006E00121012003E0002100E001210220EB
:1094300005F02EF810E2E8E040E02E6301E0C5F808
:1094400030A03E60FDF7B8F906E2BBA101A801F02B
:1094500075FD286B78B14F208DF80500092105E1D5
:109460004CE007E1BEE2D9E206E33EE3CAE3CAE329
:10947000CAE3CAE3CAE34320EEE7FDF78BFB0246EB
:10948000401C01D0AFA1BDE0B1A1DCE001A8FCF718
:10949000EBFF81B2EAE0B0A000680090AFA00068E6
:1094A0000790607830381DF8001085F8A41007A9DF
:1094B000085C68633E60FDF7FDFBCDE12078422843
:1094C000B8D05A28B6D16078A478A0F130083C22F0
:1094D000A34907A8303CFCF7A3FF04EB840107AACB
:1094E00008EB880002EB410105EB40000A6840F8F8
:1094F000B22F4A68426009890181ECE22078422853
:1095000002D160784D2809D00322214695A0FCF7AE
:10951000C0FFA0B12078542827D02CE0A1780529DD
:1095200073D801EB410105EB810101F18802E0787C
:109530008431FEF75BFB3E60FEF7ECFB8CE1E078EC
:10954000312804D0302805D03F2806D084E185F8A2
:10955000E060C0E285F8E0A0BDE295F8E0000128F7
:1095600001D081A16FE082A16DE06078462802D130
:10957000A0784D2825D0E178206861F31F607E49EE
:10958000401847D07D49401861D07D49401831D0FE
:109590007C49C84291D17C48817A432945D0008BCF
:1095A00090B3020BC0F30323C0F30310012845D985
:1095B0000A283CD002283CD004287FF467AF73A16E
:1095C00038E0E078302802D0312803D004E085F874
:1095D000E8A001E085F8E86095F8E8206EA101A810
:1095E00001F0ACFC01A8FCF73FFF81B201A8FDF738
:1095F000FFF970E26A480268B2F1CC3F06D0501C15
:1096000006D068A101A8D2E11FE0FCE368A11AE03E
:109610006AA118E01A200090032340F2EA726AA1BE
:1096200001A801F08BFC0A2120E06BA10BE06CA1EA
:1096300000E06EA101A801F081FC27E7012A01D812
:109640006DA100E06FA101A875E371A1FBE799F896
:10965000000002289ED170A101A801F06FFC0E222B
:1096600041460BF10400FCF7DBFE122101A8FDF7D7
:10967000BFF9DEE3207846281CD0662833D0E37893
:109680002068DFF89CC163F31F60664BA0EB0C08F9
:1096900060451B6841D041DCDFF88CC1A0EB0C02B7
:1096A00060453CD02FDC614AD042E2D1207931289C
:1096B00036D052E107AB08AA6946204609F082F984
:1096C000089810B11F2802D006E0022200E0012213
:1096D0000099079800F0B4FE009806E001280AD02F
:1096E000022804D10AE0607830380028F6D1022040
:1096F00089F8010004E089F801A001E089F801601F
:10970000FEF7E8FB95E34A481018B2D0494AD04228
:10971000AFD12079482804D0DCE04BE18CE09CE01C
:109720000CE1C0E050320020847B0020D075002086
:109730002832002014320020423F3A252B30366474
:1097400000000000424C3A25303375000000000054
:10975000424C3A4E2F41000017181818040400011B
:109760001860030050554200505542300000000080
:109770005055423100000000AABAADB702F3FEF91D
:10978000120626FCEC06DBFF044A002052552D563B
:1097900025642E256400000054464D2D25750000DB
:1097A000A8310020424C2D523A253033750000007C
:1097B000424C2D523A4C697465000000424C2D52C7
:1097C0003A4E410000000000253034642D2530322F
:1097D000642D253032640000524C2D56302E350059
:1097E000524E35312D5625642E256400524E3532A9
:1097F0002D5625642E256400524E35312D56322EBD
:1098000035000000524E35322D56312E3300000007
:10981000554E4B524D5400004652534E000000002E
:10982000545245530032002054504149ACBDADBAAA
:10983000060BEDFFFAF200FBF54818EB00007BD0B9
:10984000B0F57E4F1CD0F34A801857D0F24AD04270
:1098500002D120795A2870D0EBE220795228FBD12E
:10986000022901D0042BF7D1ECA1584601F066FB88
:1098700001A8FCF7F9FD81B201A8FDF7B9F8EFE204
:1098800020795428E8D10529E6D1E6495846C1F89F
:1098900000A0E5A101F052FB052101A8FDF7A8F801
:1098A000FEF7BCFBC5E20229D6D1E1A1584601F082
:1098B00045FB55F8460F0290686803902889ADF87B
:1098C00010008DF812A001A8FCF7CEFD81B201A80E
:1098D000FDF78EF820794C28BED199F800000228B7
:1098E000BAD1D5A101A801F029FB0A22D4490BF174
:1098F0000400FCF795FD8DF812A0C7E520795428E7
:10990000AAD1022901D0042BA6D1CEA1584601F03C
:1099100015FB01A8FCF7A8FD81B201A8FDF768F8C6
:10992000CA4E64254FF47A47741C3846A0476D1E12
:10993000FAD1FEF7F9FA7CE232E023E002298BD17A
:10994000C3A1584601F0FAFA01A8FCF78DFD81B2D7
:1099500001A8FDF74DF82E633E6020793028A1D193
:1099600099F8000002289DD1BBA101A801F0E6FAF8
:1099700001A8FCF779FD81B201A8FDF739F8C5F817
:1099800030A0A8E002298DD1B5F940000090B5F9CA
:109990003E30B5F93C20B2A1584601F0CFFA75E54A
:1099A00020794828C7D10229C5D1B3A1584601F072
:1099B000C5FA6BE520795428BDD10229BBD1B1A1EC
:1099C000584601F0BBFA01A8FCF74EFD81B201A890
:1099D000FDF70EF86421C5F830A0A9875046A5F818
:1099E0003EA015E296484FF0060230380529214680
:1099F00003D0FCF75BFD68B11BE2FCF757FD30B10B
:109A000020682862A088A8843E60FEF7A1FA01F0D1
:109A100081FA0EE28349C1F800A0F8E720785828BF
:109A200004D1601CFCF751FDA8873E6020785928BE
:109A300004D1601CFCF749FDE8873E6020785A2875
:109A400005D1601CFCF741FDA5F840003E60207880
:109A5000542805D1601CFCF738FDA5F842003E6093
:109A60000822214689A0FCF714FD0028C4D1FFF785
:109A7000AFFAFEF7C9F9DCE10922214686A0FCF71E
:109A800008FD60B10922214686A0FCF702FD70B1F5
:109A9000082221467DA0FCF7FCFC78B1C9E199F8C9
:109AA00000000428A8D100BFFEF76CFAC1E199F8C4
:109AB00000000528A0D1FEF74BFABAE1207A312840
:109AC00004D0302805D03F2807D0B2E185F8E66001
:109AD00001E085F8E6A03E60ABE195F8E6000128DC
:109AE00001D073A1AFE575A1ADE50622214676A0B0
:109AF000FCF7CFFC18B1207841280ED099E15048EE
:109B0000D4F806105038C0F8E110714985F8E560C6
:109B100002203E6008706FA195E560784E2870D1F4
:109B2000A07843286DD1E178627961F30700884617
:109B300021790892A27961F30F2062F317408346DE
:109B40003F48503800F12A0327300793009062B154
:109B5000921CD0B25C4660F31744072845D26FF0E0
:109B60007F4081B31F2937D03FE0E079227A00049B
:109B700000EB0220627A104411B11F2911D034E0A9
:109B800044460222214600F05BFC04EB440005EB56
:109B9000800188310898FEF771F84FEA1B41079859
:109BA0000FE044460122214600F04AFC04EB440049
:109BB00005EB800184310898FEF760F800984FEAC1
:109BC0001B41215410E0FFE745460222294600F0E0
:109BD00037FC210C079806E045460122294600F093
:109BE0002FFC0098210C29543E605FEA08003FF4E6
:109BF0007EAD01283FF47FADB8F1020F3FF472ADA6
:109C000075E516E16EE099E0BAE0DDE003E1000001
:109C1000000BF3FE00F409FF0001F0FB4650414940
:109C200052000000403200204645535454000000CA
:109C300046534E480000000046534E4C00000000C2
:109C40002076002046534855540000001060030061
:109C50004642524531000000464252453000000065
:109C6000465258595A252B303464252B30346425FC
:109C70002B303464000000004647525448252B30F6
:109C8000366400004652455354000000504F57457B
:109C9000524F46460000000050414952494E472D60
:109CA0005900000050414952494E472D4E000000D6
:109CB000504F5745524F464630000000504F5745D1
:109CC000524F4646310000004E45544944200000A2
:109CD000042E00204E45544944206368616E676538
:109CE000640000000B22214660A0FCF7D2FB30B1DB
:109CF0000B22214660A0FCF7CCFB58B199E06249E9
:109D00006048D1F80110C0F8E11085F8E5A05FA126
:109D10003E6098E485F817A05FF0000404EBC400EF
:109D20002844FF220821401DFCF78CFB641C022CF8
:109D3000F4DB5AA187E401F001F97EE4207854288D
:109D400077D16078472874D1A078572871D1E0780E
:109D500054286ED1207948286BD1022969D154A1A9
:109D6000584601F0EBF801A8FCF77EFB81B201A890
:109D7000FCF73EFE601DFCF7A8FBA5F84200AAE632
:109D8000207842281ED0002261780020303901EB73
:109D9000810105EB410100BF04EB4005EB782D7913
:109DA000303B03EB8303303D05EB43030D18401CB0
:109DB00085F8B4303E600628EEDB81F8BA203EA17B
:109DC0005846B8E70122DFE72078542831D160787F
:109DD00047282ED1A07857282BD1022929D13CA180
:109DE000584601F0ABF801A8FCF73EFB81B201A890
:109DF000FCF7FEFDE01CFCF768FBA887E01DFCF704
:109E000064FBE88700E017E004F10B00FCF75DFB62
:109E1000A5F840005FE6207854280AD160785728DA
:109E200007D1A078532804D1E0784E2801D1022927
:109E300005D02949C1F800A017B0BDE8F08F27A1CF
:109E4000584601F07BF801A8FCF70EFB81B201A88F
:109E5000FCF7CEFD0E22211D4046FCF7E1FA3E60E4
:109E6000FFF7B6F81F4806601EE600004E4554494D
:109E7000442052455345540044454C2052454D4FD3
:109E800054455300D0750020083400204E455449F5
:109E900044207265736574000000000052656D6FA8
:109EA0007465732064656C657465642E0000000041
:109EB000464757544800000042757A7A657220740C
:109EC000696D65206368616E6765642E000000003F
:109ED0004647570000000000503200204657534EBE
:109EE0000000000000320020074A0848916800681E
:109EF000814201D8411A01E0C9430144B1F57A6FAA
:109F000000D3906000F05CBF9C310020D42B002077
:109F10002DE9F04F3F4D404FDFF8008128680024C5
:109F200093B0012810D13868372803D398F800007F
:109F3000052808D03A4800F07FF83A48016801291E
:109F400001D1022101602C60FFF75EF9364E3078B6
:109F500000285CD04FF0010AE946DFF8D0B050E0AD
:109F60009DF8010010B101284BD141E09DF800108F
:109F70001A2904D0202910D0042929D033E09DF9D2
:109F8000020038601A2209F105012548FCF748FA59
:109F9000C5F800A0C8F8044033E0202209F105010B
:109FA0000AA8FCF73DFA09220DA92148FCF738FA66
:109FB00020491F48001FC1F800A0DDF83D1040F8FF
:109FC0000D1FDDF8411041609DF84510017218E049
:109FD0001748001F90F8E600012812D1FEF7F8FF9D
:109FE000FDF712FF0DE0142905D0082909D102E080
:109FF0009DF80010F7E78BF8004009F10500FFF726
:10A0000067F9684605F0CEFA0028A9D0347013B07D
:10A01000BDE8F08FB0310020B431002014320020B0
:10A02000044A0020003200207D2C0020042E002055
:10A03000D4750020283200202DE9F041314E05462C
:10A04000DFF8C480307800270124042834D00528A4
:10A0500056D198F81610C8F81C10404601EBC10103
:10A0600001442A684A606A688A602A7A0A73A97A6F
:10A0700098F81C20432998F8171004FA02F206D029
:10A080009143C175AA7A2149432A02D00AE01143BB
:10A09000F7E71F4B1C4AD3F80130C2F8E13080F8D3
:10A0A000E5700C60827D521CD2B28275022A00D308
:10A0B00087750C60FDF74CFF687A4C2806D04F2856
:10A0C00002D0522806D103E0B77003E0B47001E07B
:10A0D0000220B070A87A4B280CD04E2808D0432814
:10A0E00002D00C49E87A0860BDE8F041FDF712BEE5
:10A0F000F770F6E7D8F830000128F2D1F470F0E7F5
:10A10000BDE8F08114320020D075002028320020F4
:10A1100008340020A83100202DE9F0410F46064602
:10A1200004F076F905461348C6EBC60100EB81043E
:10A13000606801280AD1304600F05CF930B1AAB25B
:10A14000217A0D4801F0F6F91128F8D0606802284C
:10A150000AD1304600F04EF930B1064A0020383AB4
:10A16000A168526822F81100044840F82670BDE842
:10A17000F0810000202C00200830030098490020C6
:10A180002DE9F04F85B000244FF0FF31009101918F
:10A19000CDE90340DFF800812646274625460DF12C
:10A1A00008094FF0010AA8F10C0B00BFC5EBC5016F
:10A1B00008EB8100416821B1012909D002291BD097
:10A1C0002BE0D0E905320169C068FDF7DDFC21E034
:10A1D000039A0169761C4DF82210406928B1039951
:10A1E00001F80940039820B114E0039A02F809A08D
:10A1F000F8E7CDF80CA00DE0042F0BD28368017CAA
:10A200007F1C0BF803104069012803D141F0800046
:10A210000BF80300214840F825406D1C032DC5DBD9
:10A220001D4D383DAC60EC602C61F6B1012E02D0C2
:10A23000022E08D019E000226946194801F0B4FA4C
:10A24000002211460BE000226946154801F0ACFAE5
:10A2500000221146124801F06DF900220121104838
:10A2600001F068F90E4801F063FA002F11D00A4995
:10A270000C4A0C39A1F1180006F0CEF918B10AA267
:10A280008E21FBF7C7FF287840F00100287000F00E
:10A2900077FA05B0BDE8F08F202C00209849002007
:10A2A00008300300C91503002E2E5C2E2E5C2E2EC6
:10A2B0005C2E2E5C2E2E5C2E2E5C2E2E5C2E2E5CAA
:10A2C0002E2E5C2E2E5C4C4C5F50574D2E630000A2
:10A2D00070B5054600F08EF8002815D01248C5EB81
:10A2E000C50100EB8104104E6068383E01280CD097
:10A2F000022812D00C3494E80700FDF76BFC012013
:10A30000B168A8408143B16070BD217A002207483E
:10A3100001F010F91128F8D0F1E7A1687268002067
:10A3200022F81100EBE70000202C00200830030089
:10A330002DE9F04104461B4850F82410204604F053
:10A3400067F80746204600F047F800281AD016485C
:10A35000C4EBC40100EB8106134D0122383D706847
:10A3600002FA04F401280FD0022815D07069824344
:10A37000D6E90301FDF72EFCE868A043E860A86871
:10A380000443AC60BDE8F081BAB2317A074801F00D
:10A39000D1F81128F8D0F2E7B1686A68002022F8F5
:10A3A0001100ECE798490020202C00200830030021
:10A3B00010B5074801F0C2FA064C2078C00703D058
:10A3C00004F1140006F0CCF90020207010BD00004C
:10A3D00008300300E82B0020054A012181409268E3
:10A3E0001140C14001D0002070470120704700009B
:10A3F000E82B0020054A0121814092681140C140AC
:10A40000012901D00020704701207047E82B00206F
:10A41000094A00EB400012682AB1084A02EB8000AA
:10A4200050F821007047054AEC3A02EB800000EB3F
:10A430008100C06D7047000024320020BC760020EF
:10A44000064B01EB410103EB810101EB8201C86581
:10A45000034801214160002101607047D075002050
:10A460002432002001490020086070472432002077
:10A47000054B01EB410103EB810141F82200034947
:10A480000120086070470000BC76002024320020C4
:10A4900010B5064C2068122806D007F0CFFE122017
:10A4A000034920600120086010BD0000D075002025
:10A4B0002832002070B50F4C616800290AD00E4880
:10A4C0000129006803D00025022904D00FE0A06014
:10A4D0000220606070BDA168814201D8401A01E08D
:10A4E000C9430844B0F5FA6FF4D3FDF77BFA656011
:10A4F00070BD000024320020D42B00202DE9F04153
:10A500001D480068012801D0022804D1FDF70AFB8C
:10A5100008B1FDF7B7FA00221B211046FDF75AFBE0
:10A52000002205211046FDF755FB00231A46152190
:10A530001846FDF7FDFA00221E211046FDF74AFBE2
:10A54000FEF746FDFDF7EEFA80B90C4D00244FF4FE
:10A550007A4640F6A42700BFFDF7E4FA30B9691C3B
:10A5600030468847641CA4B2BC42F5D3FFF720FFF5
:10A57000BDE8F041FEF79AB9283200207060030070
:10A5800033DF70472DE9F843414C424804272178D6
:10A5900000780025404E4FF00508072946D2DFE835
:10A5A00001F0040F161F38476200052801D0012072
:10A5B00000E0002003F09CFABDE8F843FEF798BEE7
:10A5C000012003F0F1FAFF2008F0BCF805E00120BB
:10A5D00003F0EAFAFF2008F089F8FCF7C3FB16E065
:10A5E000012003F0E1FA4FF00008FCF7A3FC00267D
:10A5F0004FF4FA790095484605F02CFE01234246B7
:10A6000004216846FDF7AAF8761C0F2EF3DB2770AD
:10A6100027E0A068401CA0606168491C61600328B5
:10A6200004D384F80080A5603068E060BDE8F8835A
:10A63000A168491CA160052801D0012000E000208C
:10A6400003F056FAFEF754FEE0683168884201D8FC
:10A65000081A01E0C043084410498842E6D30620A6
:10A660002070A560E2E7A068401CA060012003F014
:10A670009BFAFF2008F03AF8FCF774FBA06800286A
:10A68000D4D084F800803068C4E90250CEE70000DE
:10A69000042E002014320020D42B0020C0270900F3
:10A6A0002DE9F04102680446002A28D06368501E54
:10A6B0002D4D53F820104FF004064F1D12D011F10C
:10A6C000040F4FF008071CD011F1030F29D08A1C8A
:10A6D00030D0481C39D08847012810D12068401C50
:10A6E00020603BE006EB800029681B58E068884248
:10A6F00001D8081A01E0C0430844984217D2BDE8C7
:10A70000F08106EB80010C225E5807EB800102EB22
:10A71000800059581A58304600F028F82068001D6B
:10A72000DEE706EB8000185800680028E7D1921C8D
:10A73000226013E006EB800107EB800059581A589D
:10A740002046BDE8F04100F011B8A0684FF00101CB
:10A75000421C02D028B1401EA06021602868E06041
:10A76000CDE700202060CAE7D42B0020012308C0D9
:10A77000024B1B6880E80E0070470000D42B0020BD
:10A7800054210148FBF765BE4434002070B54FF4F6
:10A790008076304604F0C6FD114CB50560B13046F8
:10A7A00004F0C7FD0120C5F80803607920B9012035
:10A7B00060712168002088474FF48276304604F0AB
:10A7C000B1FD00280AD0304604F0B3FD0220C5F8E0
:10A7D00008032168BDE870400120084770BD0000F3
:10A7E0000C3300200149024803F044BF607D002083
:10A7F00000C001400149024803F03CBF687D0020D1
:10A80000001002400149024803F034BF707D00206F
:10A810000020024010B504F00FFE02480021017034
:10A82000416010BD7C2C002070B5144CD4F80001A0
:10A83000002628B1D4F80403C00701D0C4F8006191
:10A84000D4F80C010E4D40B1D4F80403000704D530
:10A85000C4F80C61286900B18047D4F810010028C1
:10A860000BD0D4F80403C00607D5C4F81061E8681B
:10A87000002802D0BDE87040004770BD00100040C5
:10A88000A433002002490248091F096800680847EC
:10A89000503300202DE9FE434FF48278404605F006
:10A8A000A7FA4C4F00254C4C012600B3404605F05A
:10A8B000A7FA94F82E0010B194F82F10D1B18DF8AA
:10A8C0000050616801912189ADF80810E26832B149
:10A8D000218B618362602181E56010B102E0257403
:10A8E00000E03E6021686846884784F82F5094F85D
:10A8F0002E0060B34FF48077384605F079FA30B314
:10A90000384605F07DFA628B94F82D108A420AD9F8
:10A91000A2EB010080B260832289A2EB0000626892
:10A9200002EB400005E007D1E06828B184F82F6011
:10A93000658305F04BFA04E08A4202D184F82F6067
:10A940006583404605F05CFA2248001D06604FF41E
:10A950008877384605F04CFA48B1384605F050FA89
:10A96000257402208DF800002168684688474FF45E
:10A970008A77384605F03CFA28B1384605F040FAA7
:10A980002574BDE8FE834FF000484FF48C79676969
:10A990001DE000BFB7FA87F028FA00F109EB800547
:10A9A0008F43284605F024FA88B1284605F028FA96
:10A9B000A5F58C75E8088DF8040045F38000401C6F
:10A9C0008DF800608DF80500216868468847002FE3
:10A9D000E0D1D6E700700040307D00207CB5144CFB
:10A9E000606A01902078002821D0012000F0C7FA89
:10A9F000656800266660012000F0D2FAE16900294E
:10AA000015D0E80703D08DF8006068468847A8078E
:10AA100005D501208DF80000E16968468847680780
:10AA200005D502208DF80000E169684688477CBDA5
:10AA3000A433002005F00ABBF0B5A149A1484FF0AE
:10AA400080540B68D4F830210078D4F83411551CA8
:10AA5000C0F3031006D0944601270026BCF1060F70
:10AA600003D00AE003F0FF0CF6E7B4F82453DFF854
:10AA700058C2C5F30425CCF80050DDB2062D06D12E
:10AA8000032804D1DFF848C2904DCCF87450551C0F
:10AA900004D09446BCF1060F03D00AE003F0FF0C8B
:10AAA000F8E7D4F84452DFF82CC2C5F34235CCF8AD
:10AAB0000050DDB2062D08D1032806D1864DD5F809
:10AAC00000C02CF0807CC5F800C0551C04D0944612
:10AAD000BCF1060F03D00BE003F0FF0CF8E74FF0DA
:10AAE0008045C5F80C61C5F810617A4D2D1F2E60A8
:10AAF000DDB2062D08D1032806D1DFF8D8C1032521
:10AB00000CF1640CCCF80050DDB2062D10D10328F6
:10AB10000ED1DFF8C8C10525CCF800506F4D78354F
:10AB20002F606E4D08352E600CF104063F25356010
:10AB3000551C04D016460D46062E03D05BE0DEB24F
:10AB40000546F9E7ED1E012D55D9654D2D68654E79
:10AB50003560634D2D1D2D68361D3560604D0835FF
:10AB60002D68361D35605E4D0C352D68361D3560FF
:10AB70005B4D10352D68361D3560594D14352D68E7
:10AB8000361D3560564D18352D68564E20363560C9
:10AB9000534D1C352D68361D3560514D20352D68BF
:10ABA000361D35604E4D24352D68361D35604C4DB3
:10ABB00028352D68361D3560494D2C352D68361DDC
:10ABC0003560474D30352D68464E40363560444D32
:10ABD00034352D68361D3560414D38352D68361DAC
:10ABE00035603F4D3C352D68361D35603C4D403558
:10ABF0002D68361D3560551C03D01646062E02D032
:10AC000007E0DEB2FAE7D4F85852374E05F04F05A8
:10AC10003560551C03D01346062B02D008E0DBB28A
:10AC2000FAE732480368DB0702D06FF001030360E4
:10AC3000062A07D1C91E022904D92D48016841F40A
:10AC40008061016024487438016841F4700101603A
:10AC5000BFF34F8FBFF36F8FD4E94C104FF010222A
:10AC6000062907D1C01E032804D9D2F808021949C1
:10AC70001C310860D2F80C02C0071DD0012005F07D
:10AC8000ADFFD2F80C0220F00100C2F80C02194806
:10AC900001680029FCD0002005F0A0FFBFF34F8F12
:10ACA0000D48F0380168144A01F4E0611143016075
:10ACB000BFF34F8F00BFFDE7114910480860F0BD9A
:10ACC000E00F00F0E80F00F0403501400DF0ADBAA4
:10ACD00000C007403C050040FCED00E0105600407D
:10ACE0000404001020C50040E40E004000040040B1
:10ACF0003C17004000E401400400FA050090D00336
:10AD0000EC3300202DE9F047104E042700244FF4C7
:10AD1000A0784FF4803900BF08EB840509FA04F0ED
:10AD2000715961B1D6F80413014208D02946304662
:10AD300005F043FA0648D0E9002128469047641CF4
:10AD4000E4B2BC42E8D3BDE8F087000000900040C8
:10AD5000787D00200748D0F84011002909D0002153
:10AD6000C0F8401104484078032802D1034901206B
:10AD70000861704700A00140A4330020001000408B
:10AD800000214A1E0160C0E90112C1607047000045
:10AD90001CB50A4966208DF8000091F826108DF840
:10ADA000040030318DF801108DF802008DF8030099
:10ADB00005216846FBF71CFE1CBD0000D075002075
:10ADC000F0B5514D87B0296800297CD04F48006804
:10ADD000814201D8411A01E0C9430144322972D3AA
:10ADE000401E40F001004A4A286000266B6892F835
:10ADF000271092F8280092F8294037460D2B61D28F
:10AE0000DFE803F0070F1829323843454743454729
:10AE10005D0000261F27022901D800240FE08C1EA8
:10AE20000DE0002692F82A003746022829D98C1E08
:10AE3000022105E001261F270228EED9841E0121E8
:10AE40003046FFF7E5FA0090E3B23A46314601A8F2
:10AE500006F08EF94DE02E490126002791F82B10BF
:10AE600002290ED9841EE3E702261F27022CD4D91B
:10AE7000A41EE4E726480226002790F82C000228AA
:10AE800001D80024D4E7A41ED2E7002002E001206C
:10AE900000E0022042218DF804104D218DF80510AC
:10AEA0008DF80600092B10D200EB40001F2102EBA9
:10AEB00080008DF80710D0F884000EE003E0FFF763
:10AEC00067FF17E02F6007B0F0BD00EB400002EB1A
:10AED00080008DF80770D0F8880005AA06A9FCF755
:10AEE000DDFC9DF818008DF808009DF814008DF821
:10AEF00009000626314601A8FBF77AFD0028E2D1B9
:10AF00006868401C6860DEE79C310020D42B00207C
:10AF1000D075002004480068401E40F0010103483D
:10AF20000160002141607047D42B00209C3100203B
:10AF30000148006800470000143300200FB4084B9C
:10AF400010B504A902AA039800F07AF8044602A9F1
:10AF5000002000F016FA204610BC5DF814FB00003B
:10AF600083B30200002809DB00F01F020121914099
:10AF70004009800000F1E020C0F8801270470028EE
:10AF80000DDB00F01F02012191404009800000F11B
:10AF9000E020C0F88011BFF34F8FBFF36F8F704771
:10AFA000002809DB00F01F020121914040098000C8
:10AFB00000F1E020C0F800117047002809DB00F024
:10AFC0001F02012191404009800000F1E020C0F8FB
:10AFD000001270474907090E002804DB00F1E02049
:10AFE00080F80014704700F00F0000F1E02080F8B6
:10AFF000141D704700487047F033002002E008C875
:10B00000121F08C1002AFAD170477047002001E0E2
:10B0100001C1121F002AFBD1704700000121202826
:10B0200003DA81400548014003E0402802DA203875
:10B03000814009B10120704700207047FC06FFBD28
:10B040002DE9FF4F8BB088460546002606E02528EF
:10B050000BD0DDE90D1290476D1C761C2878002876
:10B06000F5D10FB03046BDE8F08F0024A146A246CE
:10B070000122AE4900E0044315F8013F203B02FAEB
:10B0800003F00842F7D128782A2810D06FF02F0259
:10B090002878A0F13001092915D809EB890102EBC4
:10B0A000410144F0020400EB01096D1CF0E758F87F
:10B0B000041B5FEA010903D544F40054C9F10009F7
:10B0C00044F002046D1C28782E2817D115F8010FC2
:10B0D00044F004042A280ED06FF02F022878A0F143
:10B0E000300109290AD80AEB8A0102EB410100EB81
:10B0F000010A6D1CF2E758F804AB6D1C28786C2827
:10B100000FD006DC4C2817D068280DD06A2814D13F
:10B1100004E0742810D07A280FD10DE044F4001414
:10B120000AE044F4801401E044F440146978814258
:10B1300002D104F580146D1C6D1C2878692865D037
:10B1400006DC00288DD0632827D0642806D15DE076
:10B150006E2808D073282AD0752877D0DDE90D1223
:10B160009047761CE0E0C4F30250022809D003287F
:10B170000DD0D8F8001004280DD00E6008F1040896
:10B18000D2E0D8F80010F217C1E90062F6E7D8F86B
:10B1900000100E80F2E70E70F0E718F8041B8DF82F
:10B1A000001000208DF80100EB46012003E058F864
:10B1B00004BB4FF0FF3061074FF0000701D40AE0F5
:10B1C0007F1C57450DDA8742FADB1BF80710002970
:10B1D000F6D106E07F1C8742FCDB1BF80710002934
:10B1E000F8D1DDE90D23A9EB07008146214600F0E7
:10B1F000B1F83044C61904E0DDE90D121BF8010B6B
:10B2000090477F1EF8D22146484688E058F8040B44
:10B21000C4F302514FF00A0B032900D100B20429F4
:10B2200000D140B2002802DA40422D2102E021057F
:10B2300005D52B218DF82410012104E006E0E1075B
:10B2400010D02021F6E708AF089113E058F8040B5E
:10B25000C4F302514FF00A0B032900D180B2042934
:10B2600000D1C0B20021EEE75946FBF73BF930317F
:10B2700007F8011D0028F7D1ADEB070000F1200B06
:10B28000600702D524F4803401E04FF0010ADA456A
:10B2900002DDAAEB0B0000E00020824600EB0B0170
:10B2A00008980144A9EB01000A90E00306D4DDE907
:10B2B0000D2321460A9800F04DF806444FF000098E
:10B2C00008E009A911F80900DDE90D12904709F11C
:10B2D0000109761C08998945F3DBE0030CD5DDE90B
:10B2E0000D2321460A9800F035F8064404E0DDE914
:10B2F0000D1230209047761CBAF10001AAF1010A24
:10B30000F5DC05E0DDE90D1217F8010B9047761C1E
:10B31000BBF10001ABF1010BF4DC0A982146DDE939
:10B320000D2300F005F806446D1C97E6092801007E
:10B330002DE9F041044600251E461746880404D432
:10B3400005E039462020B0476D1C641EF9D528461B
:10B35000BDE8F0812DE9F041044600251E469046E7
:10B36000C80301D5302700E02027880404D505E074
:10B3700041463846B0476D1C641EF9D52846BDE8E5
:10B38000F0810A68531C0B6010707047006890FAD7
:10B39000A0F000BA00BA7047800701D000207047C3
:10B3A00001207047C3688B4206D811440069491ECA
:10B3B000814201D8012070470020704790F8240096
:10B3C000012801D01F207047EE20704710B50122E0
:10B3D0000221002001F0D4FE08B1072810D1072275
:10B3E0000221012001F0CCFE08B1072808D100217C
:10B3F0000A22084601F0C4FE08B1072800D1002047
:10B4000010BD000000B5ABB0AC216846FBF721F8D9
:10B4100002208DF8000000218DF8021006218DF821
:10B420000310ADF84C000E48149001208DF87C00FC
:10B430004FF448702290B42023900A48299069461E
:10B44000094800F042FE20B108A240F20531FAF7A7
:10B45000E1FE0121044800F035FE2BB000BD0000E4
:10B460005C320020F50B0300147700202E2E5C2E9A
:10B470002E5C2E2E5C6D61696E2E630030B472B648
:10B48000034B1B68DB0700D000BE30BC00F002B8E5
:10B49000F0ED00E008B501238DF800309DF8003094
:10B4A000144B186059609A606FF48041401807D0BF
:10B4B00001280FD1DA60D86800689861D86807E081
:10B4C0001A6118698068586118690068986118697C
:10B4D0004068D861186858689868D86818695869C9
:10B4E0009869D86972B600BF9DF800000028FBD1AA
:10B4F00062B608BD847D002030B542680B4C1379DC
:10B50000E15C0120FF290ED0FE290DD012684FF416
:10B51000A86505EB81015158054A52F82320914254
:10B5200002D1FF20E054002030BD00006133002034
:10B53000247E002003681B8B9BB253436422B3FB21
:10B54000F2F292B2AFF3008070B50446006816467E
:10B550000D4690F8212001EB450100EB8101022A04
:10B5600001D0082070BD4968B14205D1C16909B355
:10B570006068007988471DE02046FFF7BDFF08B1ED
:10B58000112070BD61680C4AFE2009795054324682
:10B590002946204606F04CF82068C06950B1616821
:10B5A000064A0220097902EB4101485502216068F0
:10B5B00005F02EFA002070BD61330020387E002097
:10B5C0002DE9F84F07688946054601EB490897F8C9
:10B5D00021001E46924607EB880410B10820BDE802
:10B5E000F88F4FF0000B3248C4F804B0A672006820
:10B5F00000900A22296802EB8800085C40B1002014
:10B600008DF801006946504604F088FEB0B901E0AB
:10B610000120F5E747F828A04FF001084FF0A041BE
:10B6200008FA0AF016B1C1F80C0501E0C1F80805E6
:10B630000027E019083004F043FF08B10420CEE7EA
:10B640007F1CFFB2022FF4D3207A04F091FF607ABE
:10B6500004F08EFF206836B104F00CFE0646206828
:10B6600004F01EFF05E004F01BFF0646206804F00E
:10B6700001FE07464946686805F0BBF90146207A95
:10B68000324604F053FF0221686805F0B2F9014622
:10B69000607A3A4604F04AFF84F80B806968054AEC
:10B6A000097902EB410202F809B0002097E7000097
:10B6B000D8600300387E00202DE9F0470646D6E921
:10B6C000007005F0B7F90221706805F09AF997F853
:10B6D000200004F04DFF00254FF001084FF0A04975
:10B6E00005EB450007EB8004E17A99B10A22316845
:10B6F00002EB8000085CA8B1207808FA00F2C9F8D3
:10B700000C25206804F068FE207A04F031FF607A8E
:10B7100004F02EFF6D1CEDB2022DE1D387F82180DD
:10B72000BDE8F087217808FA01F0C9F80805E8E7D4
:10B730002DE9F0470025DFF8689007680446A84621
:10B74000626805EB450007EB8006137909EB4302BD
:10B7500002F80580F17A71B10A22216802EB8000BB
:10B76000085CD8B10021306804F05AFE306804F05B
:10B7700045FEC6F804806D1C022DE1D36168094ABC
:10B78000FF2009795054606805F012F9606805F0EF
:10B790005FF9022087F82100BDE8F0870121E2E788
:10B7A000387E0020613300202DE9F74F84B00E0071
:10B7B000044607D0256895F8210028B1082007B075
:10B7C000BDE8F08F0B20FAE703F02AFE18B18528B8
:10B7D00001D00420F3E704F097FD20B904F05AFDEE
:10B7E00008B10320EBE75048DFF840A100210078C2
:10B7F0004FF0010BC0F30310032821D08AF800B0EA
:10B80000FF2285F82020002091464FF0FF3C00BF2A
:10B8100000EB400705EB8703401CD97283F80890C2
:10B8200083F80990C0B245F827C00228F0D305F18B
:10B83000200004F045FE30B1204605F091FEC8E737
:10B840008AF80010DCE7002756F82720501C12D099
:10B85000F0193946037A2046FFF7B2FE5FEA000886
:10B8600004D0204605F07CFE4046A8E70022394679
:10B870002046FFF769FE7F1CFFB2022FE4D30020B1
:10B8800009224FF48053316901E04908401C994274
:10B8900001D39042F9D39AF8001009B100B9012000
:10B8A000234AD2E90112CDE901128DF80400606843
:10B8B000204A01A900790290606805F0EDF80700C0
:10B8C00004D0204605F04CFE384678E761683069C0
:10B8D0000968D1F81015CAB2010F0001FAF790FDFE
:10B8E0000646A861606805F063F8CDF800B05F46D1
:10B8F000042332460221606805F0B8F8022160682E
:10B9000005F07FF80698E86160680B49074A0079FE
:10B91000521C41F820406168097902F8019085F8CD
:10B92000217000204BE70000E80F00F0603300209A
:10B93000D8600300D9150300447E002070B5046868
:10B94000054694F82100022801D050B102E02846B3
:10B95000FFF7B2FE284605F003FE002084F8210020
:10B9600070BD082070BD012070470000014801F043
:10B97000C6BF00003033002010B55AB100684FF048
:10B98000FF3401294261C0E9024400D00021016175
:10B99000002010BD072010BD38B5114808235822DB
:10B9A000416800910F49006803F0D3F8002815D1D1
:10B9B0000D4A69460D4801F0A7FF04000ED1012190
:10B9C0000A4801F0EEFF0123094A1946074801F031
:10B9D0006EFF0649012008390870204638BD000076
:10B9E000BC600300B47D0020711B030030330020D5
:10B9F000FFFF7F00F8B50446002617460D468DF878
:10BA00000060684600F042F8D4E90201C04370EAE1
:10BA1000010005D09DF8000000F05CF80020F8BDA2
:10BA200002F01CFD40197141C4E902019DF80000BB
:10BA300000F050F8A761206900B125612146BDE8FA
:10BA4000F840002006F08CBF38B5044600208DF881
:10BA50000000684600F01AF8D4E90201C04370EA19
:10BA600001000DD04FF0FF30C4E902009DF8000046
:10BA700000F030F82146BDE83840012006F070BFE4
:10BA80009DF8000000F026F8002038BD30B5EFF337
:10BA9000108172B60D4A9468012324B10370002905
:10BAA00000D162B630BD93604FF0E023D3F88051EF
:10BAB000074C25401560C3F88041D3F88441546099
:10BAC0005A17C3F8842100220270E8E70C7E002098
:10BAD000FC06FFBD0B498A68002A11D000280FD14F
